S02B00002F73747564656E74732F68736C68322F576172702D6669726D776172652F6275696C642F6B73646BAD
S1130000000600201D050000450500004505000010
S113001000000000000000000000000000000000DC
S11300200000000000000000000000004505000082
S11300300000000000000000450500004505000028
S11300404505000045050000450500004505000084
S11300504505000045050000450500004505000074
S11300601F2B000045050000292B0000450500005A
S11300704505000045050000450500004505000054
S11300804505000045050000450500004505000044
S11300909D0E0000B50E000045050000450500005A
S11300A04505000045050000450500004505000024
S11300B04505000045050000450500004505000014
S1130400FFFFFFFFFFFFFFFFFFFFFFFFFE3DFFFFBB
S11304100448054B10B5834203D0044B002B00D095
S1130420984710BDA8FFFF1FA8FFFF1F0000000092
S113043006480749091A8B10C90FC91810B5491085
S113044003D0044B002B00D0984710BDA8FFFF1F1A
S1130450A8FFFF1F0000000010B5074C2378002BF5
S113046009D1FFF7D5FF054B002B02D0044800E06B
S113047000BF0123237010BDA8FFFF1F0000000070
S113048084670000054B10B5002B03D004490548D0
S113049000E000BFFFF7CCFF10BDC0460000000025
S11304A0ACFFFF1F84670000402292029A1A924612
S11304B07047C046154B002B00D1114B9D46FFF7EA
S11304C0F3FF00218B460F461148124A121A00F01E
S11304D0FFF80C4B002B00D098470B4B002B00D09F
S11304E098470020002104000D000B4800F02EF86E
S11304F000F064F82000290001F05AF900F034F803
S113050000000800000000000000000000060020B9
S1130510A8FFFF1FF00200209505000072B60648F0
S11305200649074A02600A6002F004FB02F044FB39
S113053062B6FFF7BFFF000080E100E080E200E068
S1130540FFFFFFFF004800474505000010B501000C
S113055000230022002000F019FA10BD014B186896
S11305607047C04600FEFF1F084B10B50400002B67
S113057002D0002100F078FA054B1868836A002B3A
S113058000D09847200000F05BFCC046690A0000D8
S11305906C4E000070B5074D074C641BA41005D0C9
S11305A0013CA300EB589847002CF9D106F0F0F871
S11305B070BDC046A8670000AC67000070B50C4D64
S11305C00C4E761BB61005D0002408CD0134984794
S11305D0A642FAD106F0D6F8074D084E761BB6109F
S11305E005D0002408CD01349847A642FAD170BD45
S11305F0A4670000A4670000A4670000A8670000C7
S113060010B5034B0100186800F00CF910BDC0468A
S113061000FEFF1F10B5034B0100186800F0ACF892
S113062010BDC04600FEFF1FF0B5C64600B50F2A38
S113063043D90B00032603431E400C000300002E85
S113064040D11500103D2D09AC462D01A84680442B
S113065000E03B00676825685F60E7681D60DF6055
S11306601F00A56810379D6010344345F1D16546DD
S11306700F230C2401352D01491913404519144247
S113068023D08C59AC5104369C1B032CF9D8032479
S1130690043B9B0801339B002240ED18C918561EE9
S11306A0002A07D0002300E02300CA5C5C1CEA5443
S11306B09E42F9D104BC9046F0BD0500561E002AA6
S11306C0F0D1F7E7561E0500ECE71A00F6E7C0463E
S11306D0F0B5050083074AD0541E002A44D0CEB298
S11306E00300032202E00135013C3DD301332E70A7
S11306F01342F8D1032C2FD9FF220A4015021543C7
S11307002A0415430F2C35D92700103F3F093E0119
S1130710B4461E001A001036664415605560956094
S1130720D5601032B242F8D10F260C2201373F01B6
S11307302640DB193700224217D03E1FB608B4000A
S1130740A4461A001C1D644420C2A242FCD1032406
S11307500136B6009B193C40002C05D0C9B21C19C7
S1130760197001339C42FBD1F0BD3400F4E714004E
S11307700300BFE72700E0E770B50500002915D0A6
S11307800C1F2368002B27DB280000F0CBF9244B37
S11307901A68002A05D0A2420CD921686018824246
S11307A024D0626028001C6000F0BEF970BDA34232
S11307B003D81A005368002BF9D111685018A042CD
S11307C01BD027D821686018834207D06360546027
S11307D0280000F0A9F9E9E7E418D5E718685B6890
S11307E084466144216063605460F1E71068526894
S11307F08446614421606260D4E720680918501877
S113080011608342E4D118685B68844661441160D6
S11308105360DDE70C2328002B6000F085F9C5E761
S1130820C4FFFF1FF8B50323CD1C9D430835060004
S11308300C2D2AD20C25A94229D8300000F072F9D7
S11308402A4F3A68002A0AD013685B1B04D441E09B
S113085023685B1B1FD522005468002CF8D17B68E9
S1130860002B3DD02900300000F042F8431C2AD070
S11308700323C41C9C43A04205D0211A300000F07D
S113088037F8431C1FD0256010E0002DD3DA0C2369
S113089000203360F8BD0B2B05D86368A2421DD03D
S11308A0536003E014002360E4182560300000F076
S11308B03BF9200007220B30231D9043C21AE9D0D4
S11308C01B1AA350E6E70C233000336000F02CF928
S11308D00020DFE70B2BE5D8140053683B60E5E705
S11308E00021300000F004F87860BBE7C4FFFF1F6C
S11308F0002370B5064C05000800236000F0A2FA3E
S1130900431C00D070BD2368002BFBD02B60F9E79B
S1130910EC02002003000A7801311A700133002A26
S1130920F9D1704710B5830727D00378002B26D060
S11309300300032102E01A78002A1CD001330B4281
S1130940F9D119680F4A104C8A188A4322420FD1F0
S1130950043319680B4A8A188A43224208D10433A3
S11309601968084A8A188A432242F1D000E0013308
S11309701A78002AFBD1181A10BD0300E1E7002001
S1130980FAE7C046FFFEFEFE80808080F0B5464652
S11309904F46D646C0B51F002F4B82B01C680500D9
S11309A00E009046002C2DD063681F2B50DC002DC8
S11309B01CD08822A0589146002834D0783282581E
S11309C094469A0091468144424649460A60012170
S11309D0624699400A43944680228A466146520000
S11309E081504946803A8F50022D16D000205A1C5F
S11309F002339B0062601E5102B01CBC90469946B3
S1130A00A246F0BD154C1C60154B002BCCD01B68C6
S1130A1001938823019AE250C6E7554684328158EF
S1130A200D438550E2E70F4B002B11D0842040008A
S1130A30FFF7E6FD00280BD08022002352008350EC
S1130A40043283504B460022E05094466368B8E772
S1130A5001204042D0E7C04658000020CCFFFF1FD1
S1130A600000000001060000F0B5DE464E46454693
S1130A7057462B4B88469B46E0B51E6883B00190D1
S1130A80002E45D088237568F7586C1E40D4013574
S1130A90AD00783375199A460AE0002F05D03B0063
S1130AA0A20080339B58434505D0043D013C2FD31D
S1130AB04346002BF1D173682A68013BA34222D03C
S1130AC000232B60002AF0D073689946002F18D0B9
S1130AD001235146A3407958194212D08220400084
S1130AE03858A1007958009018420ED101989047C7
S1130AF05B4672681B684A4501D1B342D5D01E00DB
S1130B00BEE79047F4E77460DCE708009047EFE73E
S1130B1003B03CBC90469946A246AB46F0BDC046E5
S1130B20580000207047C0467047C04602B4714662
S1130B3049084900095C49008E4402BC7047C0461C
S1130B4003B47146490840004900095E49008E44D7
S1130B5003BC7047002243088B4274D303098B42C1
S1130B605FD3030A8B4244D3030B8B4228D3030C79
S1130B708B420DD3FF22090212BA030C8B4202D31B
S1130B801212090265D0030B8B4219D300E0090A43
S1130B90C30B8B4201D3CB03C01A5241830B8B424C
S1130BA001D38B03C01A5241430B8B4201D34B0335
S1130BB0C01A5241030B8B4201D30B03C01A52419A
S1130BC0C30A8B4201D3CB02C01A5241830A8B421F
S1130BD001D38B02C01A5241430A8B4201D34B0208
S1130BE0C01A5241030A8B4201D30B02C01A52416C
S1130BF0CDD2C3098B4201D3CB01C01A5241830920
S1130C008B4201D38B01C01A524143098B4201D359
S1130C104B01C01A524103098B4201D30B01C01A84
S1130C205241C3088B4201D3CB00C01A52418308FE
S1130C308B4201D38B00C01A524143088B4201D32B
S1130C404B00C01A5241411A00D20146524110468B
S1130C507047FFE701B5002000F0F0F802BDC04680
S1130C600029F7D076E7704703460B437FD4002270
S1130C7043088B4274D303098B425FD3030A8B422C
S1130C8044D3030B8B4228D3030C8B420DD3FF2296
S1130C90090212BA030C8B4202D31212090265D064
S1130CA0030B8B4219D300E0090AC30B8B4201D317
S1130CB0CB03C01A5241830B8B4201D38B03C01A5E
S1130CC05241430B8B4201D34B03C01A5241030BD5
S1130CD08B4201D30B03C01A5241C30A8B4201D386
S1130CE0CB02C01A5241830A8B4201D38B02C01A31
S1130CF05241430A8B4201D34B02C01A5241030AA8
S1130D008B4201D30B02C01A5241CDD2C3098B428C
S1130D1001D3CB01C01A524183098B4201D38B0109
S1130D20C01A524143098B4201D34B01C01A5241AC
S1130D3003098B4201D30B01C01A5241C3088B42F1
S1130D4001D3CB00C01A524183088B4201D38B00DC
S1130D50C01A524143088B4201D34B00C01A52417E
S1130D60411A00D201465241104670475DE0CA0F55
S1130D7000D04942031000D34042534000229C4615
S1130D8003098B422DD3030A8B4212D3FC2289011F
S1130D9012BA030A8B420CD3890192118B4208D3F5
S1130DA0890192118B4204D389013AD0921100E057
S1130DB08909C3098B4201D3CB01C01A524183096B
S1130DC08B4201D38B01C01A524143098B4201D398
S1130DD04B01C01A524103098B4201D30B01C01AC3
S1130DE05241C3088B4201D3CB00C01A524183083D
S1130DF08B4201D38B00C01A5241D9D243088B4293
S1130E0001D34B00C01A5241411A00D20146634635
S1130E1052415B10104601D34042002B00D5494299
S1130E20704763465B1000D3404201B5002000F0D8
S1130E3005F802BD0029F8D016E770477047C04690
S1130E40FEE7C0460A4A0300116810B5002901D123
S1130E500849116010680849C3188B4206D9FFF786
S1130E607DFB0C2303600120404210BD1360FCE7AE
S1130E705C000020F0020020F002002083780220B1
S1130E809842804140427047437A0020013B012B45
S1130E9003D90B78013001330B70704710B5002073
S1130EA003F02AFC002803D00021080003F018FCFA
S1130EB010BD0000024A1368013313607047C04636
S1130EC07000002037B5002002F01AFBC023002474
S1130ED00D4A9B0013600D4A0D4D13600D4A20000E
S1130EE013600D4B2C716C71AC711A68FA239B0062
S1130EF053430A492B6003F04DFC2900200001AA4A
S1130F0003F0AEFC37BDC046189014541C90145422
S1130F10C800002000A0145484FEFF1F9800002085
S1130F2010B58024002003F077FC0A4B64001C6099
S1130F30094B07201C60094B1C6002F07BFD062056
S1130F4002F078FD200002F075FD002002F0DDFAC9
S1130F5010BDC046189014541C90145400A014548E
S1130F6010B5002002F0D6FA8023054A9B001360D6
S1130F70044A00200449136002F038FE10BDC04644
S1130F800CA0145410A014547400002010B50020B8
S1130F9002F068FE80238220074A5B001360074A40
S1130FA04000136002F046FD0420FF3002F042FDD1
S1130FB0002002F0B4FA10BD0CA0145410A0145474
S1130FC00023364A70B51360354A01201360354A50
S1130FD00133FF331360344A34491360344A1360D5
S1130FE0344A1360344A1360344A1360344A136039
S1130FF0344A14782500054004424DD00B60324930
S113100032480B60002101603148016031490B60B6
S113101031490B6031490B6031490B6031490B6038
S113102031490B601378DB0703D50220FF3002F04F
S1131030F3FC092002F0FEFC0C2002F0FBFC05206E
S113104002F0F8FC082002F0F5FC0620FF3002F064
S1131050F1FC0E20FF3002F0EDFC8320400002F092
S1131060E9FC0820FF3002F0E5FC0C20FF3002F020
S1131070D3FC8220400002F0DDFC0420FF3002F0AB
S1131080D9FC072002F0D6FC062002F0D3FC802015
S1131090400002F0CFFC70BD0D60B0E70C9014541A
S11310A010901454149014541890145404A014540C
S11310B01C901454209014542490145430901454BC
S11310C000A0145480FEFF1F08A014540CA0145454
S11310D010A0145414A0145418A014541CA0145494
S11310E028A014542CA0145434A0145410B509206E
S11310F002F0A0FC10BD10B50C2002F09BFC10BD4A
S1131100384B10B598423DD027D8374B984253D02E
S113111015D8C83B984244D009D8C83B984231D02E
S1131120324B984206D1052002F076FC2DE0304B7C
S113113098423DD02F49002001F0E5FC2CE0962395
S11311401B01984243D02C4B984247D02B4B9842DA
S1131150F0D1052002F060FC31E0294B98422BD0FD
S113116007D8C83B98421CD0264B984220D0264B27
S1131170D7E7C8231B01984229D0244B98422DD08D
S1131180234BE4E7052002F055FC082002F052FC52
S11311900620FF3002F04EFC1E4B186801F0F7FFEA
S11311A010BD052002F046FC082002F035FCEFE7F4
S11311B0052002F031FCF7E7052002F03BFC082093
S11311C002F038FC0620FF3002F026FCE4E705209C
S11311D002F030FC082002F01FFCF3E7052002F0C7
S11311E01BFCF7E7280A0000980800006C070000C1
S11311F034080000704E0000C4090000FC08000020
S1131200B80B0000540B00008C0A0000E40C000032
S11312101C0C000088FEFF1F10B5FFF771FF0920AA
S113122002F0FAFB0C2002F005FC8320400002F0DF
S113123001FC10BD10B5FFF763FF092002F0FAFBB3
S11312400C2002F0E9FB8320400002F0E5FB10BD16
S1131250AF220C4B10B5C3189BB29200934202D834
S1131260FFF7DAFF10BD084BC3189BB2934202D8B4
S1131270FFF7E0FFF6E702000449002001F043FC19
S1131280F0E7C046F8F8FFFFD8F5FFFF9D4E0000D9
S113129010B5FFF72BFFFFF72EFF8320400002F06D
S11312A0BBFB024B186801F072FF10BD88FEFF1FE4
S11312B010B50400002901D0FFF782FE00210220AE
S11312C001F068F82100042001F064F810BD10B5A5
S11312D0012420000021FFF7EBFF21003C20FFF751
S11312E0E7FFF6E770B51400002812D01349002078
S11312F001F0F6F9124D286801F049FF1149002068
S113130001F0EEF9286801F042FF00200E4901F0D7
S1131310E7F900200D4901F0E3F900252A00002037
S11313200B4901F0F0FB002001F0F2FD002C02DD7E
S1131330200001F02CFF0135F0E7C046D54E000037
S11313407CFEFF1FEC4E00000D4F00003B4F0000E1
S1131350624F0000F0B591B0059218AA12780D9171
S11313600A921CAA12780EA90E921DAA12881E00B7
S1131370089221225218D27F16AB09921FAA128812
S11313801F780F9217AB20AA12781B7804000B92D7
S1131390BB4203D30A9A974200D91F00059B002E33
S11313A006D1002B06D15949002001F0ACFB01E025
S11313B0002BF8D100250898FFF74AFF21000020F0
S11313C001F08EF9089C0495069503950023079374
S11313D0079B199A934200DC95E00E9B002B04D0E6
S11313E001370A9BFFB2BB42F0D2039A069B944694
S11313F047496344002001F086FB322001F0C7FE18
S1131400099B049A434900930020039B01F07BFB52
S1131410322001F0BCFE2A003F49002001F073FB9A
S1131420322001F0B4FE11B0F0BD029B3022FB1853
S11314300C936B469B18187801210D9B9847002844
S113144049D1039B01330393089B9C4204D9643C18
S1131450A4B22000FFF7FCFE002E26D0099AB37B2D
S11314609B1A5A425341049AD31804930B9B002BA2
S11314700BD0337B029A717BB07B0091019027499A
S11314800020DBB2BA1801F03EFB1B9B002B02DDEF
S1131490180001F07CFE029B01330293029B1A9A0E
S11314A09342C2DB079B013391E7059B099A1B7AA0
S11314B09B1A5A425341049AD31804930B9B002B52
S11314C0E3D0059B029A1B7A30001549DBB2BA18A7
S11314D001F019FBD9E7022810D100200C9A114918
S11314E001F011FB069B013306930F9B9C42CCD267
S11314F06434A4B22000FFF7ABFEC6E703384342CE
S113150058412D18C1E70023C7E7C046704E0000BC
S1131510B24F0000CA4F0000FB4F0000654F0000AF
S11315208A4F00009F4F0000F0B591B00D9316ABA9
S11315300400100004CB0C911F781AAB1B880E9288
S11315400F931BAB1E881CAB1D78002C55D0FFF7E6
S113155007FD601E12284AD8FFF7E8FA0A0F2B2D60
S11315602F3149333537393B3D3F434149454700E6
S11315702449002001F0B4F817E00F9B0C9A07935C
S11315800D9B00920693189B1F4A05930E9B1F49BF
S11315900493199B1E4803930523029300230A977F
S11315A0099608950193FFF7D5FEFFF7EFFC11B0FC
S11315B0F0BD1849DDE71849DBE71849D9E71849B0
S11315C0D7E71849D5E71849D3E71849D1E71849A7
S11315D0CFE71849CDE71849CBE71849C9E71849B7
S11315E0C7E71849C5E71849C3E71849C1E7220006
S11315F01749002001F087FAD7E72000154901F0C8
S11316006FF8D4E71050000060000020B52E0000F1
S11316103D5000004950000074500000A5500000E7
S1131620D550000005510000325100005F51000008
S11316308B510000B9510000E55100001252000026
S11316403E5200006A52000097520000C35200004C
S1131650EF5200004153000003003038092805D937
S11316601A00613A052A02D8573B180070471A003D
S1131670413A0020052AF9D8373BF6E770B501F066
S11316804AF8040001F047F8FF2605002000304026
S1131690FFF7E2FF040028003040FFF7DDFF2401DC
S11316A02018C0B270BD70B501F035F8060001F025
S11316B032F8050001F02FF8040001F02CF8FF22A5
S11316C0FA23642116401540303E14409B00303DFF
S11316D04D4373435A39303C4C435B1910401B193A
S11316E03038181870BD000070B50C00160088B0B2
S11316F00CAA157806A908800A4A05A805700A4D9F
S113170012682D684A6004AA1670019300902300A1
S11317100020029502F0CEFB002800D0022008B081
S113172070BDC04674FEFF1F78FEFF1FF7B56A4602
S1131730CB1DDB08DB00D31A02AF9D460C0005006D
S1131740FFF7C0FBFA2300219B0002AE0193009433
S113175033002A00080003F0DFF80400FFF7E0FB81
S1131760002C00D00424BD462000F2BD10B500209A
S1131770014900F0B5FF10BD6D53000010B5094CD0
S11317800020210000F0ACFF2100002000F0A8FFA1
S11317900549002000F0A4FF0449002000F0A0FF48
S11317A010BDC04699530000C9530000FA5300000D
S11317B0F0B5B9B025AC072200212000FEF788FF60
S11317C0FA4A01252C92032215AB2F9317AB3093C1
S11317D019AB32931DAB34931FAB359321AB3693C6
S11317E023AB1BAE11A9002037932CAB1A712E9199
S11317F0149333962570319401F07AFE280001F099
S113180077FE8021EA4B0902196001F0DFFC002316
S113181000951A001900180000F084FFE549002023
S113182000F05EFFC82001F0B2FCE349002000F0A4
S113183057FFC82001F0ABFCE049002000F050FF46
S1131840C82001F0A4FCDE4A2B000221DD4801F08F
S1131850E1FC2900280001F0E9FC002002F08AFEE6
S11318608C210027D84B3800299308AB5B181F80C4
S1131870023108AB5B1829A91F702A9502F0A6FE55
S113188039002A0011A8FEF723FF4820259B08A948
S11318901993A28809180A80A279023008A90918A4
S11318A00A700322063808A909180A701B93A28833
S11318B008A9B280A2790A38B27105223270159350
S11318C0A28802260A87A27909180A70342108AA74
S11318D0521816701793A288063008A909180A80AE
S11318E0A279801908A909180A703C2108AA52187B
S11318F0383911701D93A288163008A909180A8076
S1131900A279801908A909180A700822063808A9BA
S113191009180A701F93A2880C3008A909180A80B4
S1131920A279801908A909180A700921063808AA99
S1131930121811702193A3880C3008AA121813806E
S1131940A379801908AA121813700A23063808AA62
S1131950121813706C2208AB9B181F7014AA2B006A
S11319602FA801F025FE3900300000F013FD97493F
S1131970974802F037F8FFF723FB0820FF3002F006
S11319804BF8C82001F003FC0820FF3002F052F8A5
S1131990C82001F0FCFB0820FF3002F03DF8C8200D
S11319A001F0F5FB0820FF3002F044F8C82001F0F4
S11319B0EEFB0820FF3002F02FF8C82001F0E7FB0F
S11319C00820FF3002F036F84020824901F038FA4E
S11319D0FFF75EFC01F04EF93B000897099780275A
S11319E00B933F0204330A937B49002000F078FEF6
S11319F07A4C206801F0CBFB7949002000F070FE9E
S1131A00206801F0C4FB099B089A7649002001F084
S1131A107AF8206801F0BBFB734D744E74492A6850
S1131A2033680968002000910197724901F06BF84E
S1131A30206801F0ACFB704B7049714A0020D25809
S1131A404B69096800916F4901F05DF8206801F065
S1131A509EFB6D4900200A784B788979D2B2DBB2BB
S1131A6000916A4901F04FF8206801F090FB664B41
S1131A7067491A7A1B7E0978D2B2DBB20091002042
S1131A80644901F040F8206801F081FB624B63492E
S1131A901A785B780969D2B2DBB200910020604900
S1131AA001F031F8206801F072FB5E4B54489A78DB
S1131AB052495D4BD2B2C3584968002000915B493A
S1131AC001F021F8206801F062FB594B59491A686A
S1131AD011AB1B78002001F016F8206801F057FBC9
S1131AE05549002000F0FCFD206801F050FB5349EB
S1131AF0002000F0F5FD206801F049FB504900206A
S1131B0000F0EEFD206801F042FB4E49002000F099
S1131B10E7FD206801F03BFB4B49002000F0E0FDAD
S1131B20206801F034FB4949002000F0D9FD206809
S1131B3001F02DFB4649002000F0D2FD206801F0A1
S1131B4026FB4449002000F0CBFD206801F01FFB78
S1131B504149002000F0C4FD206801F018FB3F4912
S1131B60002000F0BDFD206801F011FB0A9B099ADA
S1131B703B49002000F0C7FF206801F008FB394909
S1131B80002000F0ADFD206801F001FB3649002083
S1131B9000F0A6FD206801F0FAFA3449002000F0B4
S1131BA09FFD206801F0F3FA62E0C046890E000050
S1131BB0E00200202C540000475400004D54000063
S1131BC064FEFF1F90FFFF1FE0070100A0FEFF1F40
S1131BD090FEFF1F60000020545400007CFEFF1F95
S1131BE078540000AA54000074FEFF1F84FEFF1FF7
S1131BF08CFEFF1FDE5400003C10000000D00340A8
S1131C000070044016550000004006404C5500008A
S1131C10005006407B55000000E0074000ED00E066
S1131C20AB55000000D0074034100000E55500001B
S1131C30700000201D5600004B5600005556000051
S1131C40725600008E560000AA560000C7560000C7
S1131C50EE5600000D5700002C57000057570000A7
S1131C607A570000A9570000C5570000E957000043
S1131C70D649002000F034FD206801F088FAD449E8
S1131C80002000F02DFD206801F081FAD1490020E8
S1131C9000F026FD206801F07AFACF49002000F018
S1131CA01FFD206801F073FACC49002000F018FDF4
S1131CB0206801F06CFACA49002000F011FD206888
S1131CC001F065FAC749002000F00AFD206801F020
S1131CD05EFAC549002000F003FD206801F057FAC0
S1131CE0C249002000F0FCFC206801F050FAC04911
S1131CF0002000F0F5FC206801F049FA00F00BFD2B
S1131D00FF2302000C901A400A2A00D1E4E21000DA
S1131D104E382C2800D9C2E0FEF712FFC801C100DA
S1131D20C100C100C100C100C100C100C100C100A7
S1131D30C100C100C100C100C100C100C100C10097
S1131D40C1003100C300D600E600F100FB003A01F7
S1131D5045014D01E4013A02400240028202870239
S1131D608B02C1009102940266FE9C02C100C10074
S1131D70AA02C100B7029F4B0B93022333E69E498C
S1131D80002000F0ADFC9D49002000F0A9FC206873
S1131D9001F0FDF99A49002000F0A2FC99490020C5
S1131DA000F09EFC9849002000F09AFC206801F0A5
S1131DB0EEF99649002000F093FC206801F0E7F961
S1131DC09349002000F08CFC206801F0E0F991496F
S1131DD0002000F085FC206801F0D9F98E4900202C
S1131DE000F07EFC206801F0D2F98C49002000F05C
S1131DF077FC206801F0CBF98949002000F070FCE1
S1131E00206801F0C4F98749002000F069FC2068CB
S1131E1001F0BDF98449002000F062FC206801F063
S1131E20B6F98249002000F05BFC206801F0AFF9AC
S1131E307F49002000F054FC206801F0A8F97D4996
S1131E40002000F04DFC206801F0A1F97A4900203F
S1131E5000F046FC206801F09AF97849002000F06F
S1131E603FFC206801F093F97549002000F038FC2C
S1131E70206801F08CF97349002000F031FC2068DF
S1131E8001F085F97049002000F02AFC206801F077
S1131E907EF900F040FCC2B26E2A00D16BE76B49B8
S1131EA00EE06B49002000F01BFCFFF7FCFB2860F0
S1131EB02A68684B9A4201D1674B2B602A686749AC
S1131EC0002000F020FE8FE56549002000F008FCAA
S1131ED0FFF7E9FB306032685E4B9A4201D15E4BFA
S1131EE0336032685F49EBE75F49002000F0F8FB9C
S1131EF0FFF7D9FB5D4B5E4918601A68E0E75D495E
S1131F00002000F0EDFBFFF7B9FB5B4902000990EC
S1131F10D6E75A49002000F0E3FBFFF7AFFB584D2A
S1131F20020029000400002000F0EDFD55490020C6
S1131F3000F0D6FBFFF7A2FB12AE020029003070BE
S1131F40002000F0E0FD5049992C00D198E14F4B5E
S1131F5008981B6827AD28932C80FFF779F9F8B20D
S1131F60FEF7FEFF099B13AA1370494B29001B6857
S1131F700020029301230096019301F09BFF021EAF
S1131F8003D00020434900F0BEFDFEF7FFFF2BE520
S1131F904149002000F0A4FBFFF785FB83B21A003F
S1131FA03E4908938CE73E49002000F099FB01204C
S1131FB0FFF7E4FB18E53B49002000F091FBFFF735
S1131FC072FB87B23A0038497AE7C0460D580000E0
S1131FD02758000042580000605800007D58000057
S1131FE09C580000BB580000D55800000059000060
S1131FF02059000060000020335900003E590000C1
S113200085590000CD590000175A0000605A00009D
S1132010A95A0000E05A0000265B00006E5B000035
S1132020B55B0000FB5B0000425C0000885C0000C4
S1132030D05C0000165D0000485D00008E5D00006D
S1132040CE5D0000145E00005A5E00006E5E00006B
S11320508A5E00000F27000010270000B85E000011
S1132060D85E0000065F0000205F00008CFEFF1FAA
S11320704F5F00006A5F0000A05F0000B75F0000D0
S1132080EA5F0000006000002960000074FEFF1F8A
S113209078FEFF1F4F600000706000009C6000002D
S11320A0BE600000EC60000028610000F8B2FEF79A
S11320B057FF8A49002000F013FB3A0088490020AA
S11320C000F0C2FE3A008749052000F0BDFE8649B3
S11320D0002000F005FB002000F01AFF012000F0B2
S11320E017FF81E4099A8149002000F00CFD00F0FB
S11320F012FB7F490C90002000F0F2FA00F00BFB79
S11321007C490D90002000F0EBFA00F004FB7A49C2
S11321100E90002000F0E4FAFFF7C5FA77490500B5
S1132120002000F0DDFAFFF7BEFA75490600002032
S113213000F0D6FAFFF7B7FA72490400002000F065
S1132140CFFAFFF79BFA099B0A9A0F906E49029502
S113215001970096002000F0D6FC0C9B0F99303BB1
S1132160581E83410E980691089930380491411EF7
S1132170884101900D98A4B23038009009990A98CA
S1132180DBB2FAB2059403960295FFF7CDF92BE47E
S11321905E49002000F0A4FAFFF799F85C4900209A
S11321A000F09EFA5B49002000F09AFAFFF766FA05
S11321B027AE59493070002000F092FAFFF773FA05
S11321C030226B469B181D7804003378089A6C2DD6
S11321D015D10192514902000097002000F093FCB0
S11321E00025A54201DBFFF7FFFB27AB1A7800238C
S11321F00121FF200093FFF777FA0135F1E7009200
S113220047490200002000F07EFC0025A54201DBC6
S1132210FFF7EAFB012127A8FFF788FA0135F5E764
S11322200898FFF715F8FFF7DFFBFFF731F8FFF722
S1132230DBFB0021022000F0ADF8FFF7D5FB002105
S11322400820F8E73249002000F04AFAFFF78EFA36
S1132250FFF7CAFB0B9B3349002B11D032490020F6
S113226000F03EFAFFF70AFA0B9B1870FFF7BCFB6D
S11322702E49002000F034FA2D4800F088FF2D4943
S1132280002000F02DFAFFF7AFFB2B49002000F0EF
S113229027FAF8B2FEF764FE2849002000F020FA7D
S11322A000F039FA26490500002000F019FAFFF77A
S11322B0FAF986B232002349002000F024FC206899
S11322C000F065FFE9B268394D4269413B003200D4
S11322D00120C9B2FFF706F81B49D1E7EC4E000014
S11322E09F390000FC3F00000D4F000045610000D5
S11322F07F610000A8610000C1610000006200006D
S11323002C6200006462000095620000D26200004A
S1132310BE600000F5620000146300003463000036
S113232086630000C4630000026400003A64000095
S11323301027000059640000636400007C640000FE
S1132340A5640000ED640000256500001FB50400CD
S113235001A9002002F062F9694601A802F09CF884
S1132360009B68461C1901A9009402F01DF8012283
S113237001A9002002F07EF91FBD00000022034BDA
S11323801A608022024B1206DA67704700A01C58BC
S113239004E100E070B50D000A2408281CD8FEF7FB
S11323A0C5FB051D2A3F54676C6F5C0001F096FA6B
S11323B00524012810D0FFF7E1FF2800FFF7C6FF2E
S11323C00021080001F016F901210400002000F0AA
S11323D02DFF002C22D10024200070BD01F07EFAD4
S11323E006240128F8D0FFF7C9FF2800FFF7AEFF45
S11323F000210120E6E701F071FA08240128EBD05E
S113240000F092FF002803D00121002000F00EFF0D
S11324100021022001F0EEF80028DCD00924DBE7DB
S113242001F05CFA07240028D6D0FFF7A7FF2800A4
S1132430FFF78CFF0021032001F0DCF8040001F019
S11324404DFA01210028C4D1C1E7FFF797FF280006
S1132450FFF77CFF00210420EEE70021082001F0B3
S1132460C9F8041EDAD10121080000F0DFFEB3E749
S11324700021052001F0BEF8D0E700210620F9E78D
S113248000210720F6E70369C268934201D88068F7
S11324901B18013B981A7047F7B58368C468019309
S11324A01F1B436805000E001819A418974207D88B
S11324B03A00FEF7B9F8019B6868E41A2200F119A2
S11324C0FEF7B2F8EC60F7BD0023F7B5060017007D
S11324D0C568019100933369B4689D421FD2013BE2
S11324E05B1B641BBC4200D93C009C4200D91C000D
S11324F07368220058190199FEF796F8009B2D196C
S11325001B190093019B3F1B1B190193B368AB423A
S113251000D10025F560002FDDD10098FEBD1B1908
S1132520DDE70000022310B50F4C104A23616361FC
S11325300F4BA261E361C823A2640E4A2362E264E2
S113254000230422A3626362E362A3656365E36517
S113255022650949E01DFEF7DDF920000749FEF771
S1132560D9F92023A37110BDD000002057650000C5
S11325704C010020480100206065000064650000F3
S1132580F0B5274B85B01B780E0002900192002B0A
S113259001D1FFF7C7FF1823029A00255343204AAD
S11325A0D3185A6D9C6D0392944219D91B6D019DE9
S11325B01B1B9D4200D91D001827029B30005F435E
S11325C0174B2A00DF19FB6C76191919FEF72CF842
S11325D0019B64195B1B01933B6DA34200D1002452
S11325E0039B019F1B1B9F4200D91F00002F0CD08F
S11325F01823029A30005343094AED19D318D96CB1
S11326003A000919FEF710F8E419002D05D0182333
S1132610029A03485343C0188465280005B0F0BDEE
S1132620D000002010B50B00EFF31084012181F3DA
S113263010881900FFF7A4FF84F3108810BD000070
S1132640F8B516001822451C55434243164B0F009B
S11326505D199B18DC6A012C10D0022C1BD0002CB5
S11326601FD12800FFF70FFF864205D8320039003A
S11326702800FFF711FF34002000F8BD2800FFF701
S113268002FF3400864200D90400220039002800E9
S1132690FFF702FFF0E732002800FFF715FF040000
S11326A0EAE70024E8E7C046D0000020F8B50B4B69
S11326B004001B780E001700002B01D1FFF732FF36
S11326C0EFF31085012181F310883A0031002000D6
S11326D0FFF7B6FF85F31088F8BDC046D000002090
S11326E070B5050008000C00FEF71CF9210002007B
S11326F02800FFF7DBFF70BD13B56B46DC1D01221C
S113270021000020FFF78EFF012801D1207816BD9B
S113271001204042FBE710B5FFF7EEFF0028FBDB8A
S113272010BD0000F7B5164C0193237805000F0087
S11327301600002B01D1FFF7F5FE2369AB421CD92B
S1132740EFF31082012181F31088002D0CD018239F
S1132750691C59436B43675061184E600199E31833
S1132760196200219962596218204543089B641933
S1132770E36282F310880020FEBD01204042FBE7A3
S1132780D0000020826810B504004068531C8342C6
S113279005D820688154A360E3680133E360A2682C
S11327A063689A4209D121682069FFF77FFFA36813
S11327B0984203D001235B42E36010BD0023A36071
S11327C0FBE70000F0B5050017000800012685B0FE
S11327D00A9C02910093B84219D2009A019696423B
S11327E000D2019201230B9A1A4003920B9A1A42C7
S11327F002D1002C10D10024EB680126002B4BDB06
S1132800009B012B1FD9013B00937E43F8E739005D
S1132810FEF7A0F90136DEE70B9B20269B0704D5C3
S1132820009B1036002B00D0103E019BA342E3D244
S113283031002800FFF7A6FFEB68013C002BDBDB2F
S1132840002CF2D1D7E731000298FEF783F98742D2
S1132850DBD902983100FEF703FA114B0291195C9F
S11328602800FFF78FFFEB68002B05DB39003000F1
S1132870FEF770F9BE4211D2039B002B0CD0002C42
S11328800AD0019BA34207D220212800FFF77AFF38
S1132890EB68013C002BF2DA05B0F0BD0600D8E786
S11328A06B650000F0B59FB00EAB099340230A930B
S11328B000230E00150007900B930D900C933178B4
S11328C00136002907D10C9B0393002B00DD09E19D
S11328D00C981FB0F0BD252900D0B3E000270822D2
S11328E0042006E0302B0DD1022300E001231F4316
S11328F00E003378711C2D2BF8D0F3D8232B10D075
S11329002B2B0CD000240A213378721C1800303889
S1132910092808D84C43303C16001C19F4E7074337
S1132920E6E71743E4E7002103912E2B0ED11600AE
S11329300A203278711C1300303B092B06D8039B04
S11329400E004343303BD3180393F2E7042331785A
S11329500A0001369A43682A01D13178F8E77829C8
S113296009D86F290BD8632967D017D8252969D0CE
S1132970582900D195E00C9B002BA0DAA3E770390D
S113298008000829F7D8FEF7DBF8A500F6FFF6FFE4
S11329909400F6FF8300F6FFF6FF8C006429EAD169
S11329A02B681A1D1B682A60DA17981804930123F0
S11329B050400593092849DC039B059A06939342EA
S11329C000D20692002C05D0049B002B01DB7B0770
S11329D000D5013C02231F4202D0039B002B05D0EB
S11329E001231F4202D1002C36D100240C9B0593F5
S11329F0002BC0DB049B002B3ADA2D215B420493AD
S1132A0009A8FFF7BFFE0C9B002BB4DB03233B405C
S1132A10022B05D1039B002B02D1002C2CD10024C6
S1132A200C9B0593002BA6DB0A22039B04990197B8
S1132A30009409A8FFF7C6FE9DE72B6819681A1DC4
S1132A402A60C9B209A8FFF79DFE94E70A21FEF7A0
S1132A500BF9059B0133ACE7069BA342C6D22021A8
S1132A6009A8FFF78FFE0C9B013C002BBBDABDE7E6
S1132A707B07C8D52B21C3E7069BA342D0D23021C4
S1132A8009A8FFF77FFE0C9B013C002BC5DAC7E7C2
S1132A900A22296801970B1D2B60039B0094096887
S1132AA0C7E7296801970B1D2B60039B0094102234
S1132AB0F5E72B681A1D2A601C6821780134002967
S1132AC000D158E709A8FFF75DFE0C9B0393002B88
S1132AD0F3DA50E729680B1D2B60002301930833B8
S1132AE00093E4E70B9A002A03D007980EA9FFF796
S1132AF0DDFD0C9B03930B9B0493049A039B944668
S1132B0063440C93E4E60EB403B503AB02CB01AA11
S1132B100193FFF7C7FE02B008BC03B0184710B515
S1132B20002000F095FF10BD10B5002001F000FE5C
S1132B3010BD0000082310B5164A9178194202D03E
S1132B4091780B439370882100222220124B490173
S1132B505A501249124C08708020124940025850B1
S1132B601968114801401960195910480840C021DA
S1132B7089040143195180210D4B1A7219767F394A
S1132B801A7059700B490A700C3299791142FCD1B0
S1132B9010BDC04600D007400070044000E007406C
S1132BA00410000044100000FFFFF3FFFFFFFFF0DC
S1132BB000400640005006401249134810B58142B7
S1132BC005D00022114B9B089B009A420FD1104B59
S1132BD0104A9960002310491048521A9A420AD1A7
S1132BE000210F4B0F4AD21A013A08D210BD845863
S1132BF08C500432E9E7CC5CC4540133EEE719701D
S1132C000133F1E7000000000000000000000000B4
S1132C1000ED00E054690000AC67000000FEFF1FF7
S1132C20A8FFFF1FF002002037B50E25FF35040072
S1132C30280000F0F1FE0A2000F0A9FA280000F0B4
S1132C40F9FE0C2000F0F6FEFA23084A9B001470EB
S1132C5000210193012308000093054B01F05CFE61
S1132C600400280000F0D8FE20003EBD34020020FD
S1132C7014020020C02310B58024694A9B0013600D
S1132C80684A64001360FEF71DF9674B20001C605E
S1132C90664B1C60664B1C6000F0BEFE642000F0B6
S1132CA076FA200000F0C6FE642000F070FA2000DE
S1132CB000F0B2FE642000F06AFAAE20FFF7B4FF21
S1132CC0A020FFF7B1FF7220FFF7AEFFA120FFF7AE
S1132CD0ABFF0020FFF7A8FFA220FFF7A5FF00200D
S1132CE0FFF7A2FFA420FFF79FFFA820FFF79CFF98
S1132CF03F20FFF799FFAD20FFF796FF8E20FFF7E7
S1132D0093FFB020FFF790FF0B20FFF78DFFB1205A
S1132D10FFF78AFF3120FFF787FFB320FFF784FF17
S1132D20F020FFF781FF8A20FFF77EFF6420FFF782
S1132D307BFF8B20FFF778FF7820FFF775FF8A2051
S1132D40FFF772FF6420FFF76FFFBB20FFF76CFFF4
S1132D503A20FFF769FFBE20FFF766FF3E20FFF72A
S1132D6063FF8720FFF760FF0E20FFF75DFF8120E0
S1132D70FFF75AFF0020FFF757FF8220FFF754FFA9
S1132D80FF20FFF751FF8320FFF74EFF0020FFF7DE
S1132D904BFFAF20FFF748FF2620FFF745FF012038
S1132DA0FFF742FF23490020FFF79AFC2520FFF795
S1132DB03BFF0020FFF738FF0020FFF735FF5F20BF
S1132DC0FFF732FF3F20FFF72FFF1B490020FFF7DB
S1132DD087FC2220FFF728FF0020FFF725FF0020B3
S1132DE0FFF722FF5F20FFF71FFF3F20FFF71CFFC5
S1132DF00020FFF719FF3F20FFF716FF0020FFF721
S1132E0013FF0020FFF710FF3F20FFF70DFF002006
S1132E10FFF70AFF09490020FFF762FC002010BDFC
S1132E20209014542490145434A014543090145406
S1132E3000A014547B6500009A650000B86500008A
S1132E400F2308704B60704730B50B0089B0002821
S1132E5002D0032405281CD10225114A06A91278A0
S1132E605BBA0A800F4A12684A6004AA107005A867
S1132E7003800D4B1B6800900293002001230195F1
S1132E8001F018F8041E07D000200849FFF728FCB9
S1132E902C00200009B030BD0549FFF721FCF8E7FC
S1132EA06000002074FEFF1F78FEFF1FD86500003D
S1132EB0F265000000B589B0030068460A000F49B6
S1132EC0097801750320052B16D80D49087806A941
S1132ED008800C4800684860684603750A4B002067
S1132EE01B6801920293094B05AA0093012300F089
S1132EF0EEFF002800D0022009B000BD05660000E6
S1132F006000002074FEFF1F78FEFF1F6800002091
S1132F10F7B5022104000120FFF7CCFF4F4D070055
S1132F202E7A6A7A0020D3B24D49F6B20193FFF7A4
S1132F30D7FB002F3FD000204A49FFF7D1FB0221E5
S1132F400800FFF7B7FF2E7A6A7A0700D3B2002091
S1132F504549F6B20193FFF7C3FB002F39D0002097
S1132F604049FFF7BDFB02210320FFF7A3FF2E7AA0
S1132F706A7A0700D3B200203C49F6B20193FFF706
S1132F80AFFB002F3CD000203649FFF7A9FB0221FC
S1132F900420FFF78FFF2E7A6D7A07003449002052
S1132FA0F6B2EDB2FFF79CFB002F40D000202D4974
S1132FB0FFF796FBF7BD019BB6019A0816438022E2
S1132FC02C4B9201724038002B49D218FFF79BFD1D
S1132FD0B5E7002C06D032003800019B2749FFF7E3
S1132FE092FDC0E7019BB6019A0816438022214B4B
S1132FF09201724020002049D218FFF784FDB2E705
S1133000002C06D032003800019B1C49FFF77BFDE1
S1133010BDE7019BB6019A0816438022154B920125
S1133020724020001449D218FFF76DFDAFE7002C61
S113303006D02B00320038001049FFF764FDB9E7D1
S11330408022AD08B6010B4B2E4392017240200042
S11330500949D218FFF757FDACE7C04660000020CD
S11330600766000017660000236600004166000042
S11330704966000000E0FFFF1E66000031660000A4
S1133080030041700020187058609860704710B5B4
S1133090437804000120FF2B08D000F051FA637834
S11330A00133DBB2637000F03FFA002010BD002052
S11330B0704770B504000D0000F042FAE16829433E
S11330C0E16000F031FA002070BD000000220A4BDC
S11330D09A641A0040329A631A0030329A621A00D3
S11330E020329A611A0010329A60044A1360044B29
S11330F09B60DB607047C0465802002054020020E9
S1133100A80200200022024B1A60186880B270479F
S11331100C007C5070B5437804000D00002B0BD0DC
S1133120002500F00DFA6378013BDBB26370257073
S113313000F0FAF9280070BD02200029FBD02378A2
S1133140002B17D0FFF7DEFF6368A268834204D820
S1133150C01A824206D30320EDE7C01A80235B0223
S1133160C018F6E700F0ECF90023237000F0DCF956
S11331700220E0E74B1CEED000F0E2F901232370BB
S113318000F0D2F9FFF7BEFFA5606060E3E770B519
S11331900500FFF7B7FF802604007602FFF7B2FFB1
S11331A00300844203D8031B9D42F7D270BD301B39
S11331B0C318F9E710B5012801D100F0C1F910BD19
S11331C010B5012801D100F0AFF910BD10B5FFF71B
S11331D07DFF01230020084A08491360084A094C6E
S11331E01060086004212160074C216007490B60CE
S11331F007490860136010BD3880045000008450F3
S113320000000450000004510400045104000C5058
S11332100000045310B5044C206021710020A2600A
S11332202373637310BDC046B80200200422F0B5B6
S113323087B005AC3B4E01900291207061703379E8
S11332400092834226D90022337B15007373012335
S11332500092A3700393334F3B7BAB421DD8009B7A
S1133260002B02D0029B012B48D10120FFF7A2FFC3
S11332700C20019B002558433368181800F0C2F84D
S1133280019B012073710226FFF79AFFA6703B7B16
S1133290AB421AD8009807B0F0BDBA68AB009B588F
S11332A0002B0FD01A7903990A420BD020001A6818
S11332B099689047002805D0029B7D73002B1BD092
S11332C0052300930135EDB2C5E7BA68AB009B58FE
S11332D0002B0ED01A7932420BD020001A6899685C
S11332E09047002805D0029B7D73002B17D006233E
S11332F000930135EDB2CAE7052300930023A370C0
S1133300013DEDB2FF2DC5D0064BAA009B68D358F2
S1133310002BF5D020001A6899689047F0E706233F
S11333200093B7E7B8020020014B58797047C046B4
S1133330B802002013B5040000202178019002296E
S113334020D0032922D0012925D1227901AB1448A8
S113335000F0BEFF002814D1A3795A1E9341114AEC
S1133360DB01137063785A1E93410F4A5B0013709C
S1133370A2780E4B1A70E2780D4B1A7062790D4BDD
S11333801A7016BD0100227901ABE0E701A90448D7
S113339000F0E0FFDEE701A9014800F07DFFD9E776
S11333A000400640184086530040865000400650B6
S11333B00140065018401650074A43099B009B18C9
S11333C0F822C00512051040184380235B051843FA
S11333D0002303607047C04628800440F821084A4F
S11333E043099B009B180905C2050A401343802228
S11333F0520513431F2210401E3A82401A60704740
S113340028800440072373B5009300230400104D63
S11334101A000121280001F07DF92000FFF78AFF3E
S1133420637A280000930023217A1A0001F072F9CC
S1133430E379084A9B041360074BA17A1D682800AE
S113344000F0A4FF2800E17A00F0A7FF002076BD79
S11334500070044000700C59A466000010B50548C3
S113346000F0DAFE044B1968C9B20131FDF772FBB2
S113347010BDC0460040064044801C5E10B5FFF7F6
S1133480EDFF10BD10B5054800F0C6FE044B1968E9
S1133490C9B20131FDF75EFB10BDC04600400640D5
S11334A04480145810B5FFF7EDFF10BD0B4B1B689B
S11334B0DBB2022B0CD0032B0DD00020834206D1AB
S11334C0074A106880221202904200D01800704708
S11334D0044B1868FBE7FA208000F8E700700C59E9
S11334E0E0020020E402002010B5FFF7DFFF10BD6A
S11334F010B5024B185CFFF771FF10BD5366000056
S113350010B57620FFF76AFF10BD10B57620FFF7DF
S113351053FF10BD10B56620FFF760FF10BD10B556
S11335206620FFF749FF10BD044A1368002B04D03E
S1133530013B1360002B00D162B67047C802002023
S113354072B6024A1368013313607047C802002040
S113355010B5064C064801F06FFB042801D1002089
S113356010BD013C002CF5D10320F9E7EA0300006B
S113357000E0074010B50B4B0B490A78002A07D02E
S1133580084C0A4801F058FB012806D1002003E04A
S1133590013B002BF1D1032010BD013C002CF0D1E4
S11335A0F9E7C046EA03000002D0075100E00740F3
S11335B0F7B507000E00150001200193002F15D068
S11335C0002913D0FFF7F6FD094C1022002120003A
S11335D0FDF77EF827602671002D03D0019BA560BE
S11335E0237363730120FFF7EBFD0020FEBDC0468B
S11335F0CC020020F0B5B14C8DB002900391237B36
S113360001206373FFF7D6FD2379029A934206D80B
S11336100120FFF7D5FD022738000DB0F0BD029A56
S113362023689200D35809AC1D780193039B2A00A8
S11336302372029B2370019B636002239A430492CA
S1133640012A01D0052D0AD101219D4801F048FA33
S1133650002807D10120FFF7B3FD0127DCE7032190
S1133660072DF2D80123002763723C000593934E83
S1133670337BA3422AD80120FFF7A2FD914800F032
S1133680EFFD049B012B4AD10138022835D9039B55
S1133690012B00D00DE106270120FFF78BFD00234D
S11336A0012609AD6B72013CE4B2FF2C00D1AFE0FE
S11336B0824BA2009B68D358002BF4D01A79324273
S11336C0F1D028001A6899689047ECE7B268A30023
S11336D09B58002B0ED01A7905990A420AD01A6811
S11336E0996809A89047002804D0039B04277473A1
S11336F0012BC0D10134E4B2B9E7FFF7D3FE724B1A
S11337009842C4D8FFF7AAFE704EB042BFD8FFF764
S1133710B9FEB042BBD8FFF7B1FEB042B7D8039BA5
S1133720012B00D0C1E00A2D00D9BCE02800FDF730
S1133730FDF9060A0D1E879A7B822F7378000022FA
S113374007AB1A702DE0032207ABFAE75C4801F0DF
S113375073FA012808D00021594801F0D1F9FFF784
S113376009FF071E00D057E7012207ABE9E75448D9
S113377001F062FA042808D00221514801F0C0F98E
S1133780FFF7E6FE071E00D046E7042207ABD8E7A2
S1133790072207AB1A80019AD2789A70019A12799B
S11337A0DA702B00083B022B06D8019B06AA5B7932
S11337B09372019B9B79D372019B5B78002B0AD097
S11337C0012D08D9019B02229978414B00294DD043
S11337D019690A431A613A4807A901F0B5F90028A2
S11337E000D00327002D45D1FFF7C4FE071E00D0EB
S11337F012E700270120FFF7DDFC029B2F4D002478
S1133800AB73022309AE737201932B7BA34236D8A8
S11338100120FFF7D5FCFFE6082207ABFF321A8030
S1133820BFE72C4A07ABFAE7022207AB1A70022261
S1133830FF329A80B5E7022207AB1A70264AF8E7EE
S1133840022207AB1A70013A1D489A8001F0F4F97C
S11338500128A6D000211A4801F052F9FFF78AFE88
S1133860071E9ED0D8E6052207AB6AE71969914383
S11338701961B0E7012DBDD1FFF76AFEB6E7AA686A
S1133880A3009B58002B0BD01A7901990A4207D048
S113389030001A6899689047002801D005276C7396
S11338A00134E4B2B1E70327B6E6002F00D13AE7CA
S11338B0F2E6002F00D0EFE6EDE6C046CC02002091
S11338C000E007400040064040420F0080841E0094
S11338D000ED00E0070300000102000010B50648F7
S11338E001F0AAF903000020012B03D00B30042BB4
S11338F000D10A3810BDC04600E00740F7B5FF24E8
S113390003681D4A1E0A26401C40B3009F581B4AE8
S113391005009B5830000193FFF7EAFD00222100C7
S1133920380001F091F9019BA400E41884232A795A
S11339305B05234352001A6080236A795B052343A5
S11339401A609023AA795B05234312011A600C4B79
S11339501C43EB791B042360EB79002B0AD0094B41
S11339609B57002B06D01F2213401E3A9A40130087
S1133970054A1360F7BDC046A8660000B0660000A3
S113398000001818B866000000E100E0F8B5FF2454
S113399005000368114A180A20401C4083009F5800
S11339A00F4A9E58FFF7A4FD38002100012201F0C0
S11339B04BF96A682100380001F055F988232A7A06
S11339C0A400A4195B05234392001A6098235B05A5
S11339D01C436B7A9B012360F8BDC046A8660000B7
S11339E0B066000070B50C00002807D1002C0FD180
S11339F070BD05000835FFF781FF28000368013317
S1133A00F7D1F3E7250020000C35FFF7BFFF2C00AA
S1133A1023680133F6D1EBE7FF22030A044913407C
S1133A209B0059580123104083404B607047C046A7
S1133A30A8660000FF22030A044913409B0059585A
S1133A400123104083408B607047C046A866000085
S1133A50084B8200D258942310B502325B051343FD
S1133A601B78002B02D000F03FFA10BD00F092FA50
S1133A70FBE7C04658660000020080230C325B0559
S1133A8013431A78002AFCD00171704770B50D00F9
S1133A90084B8000C458200029001830FFF73AFB77
S1133AA00328F8D0002801D004232374207CC0B25A
S1133AB070BDC046DC02002010B5104B8000C45815
S1133AC0E37C002B05D0237C052B02D0237C042B24
S1133AD00BD10B4B18589823821C5B05134300220F
S1133AE01A7001F02FF901236374A37C002B03D017
S1133AF020001830FFF7CBFA10BDC046DC020020CE
S1133B0058660000F0B51700002289B005930EAB8B
S1133B101B7805000393830032481E5832481C5812
S1133B2007AB1A80A37C880A04930223FF336382C1
S1133B308B0A0193CBB21E2801D11A000B0A5B0039
S1133B40D8B2019B00211E2B05D08F4203D1012343
S1133B5003995B1A59B20143CBB2029302990198BB
S1133B6007AB197001211E2801D15A704918A360AE
S1133B703000E1600299FFF77FFF28000F99FFF7FB
S1133B8085FF237C002B0CD1002F0AD0059BA76056
S1133B90E36030003978FFF76FFF28000F99FFF7D3
S1133BA075FF237C039A1A4314D1019B1E2B01D069
S1133BB0002F0FD0002301273000A360E76001F03D
S1133BC0AFF8029930003943FFF756FF28000F99E8
S1133BD0FFF75CFF0023207CE374049BC0B2A37452
S1133BE009B0F0BD58660000DC020020F7B5830080
S1133BF00193184B8200D75805000C000126002FB2
S1133C0026D1154B3900D358200024220193FCF708
S1133C105FFD200039001830FFF732FA2800FFF763
S1133C2079FC019801F027F80A4BAA00D4501F220E
S1133C300A4B5B5D134032009A40094B1A609C2288
S1133C40019B520502331343802266743E001A70AE
S1133C503000FEBDDC020020586600005C660000F7
S1133C6000E100E0F7B50E4E8500AB590027019343
S1133C700C4B0400EA589C2302325B0513431F706B
S1133C80FFF74DFC084B01981A5D1F231A401E3B99
S1133C909340064A1830D367FFF709FAAF51F7BDCE
S1133CA0DC020020586600005C66000004E100E0CD
S1133CB00A4B800070B5C5584B686A690C00934282
S1133CC00BD0074BC658FFF7DDFB002301006268E9
S1133CD0300000F0DFFF63686B6170BDDC02002020
S1133CE058660000F0B587B004920593334A0FABD1
S1133CF01E7883009C580391627C0700002A03D13C
S1133D000320207407B0F0BD002E01D11E220E92B4
S1133D102B4A3800D55800230399E360A360237429
S1133D2023606374A674FFF7C3FF90231021AA1CB9
S1133D305B05134319708423E91C5B050B430221C3
S1133D40197098235B05134302934023029A2800B9
S1133D50137000F0E5FF039B380019880E9B049A4A
S1133D60019301230093059BFFF7CCFE0D9B002BD1
S1133D7017D0237C002B11D10C9B2800A3600D9B32
S1133D80E3600C9B1978FFF777FE002E03D0380010
S1133D900E99FFF77BFE207CC0B2B3E7237C042B93
S1133DA0F9D100230126029A1370EB785B093342A0
S1133DB002D0280000F0C6FF6674ECE7DC020020A5
S1133DC058660000F0B589B0079311AB1B780692D2
S1133DD0364A029383009C580591627C0600002AAF
S1133DE003D10320207409B0F0BD029A002A01D146
S1133DF01E32109200272E4A0599D5580E9B30008A
S1133E0023600F9BA7606360029BE760A374277421
S1133E106774FFF74DFF9023AA1C5B051A43102318
S1133E201370842304925B05EA1C134302221A7064
S1133E309823AA185B051A434023280013700392A1
S1133E4000F06EFF059B069A1988109B30000193C1
S1133E500097079BFFF756FE237CDAB2BB4215D1CD
S1133E60049BA91C1A708C235B050B430F99012931
S1133E7000D108221A702B79029B002B03D030004A
S1133E801099FFF703FE207CC0B2ACE7237C042B1F
S1133E90F9D10126039B1F70EB785B09334202D0F2
S1133EA0280000F04FFF6674EDE7C046DC020020F6
S1133EB0586600001FB501240394089C0294079CD3
S1133EC00194069C0094FFF70DFF04B010BD1FB5CC
S1133ED001240394089C0294079C0194069C00947A
S1133EE0FFF770FF04B010BD244B70B58400E55893
S1133EF08423EA1C5B05134302221A709023A91839
S1133F005B050B431B78EA78DBB292061DD594223D
S1133F1052050A431278002A17D0194AA458012BD3
S1133F2014D1EA781A4204D004332374FFF7C4FD91
S1133F300BE0E368013BE360002BF7D0A3682800A3
S1133F405A1CA2605978FFF797FD70BD6268013A68
S1133F506260002A06D08C235B05012A0AD0002265
S1133F600B4309E0FFF7A8FD23685A1C22602A7955
S1133F701A70EAE708220B431A70F5E75866000046
S1133F80DC020020C31C8420400518430223037074
S1133F90704700000122F0B5904B8100CD5889B0E4
S1133FA0EB1C0193EB7890261B091A400592012221
S1133FB0EB7876059B091A4002923200AB1D1A4336
S1133FC0944612780090D2B20792942252051A4372
S1133FD01278AF1CD0B203909820400503431878A0
S1133FE0C0B206907E480C583100394301910978DB
S1133FF0C9B20491002A35D0079A002A0ED01023A2
S1134000624628001370FFF7BDFF236B002B52D0CC
S11340106A4601211078626B98474CE0069A002AA0
S113402020D0402228001A70FFF7ACFF23002C3365
S11340301B78002B03D19822520517433B70236B46
S1134040002B04D06A4680211078626B9847E37D88
S1134050002B04D0200080211830FFF72AF80A230F
S1134060237028E02800FFF78DFF059B002B24D048
S1134070EB1C1E4310233370029B002B10D0EB78F3
S11340805B07DA0F002B48DB019B1A70236B002BB4
S113409004D06A4604211078626B98472B790AE0B1
S11340A0082323702C342378002B04D198235B0538
S11340B01F43029B3B7009B0F0BD029B002BDED175
S11340C0049B012B54D1EB78049A134230D0019B0A
S11340D0029A1A702B7923002C331B78002B07D1FA
S11340E0039B002B04D198235B051F43039B3B7068
S11340F0236B002B04D06A4608211078626B984722
S1134100A37D002B04D0200008211830FEF7D1FF36
S113411000236360E3602375CDE71023019A1370D5
S1134120236B002B04D06A4602211078626B9847F7
S11341306368002B50D028008022E3680C305205BD
S11341401978024310780028FCD029710133E36008
S11341506368013B63606368002BACD1E360237543
S1134160236B002BA7D06A4610211078626B53E7AB
S11341702B79A268DBB2002A2CD022691370236940
S113418001332361A368013BA360A368002B00D023
S113419091E7039B002B11D123002C331B78002BB8
S11341A004D198235B051F43039B3B70E37D002BE5
S11341B004D0200020211830FEF77BFF0023637514
S11341C02361236B002B00D175E76A462021107808
S11341D0626B21E7072343E7062341E758660000A3
S11341E0DC02002084225205024312780300D0B27C
S11341F0002A0CD08020013340050343187801388D
S113420043425841024B40421840024BC018704789
S1134210808D5B0080841E0010B50D4B821D1343FE
S11342201A780400D3B2002A0FD0012B07D1FFF76C
S1134230D9FF084B08341C432378D84010BD002014
S1134240022BFBD1044B1868F8E70448F6E7C04694
S11342500000081100009010E0020020006CDC0255
S11342600C4A811D0A4312780300D0B2012A04D0FB
S113427002280BD000280BD170478022013352054D
S113428013431B78002BF7D10220F5E70320F3E753
S11342900520F1E70000081102009C2318325B0599
S11342A0134380221A700022064B03431A70064BF4
S11342B0063018430378DAB2002BFBD1034B10000D
S11342C00B6070470000081300000811006CDC024A
S11342D0F8B504000D0016001F00FFF7C1FF012808
S11342E023D1002D25D08023621C5B0513431D7050
S11342F0842302225B0523431A702200104B0832E8
S113430013437200D2B21A7040220E4B0E4823435C
S113431006341A7004432378012BFCD1002D0DD1EF
S11343200A4B334100203B60F8BD0228DBD1012D4C
S1134330D9D139002000FFF7AFFFD4E7044BF0E7F1
S113434000009010000008130000081180841E0073
S113435000127A0010B50A4C030022680120002ADA
S11343600CD0084A7F301A431070074806330343C1
S11343701A78022AFCD1002023680B6010BDC046C5
S1134380E002002000000813000008119C23C9016A
S11343905B050343C9B219707047942349015B0557
S11343A00343C9B21970704770B506680C00300039
S11343B02049FCF7CFFB1F4905003000FCF750FCF7
S11343C00E00E12130000901FCF7C4FBE121E0808B
S11343D009013000FCF744FC0E003C213000FCF7DE
S11343E0B9FB3C2120813000FCF73AFC6E22A1721B
S11343F00321114BFF322380238895420AD80F49A9
S11344009B0700D10E490123CA5CAA420CD36380E6
S1134410A58070BD01339BB223800B40AD1A5A4274
S11344205A416E32FF32E7E70133AD1A0D2BEBD15F
S1134430EEE7C04680510100B20700008466000028
S11344405D6600000188114A03008A18002030B517
S1134450812A17D85A88541E0B2C13D89C88651EA1
S11344601E2D0FD8DD88172D0CD81D893B2D09D89A
S11344709B7A3B2B06D88B0705D0054B9B5CA3424C
S11344804041C0B230BD034BF8E7C0464EF8FFFFD1
S1134490846600005D66000070B5134D8388028851
S11344A05B196E25FF35554344885B1995085B19E4
S11344B00E4D6600755B5B19920710D00B600A689D
S11344C00B4BC4885343827A00899B18E122120162
S11344D062439B183C2242439B180B6070BD022C24
S11344E0ECD8013BEAE7C0464A05F5FF6A660000DE
S11344F0805101008023084A1B0212689A4209D1A4
S1134500A02310305B0518430368002B02D101334C
S1134510FF3303607047C046E002002001008022A0
S113452010B5002301245205103111430C600B60B7
S113453090214360490504601C3001430B608821CD
S1134540490501430B6084214905014310430B6075
S1134550036010BD0200902314325B051343002254
S11345601A604260103201601A60704703680B6081
S113457070470000104B820070B5D55880220400AB
S11345800E4B92051A602800FFF7C8FF2800FFF7BA
S1134590B1FF0B4B1F261A5D012318000949324055
S11345A0095DC025314090408B40074A6D00505151
S11345B053511060136070BD946600003C80845EAB
S11345C0986600009966000000E100E0F7B5002756
S11345D0114B8000C55808000E000197FFF732FF09
S11345E00400B84216D001A93000FFF755FF380087
S11345F0FEF77AFF010080200002814206D0FCF71A
S1134600A9FA01000198FCF7A5FA01902800019984
S1134610FFF7A0FF2000FEBD94660000F7B500255B
S1134620124B8000C4580E00200001A90195FFF729
S11346309DFF2800FEF758FF0500802000028542F8
S11346400ED00B4B290004341C43FCF783FA276873
S1134650019C29004443B8B2FCF77CFA2418019465
S1134660310001A8FFF7A0FEF7BDC0469466000024
S113467000007810F0B50027184B800085B0C558AD
S113468008000E0001920397FFF7DCFE0400B84215
S113469003D10024200005B0F0BD300003A9FFF7CA
S11346A0FBFE38002E68FEF71FFF01008020000289
S11346B0814206D0FCF74EFA01000398FCF74AFA4F
S11346C00390039BB342E4D3AB6088231C355B05A2
S11346D01D43019B9A002A60DCE7C04694660000F3
S11346E0044B8000C25888231C325B0513438900A5
S11346F01960704794660000054B8000C2588823F7
S113470014325B0513431868431E9841C0B27047C6
S1134710946600006B46E0221B78D2021B0413400F
S1134720024A09070B4380180360704744100000D5
S1134730084B8200D258902310B503325B05134313
S11347401B78002B02D000F013F910BD00F078F9AB
S1134750FBE7C0469C6600009C210C4B0C4A800081
S1134760C3588258002003324905114310B518710B
S11347700870942149050A4310701A7F824203D0BD
S113478020331800FEF783FC10BDC046E802002069
S11347909C660000F7B50C0005001B4B302200217D
S11347A087002000FE58FBF793FF2800FEF7A8FEC1
S11347B0FEF768FE2060300000F0E5FA20000021DA
S11347C02030FEF75DFCF31C01939023F21C5B0583
S11347D01343102230001A70032100F012FB300042
S11347E0002100F033FB094BFC50094B5A5D1F2399
S11347F01A401E3B9340074A13609823019A5B05B5
S1134800134340221A70F7BD9C660000E8020020A2
S1134810A066000000E100E0F8B50D4E85000D4BE8
S1134820AF590400E85800F0AEFA38002030FEF723
S11348303EFC094B20001A5D1F231A401E3B934087
S1134840064AD367FEF761FE0023AB51F8BDC046AC
S1134850E80200209C660000A066000004E100E07D
S11348600A4B800070B5C658094B0C00C35815009C
S113487030001A68096800F08DFA2860A3793000C6
S11348806279217900F0CFFA70BDC0469C660000C1
S1134890E8020020F7B51E4A83009C5805002279DF
S11348A00420002A16D11B4A9E58002903D0280050
S11348B001AAFFF7D5FF982300214020F21C5B05D5
S11348C013431970187027698F4204D12800FFF729
S11348D043FF0020FEBD0123237194235B05A161E6
S11348E033431B780720002BF4D0A368191E02D091
S11348F019780133A360B1712369013B2361A36972
S11349000133A3619C235B051A4380231370E0E702
S1134910E80200209C660000F8B5134F134C850094
S11349202C59ED590127069E2777A2602661E36082
S11349306661FFF7AFFF002814D1200007992030EB
S1134940FEF7E8FB0328F8D000280BD09C230022B4
S113495003355B052B4322711A70942303205B05F6
S11349601D432A70F8BDC0469C660000E802002082
S113497010B51E4B8200D3581979002934D01C4934
S113498051585A69002A11D09C2252050A431278C0
S1134990002A0BD08A79DC68D2B2002C03D02270B2
S11349A0DA680132DA605A69013A5A611A69002AEE
S11349B012D0942252050A431278002A0CD09A6825
S11349C0141E02D0147801329A608C711A69013A6B
S11349D01A619A6901329A611A69002A04D15B69E1
S11349E0002B01D1FFF7B8FE10BDC046E80200203D
S11349F09C660000104A8000815800220F4B10B5BD
S1134A00C3580331581CC2779C2040050843DA621E
S1134A101A701A835A629A621A63027094204005CB
S1134A2001430A701A0038321278002A03D0012197
S1134A30181DFEF73EFB10BD9C660000E802002036
S1134A4070B5254B8200D358591CC97F002942D028
S1134A5022495258D96A002917DB94214905114388
S1134A600978002911D0D969CCB2596A002905D036
S1134A70DD6A002D02DD0C78013159629471D96A26
S1134A800139D962596B01315963D96A002905DAB0
S1134A909421D41C4905214300240C70196B00296E
S1134AA011DD9C2149051143097800290BD0927925
S1134AB0996AD2B2002903D00A709A6A01329A62C2
S1134AC01A6B013A1A63DA6A002A04DC1B6B002BA6
S1134AD001DCFFF78FFF70BDE80200209C66000038
S1134AE0012903D0032909D00020704794235B05D2
S1134AF018430078431E9841C0B2F6E78423F6E7D2
S1134B00431C034849011843C9B201707047C046A9
S1134B1000008812831C9420490140051843C9B23F
S1134B2001707047831C034889011843C9B201709E
S1134B307047C04600000813831C8C20C900400540
S1134B401843C9B201707047F7B50400364EE31C30
S1134B501E43337808780D00DBB2072860D8FBF7D2
S1134B60E5FF04192B0E192B2B45304B01341C4344
S1134B70002323703378012BFCD10020FEBD012BD0
S1134B80FCD12A4B01341C43402323703378042B7B
S1134B90FCD1F2E70021012801D00420023133784E
S1134BA098423FD12000FFF7ABFF0421204A13694C
S1134BB08B43136130BFE0E70227B84207D10027D7
S1134BC00B79BB4203D020004979FFF7ABFF194BA7
S1134BD001341C4327703378154ADBB20193019BDF
S1134BE001330193042311690B43E2E70421114BC0
S1134BF0621C1A4311706A78A11C0B431A70002AB4
S1134C0006D1AB78002B03D02000E978FFF782FFB0
S1134C10AB79002BDFD02000E979FFF78DFFDAE7CD
S1134C200120ABE70320A9E7000030100000881240
S1134C3000ED00E000001010C31C02481843007887
S1134C40C0B2704700003010012314308B40012A99
S1134C5004D1802212051043036070478022D204DD
S1134C60DB431043F8E701238B40002A01D0436063
S1134C7070478360FCE70023C22203704370837093
S1134C80C37043718371C371037242728372C372BE
S1134C9070470000F0B5002487B00293FA23012680
S1134CA0270025009B005343039004910093019433
S1134CB07642AB000593194BAA009B1859880498B7
S1134CC0A140FBF747FF009B009AC31A824200D918
S1134CD0131AB3421FD2114AA900525C2700019251
S1134CE0002B02D00135322D13D10134032C01D015
S1134CF0002B0DD1029A002A00D013603F220199A3
S1134D00BB0111400B43039ADBB2537007B0F0BDF3
S1134D1000251E00CDE73300E4E7C046BA66000074
S1134D20942302305B0503431B78002B05D08823B2
S1134D305B05184304230370704780231B05184345
S1134D403023F8E7942210B55205841C22431178CD
S1134D500300CAB2022001290DD18021C9042143D4
S1134D608024CD300870E400033319784909080021
S1134D701040114200D110BD013C002C01D0C046AE
S1134D80F3E70920F7E70423C3700023837043701B
S1134D9003717047F0B5130B89B001260393082300
S1134DA00124764202939B19079004910592019382
S1134DB002270025631E0693210005987943FBF71B
S1134DC0C9FE049B834207D31B1AB34204D21E00BC
S1134DD0069B03900295019301357F00092D01D0B4
S1134DE0002EE9D1082C02D00134002EE0D1019B21
S1134DF0029A1B0103981343079ADBB2537009B05C
S1134E00F0BD842310B50224C21C5B0513434A0081
S1134E1022401A70902300195B0518431023C9001F
S1134E201940017010BD10B58C2403306405C9000D
S1134E300443C9B221708821920049050143D2B2CA
S1134E400A70802252051043037010BD8023012292
S1134E5002305B0503430A401A708C235B05184338
S1134E6008238900194001707047000004FEFF1FE9
S1134E701B5B306D1B5B343B34336D1B5B313B334D
S1134E80376D0D53616E69747920636865636B20B7
S1134E906661696C6564211B5B306D0A001B5B30C5
S1134EA06D1B5B343B34316D1B5B313B33376D0D14
S1134EB0496E76616C696420737570706C792076C4
S1134EC06F6C74616765205B25645D206D56211BE2
S1134ED05B306D0A00426567696E6E696E67206DAE
S1134EE06561737572656D656E747300494E413208
S1134EF031392043757272656E742073656E736FF9
S1134F007220646174612062656C6F77000A436F7C
S1134F106D706C6574656420636F6E666967757225
S1134F206174696F6E20666F722063757272656E4C
S1134F30742073656E736F722E0A000A5374617263
S1134F4074696E67207468652043757272656E7447
S1134F502053656E736F722050726F636573732E86
S1134F600A002575000D09307825303278202D2D62
S1134F703E205B3078253032782030782530327806
S1134F80203078253032785D0A000D0930782530DC
S1134F903278202D2D3E203078253032780A000DCD
S1134FA009307825303278202D2D3E202D2D2D2DC1
S1134FB00A000D0A0925642F25642073756363654F
S1134FC0737320726174652E0A000D0925642F2500
S1134FD06420737563636573736573206D617463B3
S1134FE0686564207265662E2076616C7565206F35
S1134FF066203078253032782E0A000D0925642089
S113500062616420636F6D6D616E64732E0A0A00C1
S11350100D0A094D4D4138343531512052656164D2
S11350202041626F727465642E20446576696365FD
S11350302044697361626C6564203A28000D0A4952
S11350404E413231393A0A0D000D0A0A424D4536B5
S1135050383020526561642041626F727465642E39
S1135060204465766963652044697361626C656494
S1135070203A28000D0A09424D58303535616363E2
S1135080656C20526561642041626F727465642EA0
S1135090204465766963652044697361626C656464
S11350A0203A2820000D0A09424D583035356779D9
S11350B0726F20526561642041626F727465642E60
S11350C0204465766963652044697361626C656434
S11350D0203A2820000D0A0920424D583035356DFC
S11350E0616720526561642041626F727465642E49
S11350F0204465766963652044697361626C656404
S1135100203A2820000D0A094D414733313130201F
S1135110526561642041626F727465642E20446537
S1135120766963652044697361626C6564203A281A
S113513020000D0A094C334744323048205265613F
S1135140642041626F727465642E204465766963DD
S1135150652044697361626C6564203A2820000DFF
S11351600A094C505332354820526561642041622B
S11351706F727465642E20446576696365204469A2
S11351807361626C6564203A2820000D0A09544357
S113519053333437323520526561642041626F7273
S11351A07465642E2044657669636520446973617F
S11351B0626C6564203A2820000D0A09534934378B
S11351C0303520526561642041626F727465642ECB
S11351D0204465766963652044697361626C656423
S11351E0203A2820000D0A09484443313030302049
S11351F0526561642041626F727465642E20446557
S1135200766963652044697361626C6564203A2839
S113521020000D0A09534937303231205265616448
S11352202041626F727465642E20446576696365FB
S11352302044697361626C6564203A2820000D0A79
S11352400943435338313120526561642041626F10
S1135250727465642E2044657669636520446973BD
S113526061626C6564203A2820000D0A09414D47AB
S11352703838333420526561642041626F7274653A
S1135280642E204465766963652044697361626CA9
S11352906564203A2820000D0A094153373236321A
S11352A020526561642041626F727465642E2044EB
S11352B065766963652044697361626C6564203A4C
S11352C02820000D0A0941533732363320526561D4
S11352D0642041626F727465642E2044657669634C
S11352E0652044697361626C6564203A2820000D6E
S11352F009496E76616C6964207761727053656EDA
S1135300736F72446576696365205B25645D207004
S1135310617373656420746F207265706561745283
S11353206567697374657252656164466F7244653A
S113533076696365416E64416464726573732E0AB1
S1135340000D0A094144584C3336322052656164D9
S11353502041626F727465642E20446576696365CA
S11353602044697361626C6564203A28000D095019
S11353706F776572757020636F6D6D616E64206602
S113538061696C65642E20424D583035352064695E
S11353907361626C6564200A000D09506F77657251
S11353A0646F776E20636F6D6D616E6420616261FE
S11353B06E646F6E65642E20424D5830353520641E
S11353C0697361626C65640A000D09506F776572D8
S11353D0646F776E20636F6D6D616E6420616261CE
S11353E06E646F6E65642E204C334744323048201F
S11353F064697361626C65640A000D09506F7765B6
S113540072646F776E20636F6D6D616E642061628C
S1135410616E646F6E65642E2054435333343732A7
S1135420352064697361626C65640A000A0A0A0DB6
S1135430426F6F74696E6720576172702C20696EB9
S113544020332E2E2E2000322E2E2E2000312E2EF2
S11354502E0A0D000D0A0A0A0A5B202A0909090905
S11354605709610972097009287265762E2062292C
S11354700909092A205D0A000D5B20200909090990
S113548020202020202043616D62726964676520BA
S11354902F2050687973636F6D706C6162202020D7
S11354A00909090920205D0A0A000D095375707065
S11354B06C793D25646D562C0944656661756C7480
S11354C02054617267657420526561642052656777
S11354D069737465723D3078253032780A000D099D
S11354E04932433D25646B622F732C095350493D67
S11354F025646B622F732C09554152543D25646B0E
S1135500622F732C094932432050756C6C2D5570F1
S11355103D25640A0A000D0953494D2D3E53434766
S113552043363D30782530327809095254432D3EB4
S113553053523D30782530327809095254432D3E78
S11355405453523D3078253032780A000D094D43CA
S1135550475F43313D3078253032780909094D439E
S1135560475F43323D30782530327809094D43474F
S11355705F533D3078253032780A000D094D43479A
S11355805F53433D3078253032780909094D43474C
S11355905F4D433D30782530327809094F53435FDE
S11355A043523D3078253032780A000D09534D437B
S11355B05F504D50524F543D3078253032780909B0
S11355C009534D435F504D4354524C3D3078253080
S11355D0327809095343422D3E5343523D307825D6
S11355E03032780A000D09504D435F52454753430A
S11355F03D30782530327809090953494D5F5343CA
S11356004743343D307825303278095254432D3E97
S11356105450523D3078253032780A0A000D09255D
S1135620647320696E205254432048616E646C6533
S11356307220746F2D646174652C09256420506D8B
S11356406772204572726F72730A000D53656C6540
S113565063743A0A000D2D202761273A207365747C
S11356602064656661756C742073656E736F722E49
S11356700A000D2D202762273A20736574204932D1
S113568043206261756420726174652E0A000D2DD9
S1135690202763273A2073657420535049206261A0
S11356A0756420726174652E0A000D2D202764270D
S11356B03A20736574205541525420626175642008
S11356C0726174652E0A000D2D202765273A207318
S11356D065742064656661756C74207265676973AE
S11356E074657220616464726573732E0A000D2DF3
S11356F0202766273A207772697465206279746579
S113570020746F2073656E736F722E0A000D2D2046
S11357102767273A207365742064656661756C7425
S1135720205353535550504C592E0A000D2D202709
S113573068273A20706F776572646F776E20636FA5
S11357406D6D616E6420746F20616C6C2073656E86
S1135750736F72732E0A000D2D202769273A207368
S113576065742070756C6C2D757020656E61626C4B
S1135770652076616C75652E0A000D2D20276A2739
S11357803A20726570656174207265616420726587
S11357906720307825303278206F6E2073656E7301
S11357A06F72202325642E0A000D2D20276B273AC3
S11357B020736C65657020756E74696C20726573F6
S11357C065742E0A000D2D20276C273A2073656E10
S11357D06420726570656174656420627974652003
S11357E06F6E204932432E0A000D2D20276D273A73
S11357F02073656E642072657065617465642062EF
S1135800797465206F6E205350492E0A000D2D20A7
S1135810276E273A20656E61626C65205353535599
S113582050504C592E0A000D2D20276F273A206422
S1135830697361626C65205353535550504C592E13
S11358400A000D2D202770273A2073776974636846
S113585020746F20564C5052206D6F64652E0A00E0
S11358600D2D202772273A2073776974636820749A
S11358706F2052554E206D6F64652E0A000D2D2049
S11358802773273A20706F77657220757020616CDA
S11358906C2073656E736F72732E0A000D2D2027B2
S11358A074273A2064756D702070726F636573732A
S11358B06F722073746174652E0A000D2D20277594
S11358C0273A207365742049324320616464726509
S11358D073732E0A000D2D202778273A20646973EC
S11358E061626C652053574420616E642073706953
S11358F06E20666F7220313020736563732E0A0048
S11359000D2D20277A273A2064756D7020616C6C08
S11359102073656E736F727320646174612E0A0064
S11359200D456E7465722073656C656374696F6E82
S11359303E20000D0953656C6563743A0A000D0935
S11359402D20273127204144584C33363220202043
S113595020202020202020202028307830302D2D99
S113596030783244293A20312E3656202D2D2033DA
S11359702E35562028636F6D70696C6564206F75D1
S11359807429200A000D092D2027322720424D5862
S1135990303535616363656C202020202020202071
S11359A02028307830302D2D30783346293A203273
S11359B02E3456202D2D20332E36562028636F6D1D
S11359C070696C6564206F757429200A000D092DB7
S11359D02027332720424D583035356779726F20A0
S11359E02020202020202020202020283078303023
S11359F02D2D30783346293A20322E3456202D2D41
S1135A0020332E36562028636F6D70696C656420D0
S1135A106F757429200A000D092D20273427204290
S1135A204D583035356D61672020202020202020FE
S1135A302020202028307834302D2D30783532291C
S1135A403A20322E3456202D2D20332E365620283F
S1135A50636F6D70696C6564206F757429200A002A
S1135A600D092D20273527204D4D4138343531512E
S1135A7020202020202020202020202028307830A2
S1135A80302D2D30783331293A20312E39355620B6
S1135A902D2D20332E36562028636F6D70696C656A
S1135AA064206F757429200A000D092D20276E27A4
S1135AB020494E413231392020202020202020202E
S1135AC020202028307830302D2D30783331293A79
S1135AD020312E393556202D2D20332E36560A00EE
S1135AE00D092D20273627204C50533235482020CD
S1135AF02020202020202020202028307830382DFD
S1135B002D30783234293A20312E3756202D2D204D
S1135B10332E36562028636F6D70696C6564206F70
S1135B20757429200A000D092D20273727204D419F
S1135B3047333131302020202020202020202020F5
S1135B402028307830302D2D30783131293A2031E9
S1135B502E393556202D2D20332E36562028636FAE
S1135B606D70696C6564206F757429200A000D09D5
S1135B702D2027382720484443313030302020203E
S1135B8020202020202020202028307830302D2D67
S1135B9030783146293A20332E3056202D2D2035A9
S1135BA02E30562028636F6D70696C6564206F75A4
S1135BB07429200A000D092D20273927205349373D
S1135BC03032312020202020202020202020202896
S1135BD0307830302D2D30783046293A20312E3926
S1135BE056202D2D20332E36562028636F6D706974
S1135BF06C6564206F757429200A000D092D202717
S1135C006127204C33474432304820202020202074
S1135C1020202020202028307830462D2D30783345
S1135C2039293A20322E3256202D2D20332E365645
S1135C302028636F6D70696C6564206F757429200A
S1135C400A000D092D2027622720424D45363830A1
S1135C5020202020202020202020202028307841AF
S1135C60412D2D30784638293A20312E3656202DB4
S1135C702D20332E36562028636F6D70696C656451
S1135C80206F757429200A000D092D202764272010
S1135C905443533334373235202020202020202011
S1135CA02020202028307830302D2D3078314429A0
S1135CB03A20322E3756202D2D20332E33562028CD
S1135CC0636F6D70696C6564206F757429200A00B8
S1135CD00D092D20276527205349343730352020DE
S1135CE020202020202020202020286E2F61293AE7
S1135CF02020202020202020322E3756202D2D2019
S1135D00352E35562028636F6D70696C6564206F7D
S1135D10757429200A000D092D202766272050417B
S1135D204E313332362020202020202020202020F5
S1135D3020286E2F61292028636F6D70696C65645B
S1135D40206F757429200A000D092D20276727204C
S1135D50434353383131202020202020202020208C
S1135D60202028307830302D2D30784646293A20AE
S1135D70312E3856202D2D20332E36562028636F91
S1135D806D70696C6564206F757429200A000D09B3
S1135D902D2027682720414D4738383334202020D0
S1135DA020202020202020202028307830302D2D45
S1135DB03F293A203F56202D2D203F562028636F3F
S1135DC06D70696C6564206F757429200A000D0973
S1135DD02D20276A272041533732363220202020B5
S1135DE0202020202020202028307830302D2D30F5
S1135DF0783242293A20322E3756202D2D20332E48
S1135E0036562028636F6D70696C6564206F7574F5
S1135E1029200A000D092D20276B272041533732F2
S1135E20363320202020202020202020202028302D
S1135E307830302D2D30783242293A20322E3756A0
S1135E40202D2D20332E36562028636F6D70696CFB
S1135E506564206F757429200A000D09456E746508
S1135E60722073656C656374696F6E3E20000D0962
S1135E70496E76616C69642073656C656374696FDF
S1135E806E202725632720210A000D0A0953657413
S1135E90204932432062617564207261746520690F
S1135EA06E206B6270732028652E672E2C2027309D
S1135EB030303127293E20000D0A0949324320623F
S1135EC061756420726174652073657420746F2039
S1135ED02564206B622F73000D0A095365742053E7
S1135EE050492062617564207261746520696E2076
S1135EF06B6270732028652E672E2C20273030307B
S1135F003127293E20000D0A09535049206261754A
S1135F106420726174653A202564206B622F7300DB
S1135F200D0A095365742055415254206261756409
S1135F30207261746520696E206B6270732028651D
S1135F402E672E2C20273030303127293E20000D9B
S1135F500A09554152542062617564207261746566
S1135F603A202564206B622F73000D0A09456E7474
S1135F70657220322D6E7962626C65207265676984
S1135F8073746572206865782061646472657373E4
S1135F902028652E672E2C2027336527293E2000D4
S1135FA00D0A09456E7465726564205B307825308E
S1135FB032785D2E0A0A000D0A09456E7465722056
S1135FC049324320616464722E2028652E672E2C8A
S1135FD0202730662729206F722027393927206629
S1135FE06F7220535049203E20000D0A09456E74FB
S1135FF065726564205B3078253032785D2E0A0046
S11360000D0A09456E74657220686578206279749A
S11360106520746F2073656E642028652E672E2CAE
