S02B00002F73747564656E74732F68736C68322F576172702D6669726D776172652F6275696C642F6B73646BAD
S1130000000600201D050000450500004505000010
S113001000000000000000000000000000000000DC
S11300200000000000000000000000004505000082
S11300300000000000000000450500004505000028
S11300404505000045050000450500004505000084
S11300504505000045050000450500004505000074
S1130060A328000045050000AD2800004505000058
S11300704505000045050000450500004505000054
S11300804505000045050000450500004505000044
S11300909D0E0000B50E000045050000450500005A
S11300A04505000045050000450500004505000024
S11300B04505000045050000450500004505000014
S1130400FFFFFFFFFFFFFFFFFFFFFFFFFE3DFFFFBB
S11304100448054B10B5834203D0044B002B00D095
S1130420984710BDA8FFFF1FA8FFFF1F0000000092
S113043006480749091A8B10C90FC91810B5491085
S113044003D0044B002B00D0984710BDA8FFFF1F1A
S1130450A8FFFF1F0000000010B5074C2378002BF5
S113046009D1FFF7D5FF054B002B02D0044800E06B
S113047000BF0123237010BDA8FFFF1F0000000070
S113048068630000054B10B5002B03D004490548F0
S113049000E000BFFFF7CCFF10BDC0460000000025
S11304A0ACFFFF1F68630000402292029A1A924632
S11304B07047C046154B002B00D1114B9D46FFF7EA
S11304C0F3FF00218B460F461148124A121A00F01E
S11304D0FFF80C4B002B00D098470B4B002B00D09F
S11304E098470020002104000D000B4800F02EF86E
S11304F000F064F82000290001F04AF800F034F814
S113050000000800000000000000000000060020B9
S1130510A8FFFF1FF00200209505000072B60648F0
S11305200649074A02600A6002F0C6F902F006FAB8
S113053062B6FFF7BFFF000080E100E080E200E068
S1130540FFFFFFFF004800474505000010B501000C
S113055000230022002000F019FA10BD014B186896
S11305607047C04600FEFF1F084B10B50400002B67
S113057002D0002100F078FA054B1868836A002B3A
S113058000D09847200000F05BFCC046690A0000D8
S1130590E84A000070B5074D074C641BA41005D051
S11305A0013CA300EB589847002CF9D105F0E2FE7A
S11305B070BDC0468C6300009063000070B50C4DA4
S11305C00C4E761BB61005D0002408CD0134984794
S11305D0A642FAD105F0C8FE074D084E761BB610A8
S11305E005D0002408CD01349847A642FAD170BD45
S11305F08863000088630000886300008C63000047
S113060010B5034B0100186800F00CF910BDC0468A
S113061000FEFF1F10B5034B0100186800F0ACF892
S113062010BDC04600FEFF1FF0B5C64600B50F2A38
S113063043D90B00032603431E400C000300002E85
S113064040D11500103D2D09AC462D01A84680442B
S113065000E03B00676825685F60E7681D60DF6055
S11306601F00A56810379D6010344345F1D16546DD
S11306700F230C2401352D01491913404519144247
S113068023D08C59AC5104369C1B032CF9D8032479
S1130690043B9B0801339B002240ED18C918561EE9
S11306A0002A07D0002300E02300CA5C5C1CEA5443
S11306B09E42F9D104BC9046F0BD0500561E002AA6
S11306C0F0D1F7E7561E0500ECE71A00F6E7C0463E
S11306D0F0B5050083074AD0541E002A44D0CEB298
S11306E00300032202E00135013C3DD301332E70A7
S11306F01342F8D1032C2FD9FF220A4015021543C7
S11307002A0415430F2C35D92700103F3F093E0119
S1130710B4461E001A001036664415605560956094
S1130720D5601032B242F8D10F260C2201373F01B6
S11307302640DB193700224217D03E1FB608B4000A
S1130740A4461A001C1D644420C2A242FCD1032406
S11307500136B6009B193C40002C05D0C9B21C19C7
S1130760197001339C42FBD1F0BD3400F4E714004E
S11307700300BFE72700E0E770B50500002915D0A6
S11307800C1F2368002B27DB280000F0CBF9244B37
S11307901A68002A05D0A2420CD921686018824246
S11307A024D0626028001C6000F0BEF970BDA34232
S11307B003D81A005368002BF9D111685018A042CD
S11307C01BD027D821686018834207D06360546027
S11307D0280000F0A9F9E9E7E418D5E718685B6890
S11307E084466144216063605460F1E71068526894
S11307F08446614421606260D4E720680918501877
S113080011608342E4D118685B68844661441160D6
S11308105360DDE70C2328002B6000F085F9C5E761
S1130820C4FFFF1FF8B50323CD1C9D430835060004
S11308300C2D2AD20C25A94229D8300000F072F9D7
S11308402A4F3A68002A0AD013685B1B04D441E09B
S113085023685B1B1FD522005468002CF8D17B68E9
S1130860002B3DD02900300000F042F8431C2AD070
S11308700323C41C9C43A04205D0211A300000F07D
S113088037F8431C1FD0256010E0002DD3DA0C2369
S113089000203360F8BD0B2B05D86368A2421DD03D
S11308A0536003E014002360E4182560300000F076
S11308B03BF9200007220B30231D9043C21AE9D0D4
S11308C01B1AA350E6E70C233000336000F02CF928
S11308D00020DFE70B2BE5D8140053683B60E5E705
S11308E00021300000F004F87860BBE7C4FFFF1F6C
S11308F0002370B5064C05000800236000F0A2FA3E
S1130900431C00D070BD2368002BFBD02B60F9E79B
S1130910EC02002003000A7801311A700133002A26
S1130920F9D1704710B5830727D00378002B26D060
S11309300300032102E01A78002A1CD001330B4281
S1130940F9D119680F4A104C8A188A4322420FD1F0
S1130950043319680B4A8A188A43224208D10433A3
S11309601968084A8A188A432242F1D000E0013308
S11309701A78002AFBD1181A10BD0300E1E7002001
S1130980FAE7C046FFFEFEFE80808080F0B5464652
S11309904F46D646C0B51F002F4B82B01C680500D9
S11309A00E009046002C2DD063681F2B50DC002DC8
S11309B01CD08822A0589146002834D0783282581E
S11309C094469A0091468144424649460A60012170
S11309D0624699400A43944680228A466146520000
S11309E081504946803A8F50022D16D000205A1C5F
S11309F002339B0062601E5102B01CBC90469946B3
S1130A00A246F0BD154C1C60154B002BCCD01B68C6
S1130A1001938823019AE250C6E7554684328158EF
S1130A200D438550E2E70F4B002B11D0842040008A
S1130A30FFF7E6FD00280BD08022002352008350EC
S1130A40043283504B460022E05094466368B8E772
S1130A5001204042D0E7C04658000020CCFFFF1FD1
S1130A600000000001060000F0B5DE464E46454693
S1130A7057462B4B88469B46E0B51E6883B00190D1
S1130A80002E45D088237568F7586C1E40D4013574
S1130A90AD00783375199A460AE0002F05D03B0063
S1130AA0A20080339B58434505D0043D013C2FD31D
S1130AB04346002BF1D173682A68013BA34222D03C
S1130AC000232B60002AF0D073689946002F18D0B9
S1130AD001235146A3407958194212D08220400084
S1130AE03858A1007958009018420ED101989047C7
S1130AF05B4672681B684A4501D1B342D5D01E00DB
S1130B00BEE79047F4E77460DCE708009047EFE73E
S1130B1003B03CBC90469946A246AB46F0BDC046E5
S1130B20580000207047C0467047C04602B4714662
S1130B3049084900095C49008E4402BC7047C0461C
S1130B4003B47146490840004900095E49008E44D7
S1130B5003BC7047002243088B4274D303098B42C1
S1130B605FD3030A8B4244D3030B8B4228D3030C79
S1130B708B420DD3FF22090212BA030C8B4202D31B
S1130B801212090265D0030B8B4219D300E0090A43
S1130B90C30B8B4201D3CB03C01A5241830B8B424C
S1130BA001D38B03C01A5241430B8B4201D34B0335
S1130BB0C01A5241030B8B4201D30B03C01A52419A
S1130BC0C30A8B4201D3CB02C01A5241830A8B421F
S1130BD001D38B02C01A5241430A8B4201D34B0208
S1130BE0C01A5241030A8B4201D30B02C01A52416C
S1130BF0CDD2C3098B4201D3CB01C01A5241830920
S1130C008B4201D38B01C01A524143098B4201D359
S1130C104B01C01A524103098B4201D30B01C01A84
S1130C205241C3088B4201D3CB00C01A52418308FE
S1130C308B4201D38B00C01A524143088B4201D32B
S1130C404B00C01A5241411A00D20146524110468B
S1130C507047FFE701B5002000F0F0F802BDC04680
S1130C600029F7D076E7704703460B437FD4002270
S1130C7043088B4274D303098B425FD3030A8B422C
S1130C8044D3030B8B4228D3030C8B420DD3FF2296
S1130C90090212BA030C8B4202D31212090265D064
S1130CA0030B8B4219D300E0090AC30B8B4201D317
S1130CB0CB03C01A5241830B8B4201D38B03C01A5E
S1130CC05241430B8B4201D34B03C01A5241030BD5
S1130CD08B4201D30B03C01A5241C30A8B4201D386
S1130CE0CB02C01A5241830A8B4201D38B02C01A31
S1130CF05241430A8B4201D34B02C01A5241030AA8
S1130D008B4201D30B02C01A5241CDD2C3098B428C
S1130D1001D3CB01C01A524183098B4201D38B0109
S1130D20C01A524143098B4201D34B01C01A5241AC
S1130D3003098B4201D30B01C01A5241C3088B42F1
S1130D4001D3CB00C01A524183088B4201D38B00DC
S1130D50C01A524143088B4201D34B00C01A52417E
S1130D60411A00D201465241104670475DE0CA0F55
S1130D7000D04942031000D34042534000229C4615
S1130D8003098B422DD3030A8B4212D3FC2289011F
S1130D9012BA030A8B420CD3890192118B4208D3F5
S1130DA0890192118B4204D389013AD0921100E057
S1130DB08909C3098B4201D3CB01C01A524183096B
S1130DC08B4201D38B01C01A524143098B4201D398
S1130DD04B01C01A524103098B4201D30B01C01AC3
S1130DE05241C3088B4201D3CB00C01A524183083D
S1130DF08B4201D38B00C01A5241D9D243088B4293
S1130E0001D34B00C01A5241411A00D20146634635
S1130E1052415B10104601D34042002B00D5494299
S1130E20704763465B1000D3404201B5002000F0D8
S1130E3005F802BD0029F8D016E770477047C04690
S1130E40FEE7C0460A4A0300116810B5002901D123
S1130E500849116010680849C3188B4206D9FFF786
S1130E607DFB0C2303600120404210BD1360FCE7AE
S1130E705C000020F0020020F002002083780220B1
S1130E809842804140427047437A0020013B012B45
S1130E9003D90B78013001330B70704710B5002073
S1130EA003F068FA002803D00021080003F056FA82
S1130EB010BD0000024A1368013313607047C04636
S1130EC07000002037B5002002F058F9C023002438
S1130ED00D4A9B0013600D4A0D4D13600D4A20000E
S1130EE013600D4B2C716C71AC711A68FA239B0062
S1130EF053430A492B6003F08BFA2900200001AA0E
S1130F0003F0ECFA37BDC046189014541C901454E6
S1130F10C800002000A0145484FEFF1F9800002085
S1130F2010B58024002003F0B5FA0A4B64001C605D
S1130F30094B07201C60094B1C6002F0B9FB06201A
S1130F4002F0B6FB200002F0B3FB002002F01BF914
S1130F5010BDC046189014541C90145400A014548E
S1130F6010B5002002F014F98023054A9B00136099
S1130F70044A00200449136002F076FC10BDC04608
S1130F800CA0145410A014547400002010B50020B8
S1130F9002F0A6FC80238220074A5B001360074A04
S1130FA04000136002F084FB0420FF3002F080FB59
S1130FB0002002F0F2F810BD0CA0145410A0145438
S1130FC00023364A70B51360354A01201360354A50
S1130FD00133FF331360344A34491360344A1360D5
S1130FE0344A1360344A1360344A1360344A136039
S1130FF0344A14782500054004424DD00B60324930
S113100032480B60002101603148016031490B60B6
S113101031490B6031490B6031490B6031490B6038
S113102031490B601378DB0703D50220FF3002F04F
S113103031FB092002F03CFB0C2002F039FB0520B7
S113104002F036FB082002F033FB0620FF3002F0EA
S11310502FFB0E20FF3002F02BFB8320400002F018
S113106027FB0820FF3002F023FB0C20FF3002F0A6
S113107011FB8220400002F01BFB0420FF3002F031
S113108017FB072002F014FB062002F011FB80205E
S1131090400002F00DFB70BD0D60B0E70C901454DD
S11310A010901454149014541890145404A014540C
S11310B01C901454209014542490145430901454BC
S11310C000A0145480FEFF1F08A014540CA0145454
S11310D010A0145414A0145418A014541CA0145494
S11310E028A014542CA0145434A0145410B509206E
S11310F002F0DEFA10BD10B50C2002F0D9FA10BDD2
S1131100384B10B598423DD027D8374B984253D02E
S113111015D8C83B984244D009D8C83B984231D02E
S1131120324B984206D1052002F0B4FA2DE0304B40
S113113098423DD02F49002001F0A7FB2CE09623D4
S11311401B01984243D02C4B984247D02B4B9842DA
S1131150F0D1052002F09EFA31E0294B98422BD0C1
S113116007D8C83B98421CD0264B984220D0264B27
S1131170D7E7C8231B01984229D0244B98422DD08D
S1131180234BE4E7052002F093FA082002F090FADA
S11311900620FF3002F08CFA1E4B186801F035FE71
S11311A010BD052002F084FA082002F073FAEFE77C
S11311B0052002F06FFAF7E7052002F079FA08201B
S11311C002F076FA0620FF3002F064FAE4E7052024
S11311D002F06EFA082002F05DFAF3E7052002F04F
S11311E059FAF7E7280A0000980800006C07000085
S11311F034080000EC4A0000C4090000FC080000A8
S1131200B80B0000540B00008C0A0000E40C000032
S11312101C0C000088FEFF1F10B5FFF771FF0920AA
S113122002F038FA0C2002F043FA8320400002F066
S11312303FFA10BD10B5FFF763FF092002F038FA3A
S11312400C2002F027FA8320400002F023FA10BD9C
S1131250AF220C4B10B5C3189BB29200934202D834
S1131260FFF7DAFF10BD084BC3189BB2934202D8B4
S1131270FFF7E0FFF6E702000449002001F005FB58
S1131280F0E7C046F8F8FFFFD8F5FFFF194B000060
S113129010B5FFF72BFFFFF72EFF8320400002F06D
S11312A0F9F9024B186801F0B0FD10BD88FEFF1F6C
S11312B010B50400002901D0FFF782FE00210220AE
S11312C000F02AFF2100042000F026FF10BD10B515
S11312D0012420000021FFF7EBFF21003C20FFF751
S11312E0E7FFF6E773B515001C0000281AD017496C
S11312F0002001F0B7F8164EA4B2306801F085FD65
S11313001449002001F0AEF8306801F07EFD9F2101
S1131310042308223920009401F084FC00200E49A3
S113132001F0A0F800200D4901F09CF800242200EF
S113133000200B4901F0A9FA002001F0B9FC002DAE
S113134002DD280001F061FD0134F0E7514B00009B
S11313507CFEFF1F684B0000894B0000B74B000068
S1131360DE4B000010B504001000002C3BD0FFF74A
S1131370F7FD601E122830D8FFF7D8FB0A2F11138F
S113138015172F191B1D1F21232529272F2B2D004E
S11313901749002001F066F8FFF7F8FD10BD154964
S11313A0F7E71549F5E71549F3E71549F1E7154955
S11313B0EFE71549EDE71549EBE71549E9E7154965
S11313C0E7E71549E5E71549E3E71549E1E7154975
S11313D0DFE71549DDE71549DBE722001449002062
S11313E001F053FAD8E72000124901F03BF8D5E7A1
S11313F0E14B00000E4C0000394C00006A4C000028
S11314009A4C0000CA4C0000F74C0000244D000028
S1131410504D00007E4D0000AA4D0000D74D000045
S1131420034E00002F4E00005C4E0000884E00006A
S1131430B44E0000064F000003003038092805D9D7
S11314401A00613A052A02D8573B180070471A005F
S1131450413A0020052AF9D8373BF6E770B501F088
S11314601CF8040001F019F8FF26050020003040A4
S1131470FFF7E2FF040028003040FFF7DDFF2401FE
S11314802018C0B270BD70B501F007F8060001F075
S113149004F8050001F001F8040000F0FEFFFF224B
S11314A0FA23642116401540303E14409B00303D21
S11314B04D4373435A39303C4C435B1910401B195C
S11314C03038181870BD000070B50C00160088B0D4
S11314D00CAA157806A908800A4A05A805700A4DC1
S11314E012682D684A6004AA1670019300902300C4
S11314F00020029502F01CFB002800D0022008B056
S113150070BDC04674FEFF1F78FEFF1FF7B56A4624
S1131510CB1DDB08DB00D31A02AF9D460C0005008F
S1131520FFF7D0FCFA2300219B0002AE0193009444
S113153033002A00080003F02DF80400FFF7F0FC44
S1131540002C00D00424BD462000F2BD10B50020BC
S1131550014900F087FF10BD324F000010B5094C5F
S11315600020210000F07EFF2100002000F07AFF1F
S11315700549002000F076FF0449002000F072FFC6
S113158010BDC0465E4F00008E4F0000BF4F0000EC
S1131590F0B5B9B025AC072200212000FFF798F878
S11315A0FA4A01252C92032215AB2F9317AB3093E3
S11315B019AB32931DAB34931FAB359321AB3693E8
S11315C023AB1BAE11A9002037932CAB1A712E91BB
S11315D0149333962570319401F0C8FD280001F06E
S11315E0C5FD8021EA4B0902196001F02DFC00239E
S11315F000951A001900180000F056FFE549002074
S113160000F030FFC82001F000FCE349002000F0A6
S113161029FFC82001F0F9FBE049002000F022FF77
S1131620C82001F0F2FBDE4A2B000221DD4801F064
S11316302FFC2900280001F037FC002002F0D8FD1F
S11316408C210027D84B3800299308AB5B181F80E6
S1131650023108AB5B1829A91F702A9502F0F4FD2A
S11316602A00390011A8FFF733F84820259B08A960
S11316701993A28809180A80A279023008A90918C6
S11316800A700322063808A909180A701B93A28855
S113169008A9B280A2790A38B27105223270159372
S11316A0A28802260A87A27909180A70342108AA96
S11316B0521816701793A288063008A909180A80D0
S11316C0A279801908A909180A703C2108AA52189D
S11316D0383911701D93A288163008A909180A8098
S11316E0A279801908A909180A700822063808A9DD
S11316F009180A701F93A2880C3008A909180A80D7
S1131700A279801908A909180A700921063808AABB
S1131710121811702193A3880C3008AA1218138090
S1131720A379801908AA121813700A23063808AA84
S1131730121813706C2208AB9B181F7014AA2B008C
S11317402FA801F073FD3900300000F0E5FC974943
S1131750974801F085FFFFF733FC0820FF3001F0C4
S113176099FFC82001F051FB0820FF3001F0A0FFD1
S1131770C82001F04AFB0820FF3001F08BFFC8208D
S113178001F043FB0820FF3001F092FFC82001F074
S11317903CFB0820FF3001F07DFFC82001F035FB41
S11317A00820FF3001F084FF4020824901F00AFA4A
S11317B0FFF76EFD01F020F980231B0209933B0023
S11317C008970B9704330A937B49002000F04AFEE4
S11317D07A4C206801F019FB7949002000F042FEA0
S11317E0206801F012FB3B00089A7649002001F0C2
S11317F04CF8206801F009FB734D744E74492A6853
S1131800099833680968019000910020714901F03A
S11318103CF8206801F0F9FA6F4B7049704A0020D7
S1131820D2584B69096800916E4901F02EF820687E
S113183001F0EBFA6C4900200A784B788979D2B22E
S1131840DBB20091694901F020F8206801F0DDFA6B
S1131850654B67491A7A1B7E0978D2B2DBB20091D4
S11318600020644901F011F8206801F0CEFA624BBF
S113187062491A785B780969D2B2DBB20091002020
S11318805F4901F002F8206801F0BFFA5D4B54484B
S11318909A7852495C4BD2B2C358496800200091EF
S11318A05A4900F0F2FF206801F0AFFA584B594949
S11318B01A6811AB1B78002000F0E7FF206801F0E4
S11318C0A4FA5549002000F0CDFD206801F09DFAEE
S11318D05249002000F0C6FD206801F096FA5049F4
S11318E0002000F0BFFD206801F08FFA4D49002070
S11318F000F0B8FD206801F088FA4B49002000F0A0
S1131900B1FD206801F081FA4849002000F0AAFDE9
S1131910206801F07AFA4649002000F0A3FD20680F
S113192001F073FA4349002000F09CFD206801F0A7
S11319306CFA4149002000F095FD206801F065FA39
S11319403E49002000F08EFD206801F05EFA3A0066
S11319500A9B3B49002000F098FF206801F055FAEB
S11319603849002000F07EFD206801F04EFA364927
S1131970002000F077FD206801F047FA3349002089
S113198000F070FD206801F040FA61E0890E00006B
S1131990E0020020F14F00000C5000001250000043
S11319A064FEFF1F90FFFF1FE0070100A0FEFF1F62
S11319B090FEFF1F60000020195000007CFEFF1FF6
S11319C03D5000006F50000074FEFF1F84FEFF1F97
S11319D08CFEFF1FA35000003C10000000D0034009
S11319E000700440DB50000000400640115100002C
S11319F0005006404051000000E0074000ED00E0C8
S1131A007051000000D0074034100000AA510000BB
S1131A1070000020E2510000105200001A52000031
S1131A2037520000535200006F5200008C520000E5
S1131A30B3520000D2520000F15200001C530000C7
S1131A403F5300006E5300008A530000AE53000061
S1131A50CE49002000F006FD206801F0D6F9CC49FB
S1131A60002000F0FFFC206801F0CFF9C9490020F4
S1131A7000F0F8FC206801F0C8F9C749002000F024
S1131A80F1FC206801F0C1F9C449002000F0EAFC2F
S1131A90206801F0BAF9C249002000F0E3FC206894
S1131AA001F0B3F9BF49002000F0DCFC206801F02C
S1131AB0ACF9BD49002000F0D5FC206801F0A5F97F
S1131AC0BA49002000F0CEFC206801F09EF9B84924
S1131AD0002000F0C7FC206801F097F900F0DDFC5D
S1131AE0FF2302000C901A400A2A00D1BEE2100023
S1131AF06138192800D9B0E0FFF722F81E00B100C0
S1131B00C400D400DF00E9002A0135013D01B80119
S1131B1012021802180259025E026202AF00680241
S1131B206B0266FE7302AF00AF008102AF008E024B
S1131B30A04B0B93022346E69F49002000F092FC41
S1131B409E49002000F08EFC206801F05EF99C495B
S1131B50002000F087FC9B49002000F083FC9A4998
S1131B60002000F07FFC206801F04FF99749002025
S1131B7000F078FC206801F048F99549002000F055
S1131B8071FC206801F041F99249002000F06AFCE0
S1131B90206801F03AF99049002000F063FC2068C5
S1131BA001F033F98D49002000F05CFC206801F05D
S1131BB02CF98B49002000F055FC206801F025F930
S1131BC08849002000F04EFC206801F01EF9864987
S1131BD0002000F047FC206801F017F98349002039
S1131BE000F040FC206801F010F98149002000F069
S1131BF039FC206801F009F97E49002000F032FC2C
S1131C00206801F002F97C49002000F02BFC2068D8
S1131C1001F0FBF87949002000F024FC206801F071
S1131C20F4F87749002000F01DFC206801F0EDF87D
S1131C307449002000F016FC206801F0E6F87249AF
S1131C40002000F00FFC206801F0DFF800F025FC14
S1131C50FF2202406E2A00D16AE76C490EE06C490B
S1131C60002000F0FFFBFFF70EFC28602A68694B98
S1131C709A4201D1684B2B602A686849002000F021
S1131C8004FEA1E56649002000F0ECFBFFF7FBFB36
S1131C90306032685F4B9A4201D15F4B33603268E7
S1131CA06049EBE76049002000F0DCFBFFF7EBFB49
S1131CB05E4B5F4918601A68E0E75E49002000F057
S1131CC0D1FBFFF7CBFB5C4907000200D6E75B4979
S1131CD0002000F0C7FBFFF7C1FB594D02002900AB
S1131CE00400002000F0D1FD5649002000F0BAFBAA
S1131CF0FFF7B4FB12AE020029003070002000F0A0
S1131D00C4FD5149992C00D181E1504B08981B68BE
S1131D1027AD28932C80FFF79BFA24226B469B184F
S1131D201878FFF71DF94A4B13AA1B681770029322
S1131D300123290000200193009601F0F9FE021E00
S1131D4003D00020434900F0A0FDFFF71FF93BE555
S1131D504149002000F086FBFFF795FB83B21A008F
S1131D603E4908938AE73E49002000F07BFB0120AE
S1131D70FFF7F4FB28E53B49002000F073FBFFF775
S1131D8082FB83B21A003849099377E7D2530000E3
S1131D90EC53000007540000255400004254000096
S1131DA061540000805400009A540000C55400009F
S1131DB0E554000060000020F854000003550000C2
S1131DC04A55000092550000DC55000025560000DD
S1131DD06E560000A5560000EB5600003357000075
S1131DE07A570000C0570000075800004D58000003
S1131DF095580000DB5800000D59000053590000AD
S1131E0093590000D95900001F5A0000335A0000AA
S1131E104F5A00000F270000102700007D5A0000D1
S1131E209D5A0000CB5A0000E55A00008CFEFF1FAB
S1131E30145B00002F5B0000655B00007C5B00000E
S1131E40AF5B0000C55B0000EE5B000074FEFF1F8B
S1131E5078FEFF1F145C0000355C0000615C00002C
S1131E60835C0000B15C0000ED5C00003A00804936
S1131E70002000F00AFD00F010FB7E490C900020C9
S1131E8000F0F0FA00F009FB7B490D90002000F00F
S1131E90E9FA00F002FB79490E90002000F0E2FA22
S1131EA0FFF7F1FA76490500002000F0DBFAFFF7AE
S1131EB0EAFA74490600002000F0D4FAFFF7E3FAC6
S1131EC071490400002000F0CDFAFFF7C7FA099B1E
S1131ED00A9A0F9001936D493B00029500960020E9
S1131EE000F0D3FC6A4624210C9B5218303B0F9916
S1131EF0581E83410E98127806910899303804913F
S1131F00411E884101900D98A4B2303800903900E8
S1131F100A98DBB2059403960295FFF723FA53E47B
S1131F205B49002000F09EFAFFF7D1F959490020DF
S1131F3000F098FA5849002000F094FAFFF78EFA5E
S1131F4027AE56493070002000F08CFAFFF79BFA58
S1131F5030226B469B181D7804003378089A6C2D48
S1131F6015D10192099A4E4900920200002000F016
S1131F708CFC0025A54200DB26E427AB1A7800235D
S1131F800121FF200093FFF79FFA0135F2E7009249
S1131F9044490200002000F078FC0025A54200DB43
S1131FA012E4012127A8FFF7B1FA0135F6E70898F2
S1131FB0FFF74EF9FFF708FCFFF76AF9FFF704FC97
S1131FC00021022000F0A8F8FFF7FEFB0021082002
S1131FD0F8E73049002000F045FAFFF7B7FAFFF7B9
S1131FE0F3FB0B9B3049002B11D03049002000F04B
S1131FF039FAFFF733FA0B9B1870FFF7E5FB2C490E
S1132000002000F02FFA2B4800F0FFFE2A490020A0
S113201000F028FAFFF7D8FB2849002000F022FA44
S113202024226B469B181878FEF79AFF2449002057
S113203000F018FA00F031FA22490500002000F0FF
S113204011FAFFF720FA86B232001F49002000F08F
S11320501CFC206800F0D9FEE9B268394D426941A0
S113206032000120099BC9B2FFF73CF91749CEE7BA
S11320700A5D0000445D00006D5D0000865D0000A7
S1132080C55D0000F15D0000295E00005A5E00009D
S1132090975E0000835C0000BA5E0000D95E000019
S11320A0F95E00004B5F0000895F0000C75F00001D
S11320B0FF5F0000102700001E6000002860000081
S11320C0416000006A600000B2600000EA60000045
S11320D01FB5040001A9002002F0DEF8694601A83A
S11320E002F018F8009B68461C1901A9009401F03D
S11320F099FF012201A9002002F0FAF81FBD000097
S11321000022034B1A608022024B1206DA677047E2
S113211000A01C5804E100E070B50D000A24082852
S11321201CD8FEF703FD051D2A3F54676C6F5C0045
S113213001F012FA0524012810D0FFF7E1FF28006E
S1132140FFF7C6FF0021080001F092F80121040006
S1132150002000F0A9FE002C22D10024200070BD34
S113216001F0FAF906240128F8D0FFF7C9FF280086
S1132170FFF7AEFF00210120E6E701F0EDF90824A6
S11321800128EBD000F00EFF002803D0012100202D
S113219000F08AFE0021022001F06AF80028DCD059
S11321A00924DBE701F0D8F907240028D6D0FFF78B
S11321B0A7FF2800FFF78CFF0021032001F058F847
S11321C0040001F0C9F901210028C4D1C1E7FFF7D7
S11321D097FF2800FFF77CFF00210420EEE7002191
S11321E0082001F045F8041EDAD10121080000F0AE
S11321F05BFEB3E70021052001F03AF8D0E70021A7
S11322000620F9E700210720F6E70369C268934234
S113221001D880681B18013B981A7047F7B583688A
S1132220C46801931F1B436805000E001819A41805
S1132230974207D83A00FEF7F7F9019B6868E41A59
S11322402200F119FEF7F0F9EC60F7BD0023F7B5B1
S113225006001700C568019100933369B4689D4274
S11322601FD2013B5B1B641BBC4200D93C009C4257
S113227000D91C007368220058190199FEF7D4F99B
S1132280009B2D191B190093019B3F1B1B190193E4
S1132290B368AB4200D10025F560002FDDD1009872
S11322A0FEBD1B19DDE70000022310B50F4C104AD8
S11322B0236163610F4BA261E361C823A2640E4AE8
S11322C02362E26400230422A3626362E362A365DF
S11322D06365E36522650949E01DFEF71BFB2000E9
S11322E00749FEF717FB2023A37110BDD00000207F
S11322F01C6100004C010020480100202561000001
S113230029610000F0B5274B85B01B780E000290C0
S11323100192002B01D1FFF7C7FF1823029A002571
S11323205343204AD3185A6D9C6D0392944219D991
S11323301B6D019D1B1B9D4200D91D001827029B8C
S113234030005F43174B2A00DF19FB6C761919190B
S1132350FEF76AF9019B64195B1B01933B6DA34271
S113236000D10024039B019F1B1B9F4200D91F0027
S1132370002F0CD01823029A30005343094AED1958
S1132380D318D96C3A000919FEF74EF9E419002D57
S113239005D01823029A03485343C01884652800C3
S11323A005B0F0BDD000002010B50B00EFF3108491
S11323B0012181F310881900FFF7A4FF84F310882A
S11323C010BD0000F8B516001822451C55434243C1
S11323D0164B0F005D199B18DC6A012C10D0022CDF
S11323E01BD0002C1FD12800FFF70FFF864205D811
S11323F0320039002800FFF711FF34002000F8BD37
S11324002800FFF702FF3400864200D904002200AE
S113241039002800FFF702FFF0E732002800FFF739
S113242015FF0400EAE70024E8E7C046D0000020D6
S1132430F8B50B4B04001B780E001700002B01D1DC
S1132440FFF732FFEFF31085012181F310883A0082
S113245031002000FFF7B6FF85F31088F8BDC046B1
S1132460D000002070B5050008000C00FEF75AFAF1
S1132470210002002800FFF7DBFF70BD13B56B4697
S1132480DC1D012221000020FFF78EFF012801D16D
S1132490207816BD01204042FBE710B5FFF7EEFFA0
S11324A00028FBDB10BD0000F7B5164C0193237820
S11324B005000F001600002B01D1FFF7F5FE23697C
S11324C0AB421CD9EFF31082012181F31088002D57
S11324D00CD01823691C59436B43675061184E6034
S11324E00199E31819620021996259621820454341
S11324F0089B6419E36282F310880020FEBD01206A
S11325004042FBE7D0000020826810B50400406818
S1132510531C834205D820688154A360E3680133C7
S1132520E360A26863689A4209D121682069FFF7D1
S11325307FFFA368984203D001235B42E36010BD90
S11325400023A360FBE70000F0B5050017000800B6
S1132550012685B00A9C02910093B84219D2009AD0
S11325600196964200D2019201230B9A1A400392DB
S11325700B9A1A4202D1002C10D10024EB680126D8
S1132580002B4BDB009B012B1FD9013B00937E43A7
S1132590F8E73900FEF7DEFA0136DEE70B9B20266A
S11325A09B0704D5009B1036002B00D0103E019BE6
S11325B0A342E3D231002800FFF7A6FFEB68013CF9
S11325C0002BDBDB002CF2D1D7E731000298FEF7B9
S11325D0C1FA8742DBD902983100FEF741FB114B67
S11325E00291195C2800FFF78FFFEB68002B05DBD5
S11325F039003000FEF7AEFABE4211D2039B002B25
S11326000CD0002C0AD0019BA34207D22021280021
S1132610FFF77AFFEB68013C002BF2DA05B0F0BD5E
S11326200600D8E730610000F0B59FB00EAB099307
S113263040230A9300230E00150007900B930D907E
S11326400C9331780136002907D10C9B0393002B9E
S113265000DD09E10C981FB0F0BD252900D0B3E0DE
S113266000270822042006E0302B0DD1022300E0CD
S113267001231F430E003378711C2D2BF8D0F3D89F
S1132680232B10D02B2B0CD000240A213378721C5E
S113269018003038092808D84C43303C16001C195F
S11326A0F4E70743E6E71743E4E7002103912E2B01
S11326B00ED116000A203278711C1300303B092B0E
S11326C006D8039B0E004343303BD3180393F2E731
S11326D0042331780A0001369A43682A01D13178FB
S11326E0F8E7782909D86F290BD8632967D017D858
S11326F0252969D0582900D195E00C9B002BA0DA3C
S1132700A3E7703908000829F7D8FEF719FAA500DD
S1132710F6FFF6FF9400F6FF8300F6FFF6FF8C0049
S11327206429EAD12B681A1D1B682A60DA179818E5
S11327300493012350400593092849DC039B059A1F
S11327400693934200D20692002C05D0049B002BE2
S113275001DB7B0700D5013C02231F4202D0039B0F
S1132760002B05D001231F4202D1002C36D10024B6
S11327700C9B0593002BC0DB049B002B3ADA2D2124
S11327805B42049309A8FFF7BFFE0C9B002BB4DB4C
S113279003233B40022B05D1039B002B02D1002CC9
S11327A02CD100240C9B0593002BA6DB0A22039B4F
S11327B004990197009409A8FFF7C6FE9DE72B68CA
S11327C019681A1D2A60C9B209A8FFF79DFE94E78B
S11327D00A21FEF749FA059B0133ACE7069BA342A5
S11327E0C6D2202109A8FFF78FFE0C9B013C002BC9
S11327F0BBDABDE77B07C8D52B21C3E7069BA34201
S1132800D0D2302109A8FFF77FFE0C9B013C002B9E
S1132810C5DAC7E70A22296801970B1D2B60039BC1
S113282000940968C7E7296801970B1D2B60039B77
S113283000941022F5E72B681A1D2A601C68217881
S11328400134002900D158E709A8FFF75DFE0C9B6D
S11328500393002BF3DA50E729680B1D2B60002348
S1132860019308330093E4E70B9A002A03D00798F6
S11328700EA9FFF7DDFD0C9B03930B9B0493049AB5
S1132880039B944663440C93E4E60EB403B503AB94
S113289002CB01AA0193FFF7C7FE02B008BC03B044
S11328A0184710B5002000F011FF10BD10B500202E
S11328B001F07CFD10BD0000082310B5164A917884
S11328C0194202D091780B43937088210022222070
S11328D0124B49015A501249124C08708020124977
S11328E0400258501968114801401960195910489C
S11328F00840C02189040143195180210D4B1A72EB
S113290019767F391A7059700B490A700C3299790B
S11329101142FCD110BDC04600D0074000700440F5
S113292000E007400410000044100000FFFFF3FF24
S1132930FFFFFFF0004006400050064012491348D4
S113294010B5814205D00022114B9B089B009A428E
S11329500FD1104B104A9960002310491048521AA5
S11329609A420AD100210F4B0F4AD21A013A08D2D7
S113297010BD84588C500432E9E7CC5CC454013354
S1132980EEE719700133F1E70000000000000000D9
S11329900000000000ED00E03865000090630000D6
S11329A000FEFF1FA8FFFF1FF002002037B50E2511
S11329B0FF350400280000F06DFE0A2000F025FA1F
S11329C0280000F075FE0C2000F072FEFA23084A7D
S11329D09B00147000210193012308000093054B10
S11329E001F0D8FD0400280000F054FE20003EBD94
S11329F03402002014020020C02310B58024694A48
S1132A009B001360684A64001360FEF75BFA674B2F
S1132A1020001C60664B1C60664B1C6000F03AFE94
S1132A20642000F0F2F9200000F042FE642000F07F
S1132A30ECF9200000F02EFE642000F0E6F9AE2050
S1132A40FFF7B4FFA020FFF7B1FF7220FFF7AEFF3E
S1132A50A120FFF7ABFF0020FFF7A8FFA220FFF79C
S1132A60A5FF0020FFF7A2FFA420FFF79FFFA820E7
S1132A70FFF79CFF3F20FFF799FFAD20FFF796FF7C
S1132A808E20FFF793FFB020FFF790FF0B20FFF796
S1132A908DFFB120FFF78AFF3120FFF787FFB320B6
S1132AA0FFF784FFF020FFF781FF8A20FFF77EFF06
S1132AB06420FFF77BFF8B20FFF778FF7820FFF778
S1132AC075FF8A20FFF772FF6420FFF76FFFBB20BA
S1132AD0FFF76CFF3A20FFF769FFBE20FFF766FFA0
S1132AE03E20FFF763FF8720FFF760FF0E20FFF70C
S1132AF05DFF8120FFF75AFF0020FFF757FF822078
S1132B00FFF754FFFF20FFF751FF8320FFF74EFF2D
S1132B100020FFF74BFFAF20FFF748FF2620FFF709
S1132B2045FF0120FFF742FF23490020FFF79AFCED
S1132B302520FFF73BFF0020FFF738FF0020FFF7B9
S1132B4035FF5F20FFF732FF3F20FFF72FFF1B49C0
S1132B500020FFF787FC2220FFF728FF0020FFF763
S1132B6025FF0020FFF722FF5F20FFF71FFF3F2014
S1132B70FFF71CFF0020FFF719FF3F20FFF716FFA8
S1132B800020FFF713FF0020FFF710FF3F20FFF79F
S1132B900DFF0020FFF70AFF09490020FFF762FC40
S1132BA0002010BD209014542490145434A01454C4
S1132BB03090145400A01454406100005F61000080
S1132BC07D610000002308704B60704730B514002D
S1132BD0104B89B01B780D0006A90B800E4B04AA7C
S1132BE01B6810804B6005AB5C8002240B481D8081
S1132BF000680093029001230020019400F098FFE4
S1132C00002804D000200649FFF73FFE200009B049
S1132C1030BDC0466000002074FEFF1F78FEFF1F19
S1132C209D610000F8B51E0006AB1F8815003B002F
S1132C300A0001000020FFF7C9FF3B000400320036
S1132C4029000520FFF7C2FF2043C0B2F8BD0000F1
S1132C500B0010B5104A88B0127806A90A800F4AF2
S1132C6012684A6005AA10700D48006801930D4B64
S1132C70029000930020012300F067FF041E07D098
S1132C8000200949FFF701FE0224200008B010BD0E
S1132C900649FFF7FAFDF8E76000002074FEFF1F05
S1132CA078FEFF1F68000020BE610000DF610000A5
S1132CB010B5022104000420FFF7CAFF0B4B1A7A57
S1132CC05B7AD2B2DBB2002804D000200849FFF7B7
S1132CD0C9FB10BD92019B0806491A43002C01D17F
S1132CE020000549FFF7D1FDF3E7C046600000204E
S1132CF005620000196200002A62000003004170AE
S1132D000020187058609860704710B5437804002C
S1132D100120FF2B08D000F051FA63780133DBB2B5
S1132D20637000F03FFA002010BD0020704770B5BA
S1132D3004000D0000F042FAE1682943E16000F06C
S1132D4031FA002070BD000000220A4B9A641A0078
S1132D5040329A631A0030329A621A0020329A6121
S1132D601A0010329A60044A1360044B9B60DB60C3
S1132D707047C0465802002054020020A8020020D8
S1132D800022024B1A60186880B270470C007C5015
S1132D9070B5437804000D00002B0BD0002500F023
S1132DA00DFA6378013BDBB26370257000F0FAF929
S1132DB0280070BD02200029FBD02378002B17D0F7
S1132DC0FFF7DEFF6368A268834204D8C01A824218
S1132DD006D30320EDE7C01A80235B02C018F6E790
S1132DE000F0ECF90023237000F0DCF90220E0E7A6
S1132DF04B1CEED000F0E2F90123237000F0D2F96D
S1132E00FFF7BEFFA5606060E3E770B50500FFF75C
S1132E10B7FF802604007602FFF7B2FF0300844266
S1132E2003D8031B9D42F7D270BD301BC318F9E7CA
S1132E3010B5012801D100F0C1F910BD10B5012869
S1132E4001D100F0AFF910BD10B5FFF77DFF0123EC
S1132E500020084A08491360084A094C10600860B9
S1132E6004212160074C216007490B600749086071
S1132E70136010BD388004500000845000000450DA
S1132E80000004510400045104000C5000000453D9
S1132E9010B5044C206021710020A2602373637379
S1132EA010BDC046B80200200422F0B587B005ACBE
S1132EB03B4E0190029120706170337900928342FD
S1132EC026D90022337B1500737301230092A3706B
S1132ED00393334F3B7BAB421DD8009B002B02D0A6
S1132EE0029B012B48D10120FFF7A2FF0C20019B7C
S1132EF0002558433368181800F0C2F8019B0120DC
S1132F0073710226FFF79AFFA6703B7BAB421AD877
S1132F10009807B0F0BDBA68AB009B58002B0FD0E7
S1132F201A7903990A420BD020001A6899689047CD
S1132F30002805D0029B7D73002B1BD00523009332
S1132F400135EDB2C5E7BA68AB009B58002B0ED033
S1132F501A7932420BD020001A68996890470028E9
S1132F6005D0029B7D73002B17D0062300930135F7
S1132F70EDB2CAE7052300930023A370013DEDB22F
S1132F80FF2DC5D0064BAA009B68D358002BF5D063
S1132F9020001A6899689047F0E706230093B7E782
S1132FA0B8020020014B58797047C046B80200208F
S1132FB013B50400002021780190022920D00329B0
S1132FC022D0012925D1227901AB144800F0BEFF9B
S1132FD0002814D1A3795A1E9341114ADB011370BE
S1132FE063785A1E93410F4A5B001370A2780E4B0C
S1132FF01A70E2780D4B1A7062790D4B1A7016BD77
S11330000100227901ABE0E701A9044800F0E0FFE8
S1133010DEE701A9014800F07DFFD9E70040064042
S11330201840865300408650004006500140065028
S113303018401650074A43099B009B18F822C00504
S113304012051040184380235B05184300230360D6
S11330507047C04628800440F821084A43099B0071
S11330609B180905C2050A401343802252051343E5
S11330701F2210401E3A82401A6070472880044084
S1133080072373B5009300230400104D1A00012197
S1133090280001F07DF92000FFF78AFF637A2800F9
S11330A000930023217A1A0001F072F9E379084AA7
S11330B09B041360074BA17A1D68280000F0A4FF4D
S11330C02800E17A00F0A7FF002076BD00700440DC
S11330D000700C598862000010B5054800F0DAFE53
S11330E0044B1968C9B20131FDF734FD10BDC04667
S11330F00040064044801C5E10B5FFF7EDFF10BD94
S113310010B5054800F0C6FE044B1968C9B2013178
S1133110FDF720FD10BDC046004006404480145811
S113312010B5FFF7EDFF10BD0B4B1B68DBB2022B94
S11331300CD0032B0DD00020834206D1074A10681F
S113314080221202904200D018007047044B186885
S1133150FBE7FA208000F8E700700C59E002002039
S1133160E402002010B5FFF7DFFF10BD10B5024BDD
S1133170185CFFF771FF10BD3A62000010B57620AD
S1133180FFF76AFF10BD10B57620FFF753FF10BD9F
S113319010B56620FFF760FF10BD10B56620FFF77D
S11331A049FF10BD044A1368002B04D0013B13608F
S11331B0002B00D162B67047C802002072B6024AE2
S11331C01368013313607047C802002010B5064C21
S11331D0064801F06FFB042801D1002010BD013C1A
S11331E0002CF5D10320F9E7EA03000000E00740D2
S11331F010B50B4B0B490A78002A07D0084C0A4833
S113320001F058FB012806D1002003E0013B002B0C
S1133210F1D1032010BD013C002CF0D1F9E7C046E8
S1133220EA03000002D0075100E00740F7B50700A9
S11332300E00150001200193002F15D0002913D092
S1133240FFF7F6FD094C102200212000FDF740FA9B
S113325027602671002D03D0019BA560237363733F
S11332600120FFF7EBFD0020FEBDC046CC0200208C
S1133270F0B5B14C8DB002900391237B01206373B0
S1133280FFF7D6FD2379029A934206D80120FFF76F
S1133290D5FD022738000DB0F0BD029A23689200D4
S11332A0D35809AC1D780193039B2A002372029B17
S11332B02370019B636002239A430492012A01D084
S11332C0052D0AD101219D4801F048FA002807D1B3
S11332D00120FFF7B3FD0127DCE70321072DF2D816
S11332E00123002763723C000593934E337BA34272
S11332F02AD80120FFF7A2FD914800F0EFFD049BBE
S1133300012B4AD10138022835D9039B012B00D067
S11333100DE106270120FFF78BFD0023012609ADEF
S11333206B72013CE4B2FF2C00D1AFE0824BA200EF
S11333309B68D358002BF4D01A793242F1D028007C
S11333401A6899689047ECE7B268A3009B58002B71
S11333500ED01A7905990A420AD01A68996809A800
S11333609047002804D0039B04277473012BC0D119
S11333700134E4B2B9E7FFF7D3FE724B9842C4D8E4
S1133380FFF7AAFE704EB042BFD8FFF7B9FEB042B5
S1133390BBD8FFF7B1FEB042B7D8039B012B00D0D6
S11333A0C1E00A2D00D9BCE02800FDF7BFFB060AE6
S11333B00D1E879A7B822F737800002207AB1A7048
S11333C02DE0032207ABFAE75C4801F073FA012809
S11333D008D00021594801F0D1F9FFF709FF071E71
S11333E000D057E7012207ABE9E7544801F062FA3D
S11333F0042808D00221514801F0C0F9FFF7E6FE85
S1133400071E00D046E7042207ABD8E7072207AB24
S11334101A80019AD2789A70019A1279DA702B0084
S1133420083B022B06D8019B06AA5B799372019B89
S11334309B79D372019B5B78002B0AD0012D08D9AC
S1133440019B02229978414B00294DD019690A4306
S11334501A613A4807A901F0B5F9002800D00327FA
S1133460002D45D1FFF7C4FE071E00D012E7002748
S11334700120FFF7DDFC029B2F4D0024AB730223D8
S113348009AE737201932B7BA34236D80120FFF758
S1133490D5FCFFE6082207ABFF321A80BFE72C4AAF
S11334A007ABFAE7022207AB1A700222FF329A80B6
S11334B0B5E7022207AB1A70264AF8E7022207ABE7
S11334C01A70013A1D489A8001F0F4F90128A6D037
S11334D000211A4801F052F9FFF78AFE071E9ED018
S11334E0D8E6052207AB6AE7196991431961B0E789
S11334F0012DBDD1FFF76AFEB6E7AA68A3009B5869
S1133500002B0BD01A7901990A4207D030001A68AF
S113351099689047002801D005276C730134E4B200
S1133520B1E70327B6E6002F00D13AE7F2E6002F11
S113353000D0EFE6EDE6C046CC02002000E00740F4
S11335400040064040420F0080841E0000ED00E071
S1133550070300000102000010B5064801F0AAF9B3
S113356003000020012B03D00B30042B00D10A38B8
S113357010BDC04600E00740F7B5FF2403681D4AAC
S11335801E0A26401C40B3009F581B4A05009B5846
S113359030000193FFF7EAFD00222100380001F01A
S11335A091F9019BA400E41884232A795B05234341
S11335B052001A6080236A795B0523431A609023C2
S11335C0AA795B05234312011A600C4B1C43EB7967
S11335D01B042360EB79002B0AD0094B9B57002B6B
S11335E006D01F2213401E3A9A401300054A136066
S11335F0F7BDC0468C6200009462000000001818F9
S11336009C62000000E100E0F8B5FF2405000368B7
S1133610114A180A20401C4083009F580F4A9E58A4
S1133620FFF7A4FD38002100012201F04BF96A687C
S11336302100380001F055F988232A7AA400A4193E
S11336405B05234392001A6098235B051C436B7A45
S11336509B012360F8BDC0468C62000094620000A8
S113366070B50C00002807D1002C0FD170BD0500E7
S11336700835FFF781FF280003680133F7D1F3E72A
S1133680250020000C35FFF7BFFF2C002368013311
S1133690F6D1EBE7FF22030A044913409B00595873
S11336A00123104083404B607047C0468C62000089
S11336B0FF22030A044913409B0059580123104078
S11336C083408B607047C0468C620000084B8200C8
S11336D0D258942310B502325B0513431B78002B98
S11336E002D000F03FFA10BD00F092FAFBE7C046AA
S11336F03C620000020080230C325B0513431A78FD
S1133700002AFCD00171704770B50D00084B800091
S1133710C458200029001830FFF73AFB0328F8D0DA
S1133720002801D004232374207CC0B270BDC0469D
S1133730DC02002010B5104B8000C458E37C002B41
S113374005D0237C052B02D0237C042B0BD10B4BFF
S113375018589823821C5B05134300221A7001F049
S11337602FF901236374A37C002B03D020001830AD
S1133770FFF7CBFA10BDC046DC0200203C6200001B
S1133780F0B51700002289B005930EAB1B78050035
S11337900393830032481E5832481C5807AB1A80E2
S11337A0A37C880A04930223FF3363828B0A019368
S11337B0CBB21E2801D11A000B0A5B00D8B2019BC0
S11337C000211E2B05D08F4203D1012303995B1ADC
S11337D059B20143CBB202930299019807AB197015
S11337E001211E2801D15A704918A3603000E160FC
S11337F00299FFF77FFF28000F99FFF785FF237CCD
S1133800002B0CD1002F0AD0059BA760E360300089
S11338103978FFF76FFF28000F99FFF775FF237CB6
S1133820039A1A4314D1019B1E2B01D0002F0FD0F1
S1133830002301273000A360E76001F0AFF802998C
S113384030003943FFF756FF28000F99FFF75CFF5C
S11338500023207CE374049BC0B2A37409B0F0BDC0
S11338603C620000DC020020F7B583000193184B92
S11338708200D75805000C000126002F26D1154BD5
S11338803900D358200024220193FCF721FF2000A3
S113389039001830FFF732FA2800FFF779FC019855
S11338A001F027F80A4BAA00D4501F220A4B5B5D93
S11338B0134032009A40094B1A609C22019B520526
S11338C002331343802266743E001A703000FEBD3A
S11338D0DC0200203C6200004062000000E100E0E5
S11338E0F7B50E4E8500AB59002701930C4B04002D
S11338F0EA589C2302325B0513431F70FFF74DFC0B
S1133900084B01981A5D1F231A401E3B9340064A38
S11339101830D367FFF709FAAF51F7BDDC02002076
S11339203C6200004062000004E100E00A4B8000B9
S113393070B5C5584B686A690C0093420BD0074BAD
S1133940C658FFF7DDFB002301006268300000F079
S1133950DFFF63686B6170BDDC0200203C62000025
S1133960F0B587B004920593334A0FAB1E788300F9
S11339709C580391627C0700002A03D10320207421
S113398007B0F0BD002E01D11E220E922B4A380042
S1133990D55800230399E360A36023742360637400
S11339A0A674FFF7C3FF90231021AA1C5B051343E1
S11339B019708423E91C5B050B43022119709823B9
S11339C05B05134302934023029A2800137000F00E
S11339D0E5FF039B380019880E9B049A0193012389
S11339E00093059BFFF7CCFE0D9B002B17D0237C87
S11339F0002B11D10C9B2800A3600D9BE3600C9B52
S1133A001978FFF777FE002E03D038000E99FFF7E0
S1133A107BFE207CC0B2B3E7237C042BF9D10023C6
S1133A200126029A1370EB785B09334202D0280016
S1133A3000F0C6FF6674ECE7DC0200203C62000084
S1133A40F0B589B0079311AB1B780692364A0293FE
S1133A5083009C580591627C0600002A03D1032050
S1133A60207409B0F0BD029A002A01D11E321092CE
S1133A7000272E4A0599D5580E9B300023600F9BD2
S1133A80A7606360029BE760A37427746774FFF701
S1133A904DFF9023AA1C5B051A4310231370842343
S1133AA004925B05EA1C134302221A709823AA1895
S1133AB05B051A43402328001370039200F06EFF45
S1133AC0059B069A1988109B300001930097079B69
S1133AD0FFF756FE237CDAB2BB4215D1049BA91C26
S1133AE01A708C235B050B430F99012900D108221E
S1133AF01A702B79029B002B03D030001099FFF72A
S1133B0003FE207CC0B2ACE7237C042BF9D1012650
S1133B10039B1F70EB785B09334202D0280000F04E
S1133B204FFF6674EDE7C046DC0200203C620000F3
S1133B301FB501240394089C0294079C0194069CDD
S1133B400094FFF70DFF04B010BD1FB501240394CA
S1133B50089C0294079C0194069C0094FFF770FF54
S1133B6004B010BD244B70B58400E5588423EA1CCE
S1133B705B05134302221A709023A9185B050B43BB
S1133B801B78EA78DBB292061DD5942252050A43CB
S1133B901278002A17D0194AA458012B14D1EA78B4
S1133BA01A4204D004332374FFF7C4FD0BE0E36826
S1133BB0013BE360002BF7D0A36828005A1CA260E5
S1133BC05978FFF797FD70BD6268013A6260002A78
S1133BD006D08C235B05012A0AD000220B4309E09E
S1133BE0FFF7A8FD23685A1C22602A791A70EAE7B5
S1133BF008220B431A70F5E73C620000DC02002047
S1133C00C31C84204005184302230370704700003E
S1133C100122F0B5904B8100CD5889B0EB1C019383
S1133C20EB7890261B091A4005920122EB78760561
S1133C309B091A4002923200AB1D1A439446127833
S1133C400090D2B20792942252051A431278AF1C04
S1133C50D0B203909820400503431878C0B2069070
S1133C607E480C583100394301910978C9B2049156
S1133C70002A35D0079A002A0ED010236246280065
S1133C801370FFF7BDFF236B002B52D06A4601214E
S1133C901078626B98474CE0069A002A20D04022A4
S1133CA028001A70FFF7ACFF23002C331B78002B7D
S1133CB003D19822520517433B70236B002B04D089
S1133CC06A4680211078626B9847E37D002B04D00C
S1133CD0200080211830FFF72AF80A23237028E0F7
S1133CE02800FFF78DFF059B002B24D0EB1C1E43FF
S1133CF010233370029B002B10D0EB785B07DA0F94
S1133D00002B48DB019B1A70236B002B04D06A46FE
S1133D1004211078626B98472B790AE008232370FA
S1133D202C342378002B04D198235B051F43029B7A
S1133D303B7009B0F0BD029B002BDED1049B012B2C
S1133D4054D1EB78049A134230D0019B029A1A7032
S1133D502B7923002C331B78002B07D1039B002BDA
S1133D6004D198235B051F43039B3B70236B002BFB
S1133D7004D06A4608211078626B9847A37D002B13
S1133D8004D0200008211830FEF7D1FF002363601F
S1133D90E3602375CDE71023019A1370236B002B86
S1133DA004D06A4602211078626B98476368002B3E
S1133DB050D028008022E3680C3052051978024361
S1133DC010780028FCD029710133E3606368013B5B
S1133DD063606368002BACD1E3602375236B002B15
S1133DE0A7D06A4610211078626B53E72B79A2683A
S1133DF0DBB2002A2CD022691370236901332361BA
S1133E00A368013BA360A368002B00D091E7039B48
S1133E10002B11D123002C331B78002B04D19823C1
S1133E205B051F43039B3B70E37D002B04D0200004
S1133E3020211830FEF77BFF002363752361236B79
S1133E40002B00D175E76A4620211078626B21E7C8
S1133E50072343E7062341E73C620000DC0200201D
S1133E6084225205024312780300D0B2002A0CD0F7
S1133E7080200133400503431878013843425841F8
S1133E80024B40421840024BC0187047808D5B00C3
S1133E9080841E0010B50D4B821D13431A78040054
S1133EA0D3B2002A0FD0012B07D1FFF7D9FF084B5B
S1133EB008341C432378D84010BD0020022BFBD1CA
S1133EC0044B1868F8E70448F6E7C04600000811F8
S1133ED000009010E0020020006CDC020C4A811DFE
S1133EE00A4312780300D0B2012A04D002280BD06E
S1133EF000280BD1704780220133520513431B78ED
S1133F00002BF7D10220F5E70320F3E70520F1E7C2
S1133F100000081102009C2318325B051343802221
S1133F201A700022064B03431A70064B06301843DE
S1133F300378DAB2002BFBD1034B10000B607047FF
S1133F400000081300000811006CDC02F8B504003E
S1133F500D0016001F00FFF7C1FF012823D1002D1B
S1133F6025D08023621C5B0513431D708423022229
S1133F705B0523431A702200104B0832134372006E
S1133F80D2B21A7040220E4B0E48234306341A70E4
S1133F9004432378012BFCD1002D0DD10A4B33416E
S1133FA000203B60F8BD0228DBD1012DD9D13900B6
S1133FB02000FFF7AFFFD4E7044BF0E700009010B8
S1133FC0000008130000081180841E0000127A000B
S1133FD010B50A4C030022680120002A0CD0084ABC
S1133FE07F301A4310700748063303431A78022AB5
S1133FF0FCD1002023680B6010BDC046E002002005
S113400000000813000008119C23C9015B05034349
S1134010C9B219707047942349015B050343C9B2BF
S11340201970704770B506680C0030002049FCF721
S113403091FD1F4905003000FCF712FE0E00E1213E
S113404030000901FCF786FDE121E0800901300020
S1134050FCF706FE0E003C213000FCF77BFD3C2102
S113406020813000FCF7FCFD6E22A1720321114B6C
S1134070FF322380238895420AD80F499B0700D139
S11340800E490123CA5CAA420CD36380A58070BD8B
S113409001339BB223800B40AD1A5A425A416E320F
S11340A0FF32E7E70133AD1A0D2BEBD1EEE7C04643
S11340B080510100B2070000686200004162000004
S11340C00188114A03008A18002030B5812A17D8C4
S11340D05A88541E0B2C13D89C88651E1E2D0FD88D
S11340E0DD88172D0CD81D893B2D09D89B7A3B2BD5
S11340F006D88B0705D0054B9B5CA3424041C0B258
S113410030BD034BF8E7C0464EF8FFFF686200007D
S11341104162000070B5134D838802885B196E25D7
S1134120FF35554344885B1995085B190E4D6600AD
S1134130755B5B19920710D00B600A680B4BC4883F
S11341405343827A00899B18E122120162439B182F
S11341503C2242439B180B6070BD022CECD8013BFF
S1134160EAE7C0464A05F5FF4E62000080510100AF
S11341708023084A1B0212689A4209D1A0231030F6
S11341805B0518430368002B02D10133FF3303603E
S11341907047C046E00200200100802210B50023D1
S11341A001245205103111430C600B6090214360CF
S11341B0490504601C3001430B6088214905014313
S11341C00B6084214905014310430B60036010BD5B
S11341D00200902314325B05134300221A604260EC
S11341E0103201601A60704703680B60704700006A
S11341F0104B820070B5D558802204000E4B9205F6
S11342001A602800FFF7C8FF2800FFF7B1FF0B4B27
S11342101F261A5D0123180009493240095DC02593
S1134220314090408B40074A6D005051535110600B
S1134230136070BD786200003C80845E7C62000084
S11342407D62000000E100E0F7B50027114B80001B
S1134250C55808000E000197FFF732FF0400B8426A
S113426016D001A93000FFF755FF3800FEF77AFF9A
S1134270010080200002814206D0FCF76BFC0100A3
S11342800198FCF767FC019028000199FFF7A0FF53
S11342902000FEBD78620000F7B50025124B8000B7
S11342A0C4580E00200001A90195FFF79DFF2800C6
S11342B0FEF758FF05008020000285420ED00B4B0C
S11342C0290004341C43FCF745FC2768019C2900A1
S11342D04443B8B2FCF73EFC24180194310001A811
S11342E0FFF7A0FEF7BDC04678620000000078101A
S11342F0F0B50027184B800085B0C55808000E00A3
S113430001920397FFF7DCFE0400B84203D10024B6
S1134310200005B0F0BD300003A9FFF7FBFE380014
S11343202E68FEF71FFF010080200002814206D0A4
S1134330FCF710FC01000398FCF70CFC0390039BB2
S1134340B342E4D3AB6088231C355B051D43019B5A
S11343509A002A60DCE7C04678620000044B8000C3
S1134360C25888231C325B051343890019607047C7
S113437078620000054B8000C258882314325B0524
S113438013431868431E9841C0B270477862000016
S11343906B46E0221B78D2021B041340024A090731
S11343A00B4380180360704744100000084B8200E0
S11343B0D258902310B503325B0513431B78002BAE
S11343C002D000F013F910BD00F078F9FBE7C04605
S11343D0806200009C210C4B0C4A8000C358825818
S11343E0002003324905114310B518710870942157
S11343F049050A4310701A7F824203D02033180003
S1134400FEF783FC10BDC046E80200208062000075
S1134410F7B50C0005001B4B30220021870020005B
S1134420FE58FCF755F92800FEF7A8FEFEF768FED3
S11344302060300000F0E5FA200000212030FEF773
S11344405DFCF31C01939023F21C5B0513431022C3
S113445030001A70032100F012FB3000002100F03C
S113446033FB094BFC50094B5A5D1F231A401E3B7A
S11344709340074A13609823019A5B051343402233
S11344801A70F7BD80620000E80200208462000018
S113449000E100E0F8B50D4E85000D4BAF59040066
S11344A0E85800F0AEFA38002030FEF73EFC094B25
S11344B020001A5D1F231A401E3B9340064AD3670F
S11344C0FEF761FE0023AB51F8BDC046E8020020B0
S11344D0806200008462000004E100E00A4B800076
S11344E070B5C658094B0C00C358150030001A6843
S11344F0096800F08DFA2860A37930006279217987
S113450000F0CFFA70BDC04680620000E8020020CF
S1134510F7B51E4A83009C58050022790420002A1E
S113452016D11B4A9E58002903D0280001AAFFF780
S1134530D5FF982300214020F21C5B05134319701A
S1134540187027698F4204D12800FFF743FF002029
S1134550FEBD0123237194235B05A16133431B78C2
S11345600720002BF4D0A368191E02D01978013358
S1134570A360B1712369013B2361A3690133A36182
S11345809C235B051A4380231370E0E7E8020020B4
S113459080620000F8B5134F134C85002C59ED5977
S11345A00127069E2777A2602661E3606661FFF714
S11345B0AFFF002814D1200007992030FEF7E8FB54
S11345C00328F8D000280BD09C23002203355B0578
S11345D02B4322711A70942303205B051D432A7018
S11345E0F8BDC04680620000E802002010B51E4BF2
S11345F08200D3581979002934D01C4951585A697A
S1134600002A11D09C2252050A431278002A0BD0AA
S11346108A79DC68D2B2002C03D02270DA680132C5
S1134620DA605A69013A5A611A69002A12D094224E
S113463052050A431278002A0CD09A68141E02D03C
S1134640147801329A608C711A69013A1A619A6974
S113465001329A611A69002A04D15B69002B01D1E5
S1134660FFF7B8FE10BDC046E802002080620000DB
S1134670104A8000815800220F4B10B5C3580331F3
S1134680581CC2779C2040050843DA621A701A83CA
S11346905A629A621A6302709420400501430A70B8
S11346A01A0038321278002A03D00121181DFEF7AF
S11346B03EFB10BD80620000E802002070B5254B6F
S11346C08200D358591CC97F002942D0224952582C
S11346D0D96A002917DB9421490511430978002977
S11346E011D0D969CCB2596A002905D0DD6A002DF0
S11346F002DD0C78013159629471D96A0139D962A9
S1134700596B01315963D96A002905DA9421D41C03
S11347104905214300240C70196B002911DD9C21EB
S113472049051143097800290BD09279996AD2B2CC
S1134730002903D00A709A6A01329A621A6B013A0C
S11347401A63DA6A002A04DC1B6B002B01DCFFF716
S11347508FFF70BDE802002080620000012903D0B1
S1134760032909D00020704794235B05184300787F
S1134770431E9841C0B2F6E78423F6E7431C03487E
S113478049011843C9B201707047C046000088123D
S1134790831C9420490140051843C9B20170704735
S11347A0831C034889011843C9B201707047C0468D
S11347B000000813831C8C20C90040051843C9B2AB
S11347C001707047F7B50400364EE31C1E4333787E
S11347D008780D00DBB2072860D8FCF7A7F90419A4
S11347E02B0E192B2B45304B01341C430023237013
S11347F03378012BFCD10020FEBD012BFCD12A4BC8
S113480001341C43402323703378042BFCD1F2E79A
S11348100021012801D004200231337898423FD18D
S11348202000FFF7ABFF0421204A13698B43136177
S113483030BFE0E70227B84207D100270B79BB421B
S113484003D020004979FFF7ABFF194B01341C4317
S113485027703378154ADBB20193019B013301932E
S1134860042311690B43E2E70421114B621C1A4330
S113487011706A78A11C0B431A70002A06D1AB7818
S1134880002B03D02000E978FFF782FFAB79002BDF
S1134890DFD02000E979FFF78DFFDAE70120ABE7ED
S11348A00320A9E7000030100000881200ED00E0AA
S11348B000001010C31C024818430078C0B27047AF
S11348C000003010012314308B40012A04D18022CF
S11348D012051043036070478022D204DB43104367
S11348E0F8E701238B40002A01D0436070478360BE
S11348F0FCE70023C222037043708370C3704371CA
S11349008371C371037242728372C3727047000071
S1134910F0B5002487B00293FA230126270025006E
S11349209B00534303900491009301947642AB009F
S11349300593194BAA009B1859880498A140FCF7C9
S113494009F9009B009AC31A824200D9131AB34290
S11349501FD2114AA900525C27000192002B02D0F9
S11349600135322D13D10134032C01D0002B0DD18C
S1134970029A002A00D013603F220199BB01114022
S11349800B43039ADBB2537007B0F0BD00251E0041
S1134990CDE73300E4E7C0469E6200009423023072
S11349A05B0503431B78002B05D088235B05184364
S11349B004230370704780231B0518433023F8E752
S11349C0942210B55205841C224311780300CAB204
S11349D0022001290DD18021C90421438024CD3036
S11349E00870E400033319784909080010401142A3
S11349F000D110BD013C002C01D0C046F3E70920D2
S1134A00F7E70423C3700023837043700371704776
S1134A10F0B5130B89B001260393082301247642D1
S1134A2002939B1907900491059201930227002594
S1134A30631E0693210005987943FCF78BF8049BC9
S1134A40834207D31B1AB34204D21E00069B039071
S1134A500295019301357F00092D01D0002EE9D183
S1134A60082C02D00134002EE0D1019B029A1B01D4
S1134A7003981343079ADBB2537009B0F0BD842343
S1134A8010B50224C21C5B0513434A0022401A706D
S1134A90902300195B0518431023C90019400170C5
S1134AA010BD10B58C2403306405C9000443C9B299
S1134AB021708821920049050143D2B20A708022F4
S1134AC052051043037010BD8023012202305B05A0
S1134AD003430A401A708C235B051843082389009A
S1134AE0194001707047000004FEFF1F1B5B306D0E
S1134AF01B5B343B34336D1B5B313B33376D0D53E0
S1134B00616E69747920636865636B206661696CA2
S1134B106564211B5B306D0A001B5B306D1B5B34CD
S1134B203B34316D1B5B313B33376D0D496E766120
S1134B306C696420737570706C7920766F6C746125
S1134B406765205B25645D206D56211B5B306D0A13
S1134B5000426567696E6E696E67206D6561737585
S1134B6072656D656E747300494E4132313920436C
S1134B70757272656E742073656E736F72206461F2
S1134B8074612062656C6F77000A436F6D706C65A9
S1134B9074656420636F6E66696775726174696FAA
S1134BA06E20666F722063757272656E7420736511
S1134BB06E736F722E0A000A5374617274696E67A1
S1134BC0207468652043757272656E742053656E37
S1134BD0736F722050726F636573732E0A002575AC
S1134BE0000D0A094D4D413834353151205265616B
S1134BF0642041626F727465642E20446576696333
S1134C00652044697361626C6564203A28000D0A6A
S1134C100A424D4536383020526561642041626F46
S1134C20727465642E2044657669636520446973F3
S1134C3061626C6564203A28000D0A09424D5830BF
S1134C403535616363656C20526561642041626F30
S1134C50727465642E2044657669636520446973C3
S1134C6061626C6564203A2820000D0A09424D589F
S1134C703035356779726F20526561642041626F07
S1134C80727465642E204465766963652044697393
S1134C9061626C6564203A2820000D0A0920424DA7
S1134CA0583035356D616720526561642041626F0B
S1134CB0727465642E204465766963652044697363
S1134CC061626C6564203A2820000D0A094D414751
S1134CD03331313020526561642041626F727465F2
S1134CE0642E204465766963652044697361626C4F
S1134CF06564203A2820000D0A094C3347443230B9
S1134D004820526561642041626F727465642E208C
S1134D104465766963652044697361626C656420E7
S1134D203A2820000D0A094C505332354820526568
S1134D3061642041626F727465642E2044657669F3
S1134D4063652044697361626C6564203A282000BD
S1134D500D0A0954435333343732352052656164A4
S1134D602041626F727465642E20446576696365C0
S1134D702044697361626C6564203A2820000D0A3E
S1134D800953493437303520526561642041626FDC
S1134D90727465642E204465766963652044697382
S1134DA061626C6564203A2820000D0A0948444376
S1134DB03130303020526561642041626F72746515
S1134DC0642E204465766963652044697361626C6E
S1134DD06564203A2820000D0A09534937303231DE
S1134DE020526561642041626F727465642E2044B0
S1134DF065766963652044697361626C6564203A11
S1134E002820000D0A09434353383131205265618B
S1134E10642041626F727465642E20446576696310
S1134E20652044697361626C6564203A2820000D32
S1134E300A09414D473838333420526561642041B2
S1134E40626F727465642E204465766963652044DC
S1134E50697361626C6564203A2820000D0A094177
S1134E60533732363220526561642041626F727466
S1134E7065642E20446576696365204469736162C4
S1134E806C6564203A2820000D0A094153373236F4
S1134E903320526561642041626F727465642E2010
S1134EA04465766963652044697361626C65642056
S1134EB03A2820000D09496E76616C696420776197
S1134EC0727053656E736F72446576696365205BB7
S1134ED025645D2070617373656420746F2072654E
S1134EE07065617452656769737465725265616453
S1134EF0466F72446576696365416E6441646472A9
S1134F006573732E0A000D0A094144584C33363236
S1134F1020526561642041626F727465642E20447E
S1134F2065766963652044697361626C6564203ADF
S1134F3028000D09506F776572757020636F6D6D71
S1134F40616E64206661696C65642E20424D583040
S1134F5035352064697361626C6564200A000D094B
S1134F60506F776572646F776E20636F6D6D616EDD
S1134F7064206162616E646F6E65642E20424D58D8
S1134F803035352064697361626C65640A000D090B
S1134F90506F776572646F776E20636F6D6D616EAD
S1134FA064206162616E646F6E65642E204C3347C9
S1134FB0443230482064697361626C65640A000D90
S1134FC009506F776572646F776E20636F6D6D61E2
S1134FD06E64206162616E646F6E65642E2054435A
S1134FE05333343732352064697361626C65640A03
S1134FF0000A0A0A0D426F6F74696E672057617266
S1135000702C20696E20332E2E2E2000322E2E2E50
S11350102000312E2E2E0A0D000D0A0A0A0A5B20EA
S11350202A09090909570961097209700928726571
S1135030762E2062290909092A205D0A000D5B20C9
S1135040200909090920202020202043616D627273
S113505069646765202F2050687973636F6D706C85
S113506061622020200909090920205D0A0A000D37
S113507009537570706C793D25646D562C0944652F
S11350806661756C74205461726765742052656141
S1135090642052656769737465723D3078253032D7
S11350A0780A000D094932433D25646B622F732C45
S11350B0095350493D25646B622F732C09554152A5
S11350C0543D25646B622F732C094932432050757B
S11350D06C6C2D55703D25640A0A000D0953494D29
S11350E02D3E53434743363D307825303278090905
S11350F05254432D3E53523D3078253032780909BD
S11351005254432D3E5453523D3078253032780A60
S1135110000D094D43475F43313D307825303278E7
S11351200909094D43475F43323D307825303278D1
S113513009094D43475F533D3078253032780A00E2
S11351400D094D43475F53433D307825303278098C
S113515009094D43475F4D433D3078253032780986
S1135160094F53435F43523D3078253032780A006B
S11351700D09534D435F504D50524F543D307825E7
S1135180303278090909534D435F504D4354524C12
S11351903D30782530327809095343422D3E53433C
S11351A0523D3078253032780A000D09504D435F66
S11351B052454753433D3078253032780909095325
S11351C0494D5F53434743343D30782530327809A5
S11351D05254432D3E5450523D3078253032780A93
S11351E00A000D0925647320696E20525443204837
S11351F0616E646C657220746F2D646174652C0932
S1135200256420506D6772204572726F72730A00B4
S11352100D53656C6563743A0A000D2D20276127D0
S11352203A207365742064656661756C74207365D7
S11352306E736F722E0A000D2D202762273A207399
S1135240657420493243206261756420726174651B
S11352502E0A000D2D202763273A207365742053EE
S11352605049206261756420726174652E0A000DD4
S11352702D202764273A2073657420554152542009
S11352806261756420726174652E0A000D2D2027F9
S113529065273A207365742064656661756C7420B3
S11352A0726567697374657220616464726573738F
S11352B02E0A000D2D202766273A2077726974651F
S11352C0206279746520746F2073656E736F722E1B
S11352D00A000D2D202767273A2073657420646522
S11352E06661756C74205353535550504C592E0AB3
S11352F0000D2D202768273A20706F776572646F40
S1135300776E20636F6D6D616E6420746F20616CC5
S11353106C2073656E736F72732E0A000D2D202737
S113532069273A207365742070756C6C2D75702034
S1135330656E61626C652076616C75652E0A000D80
S11353402D20276A273A2072657065617420726582
S113535061642072656720307825303278206F6E62
S11353602073656E736F72202325642E0A000D2D41
S113537020276B273A20736C65657020756E7469FD
S11353806C2072657365742E0A000D2D20276C271E
S11353903A2073656E64207265706561746564207B
S11353A062797465206F6E204932432E0A000D2DF8
S11353B020276D273A2073656E64207265706561DD
S11353C07465642062797465206F6E205350492E91
S11353D00A000D2D20276E273A20656E61626C65E8
S11353E0205353535550504C592E0A000D2D20274D
S11353F06F273A2064697361626C65205353535577
S113540050504C592E0A000D2D202770273A207336
S1135410776974636820746F20564C5052206D6F06
S113542064652E0A000D2D202772273A20737769B0
S113543074636820746F2052554E206D6F64652E1E
S11354400A000D2D202773273A20706F776572208C
S1135450757020616C6C2073656E736F72732E0AA5
S1135460000D2D202774273A2064756D702070720A
S11354706F636573736F722073746174652E0A00B1
S11354800D2D202775273A20736574204932432057
S1135490616464726573732E0A000D2D20277827CA
S11354A03A2064697361626C652053574420616ECD
S11354B064207370696E20666F72203130207365CA
S11354C063732E0A000D2D20277A273A2064756D08
S11354D07020616C6C2073656E736F7273206461ED
S11354E074612E0A000D456E7465722073656C65D7
S11354F06374696F6E3E20000D0953656C656374B7
S11355003A0A000D092D20273127204144584C33F5
S11355103632202020202020202020202020283047
S11355207830302D2D30783244293A20312E3656B9
S1135530202D2D20332E35562028636F6D70696C15
S11355406564206F757429200A000D092D20273207
S11355502720424D58303535616363656C20202027
S113556020202020202028307830302D2D30783312
S113557046293A20322E3456202D2D20332E3656ED
S11355802028636F6D70696C6564206F75742920C1
S11355900A000D092D2027332720424D5830353578
S11355A06779726F202020202020202020202020B6
S11355B028307830302D2D30783346293A20322E59
S11355C03456202D2D20332E36562028636F6D70CF
S11355D0696C6564206F757429200A000D092D20FB
S11355E027342720424D583035356D6167202020FF
S11355F020202020202020202028307834302D2DF9
S113560030783532293A20322E3456202D2D20334D
S11356102E36562028636F6D70696C6564206F7533
S11356207429200A000D092D20273527204D4D41CE
S113563038343531512020202020202020202020E3
S11356402028307830302D2D30783331293A2031EC
S11356502E393556202D2D20332E36562028636FB3
S11356606D70696C6564206F757429200A000D09DA
S11356702D20276E2720494E413231392020202009
S1135680202020202020202028307830302D2D305C
S1135690783331293A20312E393556202D2D2033B7
S11356A02E36560A000D092D20273627204C50533C
S11356B0323548202020202020202020202020288F
S11356C0307830382D2D30783234293A20312E3745
S11356D056202D2D20332E36562028636F6D706989
S11356E06C6564206F757429200A000D092D20272C
S11356F03727204D414733313130202020202020CE
S113570020202020202028307830302D2D30783172
S113571031293A20312E393556202D2D20332E367D
S1135720562028636F6D70696C6564206F757429E9
S1135730200A000D092D2027382720484443313002
S1135740303020202020202020202020202028301D
S11357507830302D2D30783146293A20332E30568A
S1135760202D2D20352E30562028636F6D70696CE6
S11357706564206F757429200A000D092D202739CE
S11357802720534937303231202020202020202068
S11357902020202028307830302D2D3078304629B4
S11357A03A20312E3956202D2D20332E36562028DE
S11357B0636F6D70696C6564206F757429200A00CD
S11357C00D092D20276127204C33474432304820CF
S11357D0202020202020202020202028307830461F
S11357E02D2D30783339293A20322E3256202D2D62
S11357F020332E36562028636F6D70696C656420E3
S11358006F757429200A000D092D20276227204274
S11358104D453638302020202020202020202020F4
S11358202028307841412D2D30784638293A2031CE
S11358302E3656202D2D20332E36562028636F6D9C
S113584070696C6564206F757429200A000D092D38
S11358502027642720544353333437323520202003
S113586020202020202020202028307830302D2D8A
S113587030783144293A20322E3756202D2D2033CA
S11358802E33562028636F6D70696C6564206F75C4
S11358907429200A000D092D202765272053493437
S11358A037303520202020202020202020202028B0
S11358B06E2F61293A2020202020202020322E37EC
S11358C056202D2D20352E35562028636F6D706996
S11358D06C6564206F757429200A000D092D20273A
S11358E066272050414E313332362020202020209C
S11358F0202020202020286E2F61292028636F6D0E
S113590070696C6564206F757429200A000D092D77
S1135910202767272043435338313120202020207B
S11359202020202020202028307830302D2D307861
S11359304646293A20312E3856202D2D20332E3636
S1135940562028636F6D70696C6564206F757429C7
S1135950200A000D092D2027682720414D4738389B
S113596033342020202020202020202020202830F4
S11359707830302D2D3F293A203F56202D2D203FC1
S1135980562028636F6D70696C6564206F75742987
S1135990200A000D092D20276A272041533732366B
S11359A03220202020202020202020202028307871
S11359B030302D2D30783242293A20322E3756207D
S11359C02D2D20332E36562028636F6D70696C653B
S11359D064206F757429200A000D092D20276B2778
S11359E0204153373236332020202020202020200D
S11359F020202028307830302D2D30783242293A3A
S1135A0020322E3756202D2D20332E365620286353
S1135A106F6D70696C6564206F757429200A000DC0
S1135A2009456E7465722073656C656374696F6E85
S1135A303E20000D09496E76616C69642073656CC3
S1135A40656374696F6E202725632720210A000D82
S1135A500A095365742049324320626175642072D7
S1135A6061746520696E206B6270732028652E67EF
S1135A702E2C20273030303127293E20000D0A09F2
S1135A8049324320626175642072617465207365D4
S1135A907420746F202564206B622F73000D0A0933
S1135AA05365742053504920626175642072617497
S1135AB06520696E206B6270732028652E672E2C1A
S1135AC020273030303127293E20000D0A09535059
S1135AD049206261756420726174653A20256420EE
S1135AE06B622F73000D0A0953657420554152549B
S1135AF02062617564207261746520696E206B6236
S1135B0070732028652E672E2C20273030303127E3
S1135B10293E20000D0A09554152542062617564E2
S1135B2020726174653A202564206B622F73000D26
S1135B300A09456E74657220322D6E7962626C6555
S1135B402072656769737465722068657820616482
S1135B5064726573732028652E672E2C20273365A5
S1135B6027293E20000D0A09456E7465726564207C
S1135B705B3078253032785D2E0A0A000D0A09451B
S1135B806E7465722049324320616464722E202849
S1135B90652E672E2C202730662729206F72202738
S1135BA039392720666F7220535049203E20000D5A
S1135BB00A09456E7465726564205B30782530325D
S1135BC0785D2E0A000D0A09456E746572206865B9
S1135BD078206279746520746F2073656E64202860
S1135BE0652E672E2C2027306627293E20000D0ABB
S1135BF009535049207772697465206661696C6540
S1135C00642E204144584C33363220446973616217
S1135C106C6564000D0A0949324320777269746522
S1135C20206661696C65642C206572726F72202530
S1135C30642E0A0A000D0A094F766572726964655A
S1135C40205353535550504C5920696E206D5620A3
S1135C5028652E672E2C20273138303027293E2006
S1135C60000D0A094F7665727269646520535353B7
S1135C705550504C592073657420746F202564204E
S1135C806D56000D0A094E4F54453A204669727309
S1135C907420706F7765722073656E736F727320F2
S1135CA0616E6420656E61626C65204932430A0A44
S1135CB0000D0A0944656661756C742070756C6C1E
S1135CC0757020656E61626C652076616C75652007
S1135CD0696E206B696C6F4F686D732028652E6741
S1135CE02E2C20273030303027293E20000D0A0981
S1135CF049326350756C6C757056616C75652073B0
S1135D00657420746F2025640A000D0A09417574B6
S1135D106F2D696E6372656D656E742066726F6D4A
S1135D2020626173652061646472657373203078E6
S1135D30253032783F205B273027207C20273127ED
S1135D405D3E20000D0A094368756E6B2072656123
S1135D5064732070657220616464726573732028B3
S1135D60652E672E2C20273127293E20000D0A0995
S1135D704368617474793F205B273027207C202797
S1135D8031275D3E20000D0A09496E7465722D6F3E
S1135D907065726174696F6E207370696E206465DA
S1135DA06C617920696E206D696C6C697365636FD1
S1135DB06E64732028652E672E2C202730303030F7
S1135DC027293E20000D0A095265706574697469BB
S1135DD06F6E7320706572206164647265737320E2
S1135DE028652E672E2C20273030303027293E207E
S1135DF0000D0A094D6178696D756D20766F6C74BC
S1135E0061676520666F722061646170746976658C
S1135E1020737570706C792028652E672E2C2027CE
S1135E203030303027293E20000D0A09526566655E
S1135E3072656E6365206279746520666F72206393
S1135E406F6D70617269736F6E732028652E672E93
S1135E502C2027336527293E20000D0A095265703E
S1135E60656174696E67206465762564204020301E
S1135E7078253032782C20726570733D25642C208F
S1135E8070756C6C3D25642C2064656C61793D25CE
S1135E90646D733A0A0A000D0A09536C65657069EA
S1135EA06E6720756E74696C2073797374656D20E8
S1135EB072657365742E2E2E0A000D0A09427974D8
S1135EC06520746F2073656E642028652E672E2C00
S1135ED02027463027293E20000D0A0952657065A7
S1135EE0746974696F6E732028652E672E2C2027C1
S1135EF03030303027293E20000D0A0953656E6486
S1135F00696E672025642072657065746974696FB1
S1135F106E73206F66205B3078253032785D206F99
S1135F206E204932432C2069326350756C6C757055
S1135F30456E61626C653D25642C20535353555066
S1135F40504C593D25646D560A0A000D0A095365E3
S1135F506E64696E67202564207265706574697467
S1135F60696F6E73206F66205B3078253032785D00
S1135F70206F6E205350492C205353535550504C8E
S1135F80593D25646D560A0A000D0A0943616E6E77
S1135F906F742073657420493243206164647265B0
S1135FA073733A204669727374207365742074683D
S1135FB0652064656661756C7420493243206465AC
S1135FC0766963652E0A000D0A0953657420493207
S1135FD0432061646472657373206F66207468651E
S1135FE02073656C65637465642073656E736F728A
S1135FF028652E672E2C2027314327293E20000DAB
S11360000A095370696E6E696E6720666F7220317B
S113601030207365636F6E64732E2E2E0A000D0993
