S02B00002F55736572732F6861727279686F72736C65792F344232352F576172702D6669726D776172652F6248
S113000000060020E90400001105000011050000AD
S113001000000000000000000000000000000000DC
S113002000000000000000000000000011050000B6
S11300300000000000000000110500001105000090
S11300401105000011050000110500001105000054
S11300501105000011050000110500001105000044
S1130060012B0000110500000B2B000011050000FE
S11300701105000011050000110500001105000024
S11300801105000011050000110500001105000014
S11300901105000011050000110500001105000004
S11300A011050000110500001105000011050000F4
S11300B011050000110500001105000011050000E4
S1130400FFFFFFFFFFFFFFFFFFFFFFFFFE3DFFFFBB
S113041010B5064C2378002B07D1054B002B02D0D6
S1130420044800E000BF0123237010BD70FEFF1FCD
S1130430000000004447000008B5084B002B03D01F
S11304400748084900E000BF07480368002B03D0B1
S1130450064B002B00D0984708BDC04600000000A2
S11304604447000074FEFF1F6CFEFF1F00000000E5
S1130470164B002B00D1144B9D46402292029A1A2F
S1130480924600218B460F461348144A121A03F071
S1130490AAFD0F4B002B00D098470E4B002B00D029
S11304A098470020002104000D000D48002802D0C8
S11304B00C4800E000BF03F067FD2000290001F0B4
S11304C0C3FC03F04BFDC0460000080000060020FA
S11304D0000000000000000070FEFF1FA4000020C8
S11304E0000000000000000072B606480649074AF2
S11304F002600A6002F00EFB02F04EFB62B6FFF7E8
S1130500B7FF000080E100E080E200E0FFFFFFFFB2
S1130510004800471105000003B471464908400033
S11305204900095A49008E4403BC7047002934D05D
S11305300123002210B488422CD301242407A142B1
S113054004D2814202D209011B01F8E7E400A1426E
S113055004D2814202D249005B00F8E7884201D309
S1130560401A1A434C08A04202D3001B5C082243E1
S11305708C08A04202D3001B9C082243CC08A04252
S113058002D3001BDC082243002803D01B0901D03E
S11305900909E3E7101C10BC7047002801D00020B3
S11305A0C04307B4024802A14018029003BDC046EC
S11305B0D90000000029F0D003B5FFF7B9FF0EBC45
S11305C04243891A1847C046002941D010B4041C7C
S11305D04C40A44601230022002900D549420028AA
S11305E000D5404288422CD301242407A14204D2DE
S11305F0814202D209011B01F8E7E400A14204D2BE
S1130600814202D249005B00F8E7884201D3401AD4
S11306101A434C08A04202D3001B5C0822438C08F6
S1130620A04202D3001B9C082243CC08A04202D360
S1130630001BDC082243002803D01B0901D0090950
S1130640E3E7101C6446002C00D5404210BC704700
S1130650002806D003DB0020C043400801E08020CE
S1130660000607B4024802A14018029003BDC04628
S1130670190000000029EBD003B5FFF7A7FF0EBC5B
S11306804243891A1847C0467047C0468446081C2E
S11306906146FFE71FB500F021FA002801D40021CC
S11306A0C8421FBD10B500F0A7F94042013010BD8B
S11306B010B500F013FA002801DB002010BD012062
S11306C010BDC04610B500F009FA002801DD002075
S11306D010BD012010BDC04610B500F0B7F90028C8
S11306E001DC002010BD012010BDC04610B500F093
S11306F0ADF9002801DA002010BD012010BDC0466C
S11307009E2110B5C905041CFFF7F0FF002803D192
S1130710201C00F09FFB10BD9E21C905201C00F089
S113072029FA00F097FB80231B06C018F3E7C046A4
S1130730F8B543024400C50F4E024800240E2A1C9B
S11307409B09000EC90FB6098D4256D0221A002A01
S113075000DC83E000281AD1002E00D06FE0580797
S113076004D00F221A40042A00D00433590137D58B
S11307700134FF2C00D17DE09B015B0AE0B22A1C0E
S11307805B02C405580AD20720431043F8BDFF2C6E
S1130790E5D08021C9040E431B2A00DD27E1311C6A
S11307A02020D140821A9640721E96410E439B1B14
S11307B05801D4D59B019F09381C01F089FA421FC6
S11307C0974094425ADC141B1F231B1B3A1C9F4066
S11307D0611C3B1CCA405F1EBB4113430024BEE79F
S11307E0DB08E0B22A1CFF2C04D1002B79D0802135
S11307F0C9030B435B025B0AC2E7211A002941DDEE
S1130800002822D0FF2CAAD08020C00406431B2934
S113081000DDEAE0301C2027C840791A8E40711EA2
S11308208E4106439B19590199D50134FF2C57D0A9
S1130830704901221A400B405B0813438FE7013AC9
S1130840002AB4D0FF2CA7D189E7002E00D186E777
S113085001390029E6D0FF2CD9D180E7002A1DD127
S1130860621CD2B2012A4DDD9F1B7A0125D5F71AED
S11308700D1CA1E72A1CFF20002381E75D4BA41A6D
S11308803B406CE7002946D1611CC8B201282ADD2F
S1130890FF2925D0F3185B080C1C60E7002C13D04B
S11308A0FF2818D08024E404524223431B2A4DDD40
S11308B00123F31A041C0D1C7AE7002F00D07BE7F8
S11308C000220020002395E7002B3BD0D243002ACE
S11308D0EFD0FF28EAD1331CFF240D1C3FE7002290
S11308E0FF2000234CE7002C5AD1002B77D0002E98
S11308F000D134E79B19580100D430E73D4A012464
S113090013402CE7002C15D1002B2FD1002ED7D06B
S1130910331C0D1C23E7002C21D1002B53D0C943D9
S1130920002904D0FF284BD01B294FDD01239B193C
S1130930041C78E7002B22D1002ED0D0331C0D1CD0
S1130940FF240CE7331C041C0D1C08E71C1C202589
S1130950D440AA1A93405A1E93412343A9E7FF287F
S11309602ED08024E40449422343DDE7002E00D145
S1130970F5E69A1B500134D5F31A0D1CEFE6FF245B
S1130980002E00D1EBE68022DB08D203134204D010
S1130990F608164201D1331C0D1CDB00FF24DEE6F1
S11309A0002B0DD0FF24002E00D1D8E68022DB08D6
S11309B0D2031342F1D0F6081642EED1331CECE711
S11309C0331CFF24CBE6331C041CC8E61C1C202764
S11309D0CC40791A8B40591E8B412343A7E7331C23
S11309E0BDE6131E00D0BAE66AE701261AE701261F
S11309F0DDE6C046FFFFFFFB4A02430270B55C0A16
S1130A00550A43004A001B0EC60F120EC90FFF2BD6
S1130A1005D0FF2A08D0012093420BD070BD0120DD
S1130A20002CFBD1FF2AF6D10120002DF6D10120A4
S1130A309342F3D1AC42F1D18E4205D0002BEDD1DB
S1130A40201C441EA041E9E70020E7E74A024302D4
S1130A50F0B55C0A550A43004A001B0EC60F120E7D
S1130A60C90FFF2B31D0FF2A34D0002B16D160429E
S1130A7060418446002A14D0002820D18E4217D128
S1130A80934215DC04DBAC4212D80020AC4212D2F3
S1130A90704270414042012318430CE0002AEDD11A
S1130AA094466F426F416046002805D1002FE5D07F
S1130AB0704201231843F0BD0020002FFBD14842AF
S1130AC04841404201231843F5E7002CCBD00220D3
S1130AD04042F0E7002DC8D0F9E7C0464A0243027D
S1130AE0F0B55C0A550A43004A001B0EC60F120EED
S1130AF0C90FFF2B27D0FF2A29D0002B10D0002AA2
S1130B0015D194466F426F416046002815D00020ED
S1130B10002F04D148424841404201231843F0BD0C
S1130B20604260418446002AECD00028F2D18E4213
S1130B3011D0704201231843F1E7002FF7D070421F
S1130B4001231843EBE70220002CE8D1D3E702206D
S1130B50002DE4D1D1E79342EBDC04DBAC42E8D8CE
S1130B600020AC42DBD27042704140420123184362
S1130B70D5E7C046F8B5C20F430244004D02480011
S1130B80240E161C9B09000EC90FAD09FF2800D1C5
S1130B907EE0012779408A4258D0221A002A00DCDC
S1130BA089E000281BD1002D00D075E0580704D03F
S1130BB00F221A40042A00D00433590138D50134D5
S1130BC0FF2C00D183E09B0101225B0AE0B232409A
S1130BD05B02C405580AD20720431043F8BDFF2C1A
S1130BE0E4D08021C9040D431B2A00DD2DE1291C1A
S1130BF02020D140821A95406A1E95410D435B1B0B
S1130C005801D3D59B019F09381C01F061F8421F9C
S1130C109740944260DC141B1F231B1B3A1C9F400B
S1130C20611C3B1CCA405F1EBB4113430024BDE74B
S1130C300122DB08E0B23240FF2C04D1002B7ED02D
S1130C408021C9030B435B025B0AC1E7211A002917
S1130C5046DD002826D0FF2CA8D08020C004054300
S1130C601B2900DDEFE0281C2027C840791A8D409D
S1130C70691E8D4105435B19590197D50134FF2C39
S1130C805CD0734901221A400B405B0813438DE783
S1130C90002D00D07FE77CE7013A002AAFD0FF2C7B
S1130CA0A2D183E7002D00D180E701390029E2D0E9
S1130CB0FF2CD5D17AE7002A1ED1621CD2B2012AB8
S1130CC04EDD5F1B7A0126D5EF1A0E1C9CE701222C
S1130CD03240FF2000237BE75D4BA41A3B4065E7CD
S1130CE0002946D1611CC8B201282ADDFF2925D07C
S1130CF0EB185B080C1C59E7002C13D0FF2818D004
S1130D008024E404524223431B2A4DDD0123EB1AC1
S1130D10041C0E1C74E7002F00D075E7002200208D
S1130D20002390E7002B3BD0D243002AEFD0FF28CA
S1130D30EAD12B1CFF240E1C38E70022FF200023DD
S1130D4046E7002C5AD1002B77D0002D00D12DE797
S1130D505B19580100D429E73D4A0124134025E7D3
S1130D60002C15D1002B2FD1002DD7D02B1C0E1CFD
S1130D701CE7002C21D1002B53D0C943002904D0F7
S1130D80FF284BD01B294FDD01235B19041C73E79B
S1130D90002B22D1002DD0D02B1C0E1CFF2405E7E4
S1130DA02B1C041C0E1C01E71C1C2026D440B21A68
S1130DB093405A1E93412343A9E7FF282ED0802451
S1130DC0E40449422343DDE7002D00D1EEE65A1B3B
S1130DD0500134D5EB1A0E1CE8E6FF24002D00D197
S1130DE0E4E68022DB08D203134204D0ED08154266
S1130DF001D12B1C0E1CDB00FF24D7E6002B0DD0E9
S1130E00FF24002D00D1D1E68022DB08D203134257
S1130E10F1D0ED081542EED12B1CECE72B1CFF247E
S1130E20C4E62B1C041CC1E61C1C2027CC40791AE8
S1130E308B40591E8B412343A7E72B1CB6E6131E98
S1130E4000D0B3E66AE7012515E70125D7E6C046D9
S1130E50FFFFFFFB4302590A4300C20F1B0E002091
S1130E607E2B0DDD9D2B0CDC802000040143952B93
S1130E700ADC9620C31AD9404842002A00D1081C33
S1130E807047034BD018FBE7963B9940F4E7C04604
S1130E90FFFFFF7FF8B55F46564644464D46F0B423
S1130EA00C034D00CE0F610A440F2143C400180304
S1130EB080465800400D8246D80F84464046400A7A
S1130EC0530F0343D0006D0D371C834652466645CD
S1130ED000D19DE0AF1A002F00DC03E1002A38D1D5
S1130EE0184300D0E4E0630709D00F232340042B08
S1130EF005D0231DA342A441644209191C1C080205
S1130F0000D478E0CE4B6A1C9A4200D105E1CD4B67
S1130F10E408194048075205490204430B0B520DDB
S1130F20371C002000211B03201C1C0B0B0D1B0570
S1130F30C54D2343520552081D4015436D006D08ED
S1130F40FF07291C39433CBC90469946A246AB4650
S1130F50F8BDBB488542C6D0802000040343382F27
S1130F6000DDECE01F2F00DD20E12020C01B1A1C57
S1130F70814682405846F8400243944658464A46C1
S1130F809040421E9041FB40624602431F1CA21A3D
S1130F909442A4416442C91B091B141C0B02A2D530
S1130FA049024F0A002F00D1C4E0381C00F090FE23
S1130FB0021C083A1F2A00DDB7E02821091A201C68
S1130FC09740C84007439440954200DDA9E0551B73
S1130FD0691C1F2900DDD8E01F22551B3B1C221C65
S1130FE0AB40CA40AC40651EAC411343CF401C43E8
S1130FF0391C002577E74807E4086A05C908520D3B
S1131000371C04438E4B9D4248D009030B0B88E7E1
S1131010AA1A9446002A00DC98E05046002853D0CF
S11310208748854200D15EE780200004034362467E
S1131030382A00DDFDE01F2A00DD4BE12022604656
S1131040101A1A1C82408246914658466246D04085
S11310504A4602439046584652469040421E9041AA
S1131060424602436046C3401219A242A44164426C
S113107059180919141C080200D434E7704B0135BF
S11310809D4200D124E16F4B6008194001232340A5
S11310901C1C0443CB071C43490824E70B1C2343B3
S11310A000D1C7E180231B030B431B031B0B38E751
S11310B0013F002F64D15846221A9442A44164424D
S11310C0C91A091B141C69E75846184300D10AE7DA
S11310D00122524294446046002800D0C5E058469C
S11310E00219C2E7002F72D1681C4005400D012887
S11310F000DCDEE05A46A21A9442BF41C81A7F427D
S1131100C71B380200D488E05A46141BA3459241F9
S1131110591A52428F1A664644E7371C00230024AA
S1131120FFE64849AD1A3940DDE6271C28388740D8
S1131130002449E7201C00F0CBFD203038E75A4654
S11311401A43531E9A41D2B2002720E7002A00D046
S1131150DDE0681C4205520D012A00DC8EE0384DAA
S1131160A84200D1B3E05D462A19A242A4416442D8
S113117059180919CC07520814434908051CB2E64A
S11311802F48854200D0EAE6ADE62B1C1F3B3A1CF3
S1131190DA40131C20296DD03F22551BAF403C433D
S11311A0601E84411C43002100259CE6381C203825
S11311B01A1CC240101C202F5ED04022D71BBB40FB
S11311C05A461A43531E9A4102430027DFE6002D74
S11311D03CD01B4DAA4500D194E080252D047F42CC
S11311E02943382F00DDADE01F2F00DD2CE1202541
S11311F0ED1B081C261CA840FE40AC400643651E9F
S1131200AC413443F9405D462C1BA34592415B1A23
S11312105242991A55466646C0E6131C3B43141CB9
S1131220002B00D0BEE60027002200250021002468
S1131230E8E65A461A43531E9A41D2B2002313E7F2
S1131240FF070000FFFF7FFFFFFF0F800D1C2543FA
S113125058D0FF43002F51D1041BA3459241591A82
S11312605242891A5546664698E69648854200D009
S1131270DDE638E6002792E70023A1E7081C2043B7
S1131280002D00D0C0E0002800D1FBE058461843F0
S113129000D128E658460219A242A44164425918D2
S11312A00919141C0A0200D41DE6874B01251940B4
S11312B019E6081C2043002D39D100286DD1594668
S11312C0194300D1BDE0191C5C4666460BE6051CBB
S11312D02A1CABE7604620381A1CC240604691467F
S11312E0202800D1ABE04022121A93405A461A43F8
S11312F0531E9A414B461A430023B5E6714DAA4545
S113130000D06EE7191C5C4655466646EBE5002D99
S11313101ED10D1C254373D0D543002D6DD15C44E3
S11313205C4592415918524289185546A3E6002853
S113133049D15946194300D196E0191C5C466646CA
S1131340604DD0E50C43611E8C41E4B200215AE7A4
S11313505C4DAA4554D05542802210040143382DD7
S113136000DD85E01F2D00DD95E02022501B0A1CC6
S113137084468240201CE8400243904662469440E2
S1131380601E844142461443E9405C445C459241FA
S1131390CB185242991855466DE65846184300D169
S11313A0A1E55846271ABC429241C81A5242801AF3
S11313B002026AD55846041BA3459241591A524267
S11313C0891A66468FE55846184336D04807E4081C
S11313D004438020C9080003014208D0DD08054207
S11313E005D15946CA085C071443291C6646630F95
S11313F0C9001943E400334D75E5324A9245AED134
S1131400191C5C4655466EE5002837D058461843EB
S113141013D080254807E408C9082D030443294252
S1131420E5D0D8082842E2D15D46EA085C071443B7
S1131430011CDCE70023002473E5224D53E500235F
S113144054E700270022F1E63D1C203D0A1CEA4037
S1131450151C202F31D04026F71BB9400C43611EC8
S11314608C412C430021CEE6164A0027151CDDE6EC
S11314700C43611E8C41E4B2002186E7191C5C46D2
S1131480104D30E5191C5C462DE5031C3B43D8D0B8
S1131490011C3C1C27E52020404240190A1CC24084
S11314A09046202D0BD04020451BA9400C43611EC3
S11314B08C4145462C43002167E70021CEE70021FB
S11314C0F4E7C046FF070000FFFF7FFFF0B5564674
S11314D044465F464D46F0B41F1C0B031B0B984655
S11314E04B0087B0041C81465B0DC80F161C9A463E
S11314F00090002B51D06A4B9A4531D0802241464E
S113150052030A43630FD2001A43664B90460025E8
S1131510E20091469A44002402953B031B0B9B4630
S1131520FD0F7B00311C5B0D019560D05C4A93423A
S113153054D08021584649030143720FC900114316
S1131540584A8B469B18F1000020009A04436A40D5
S113155003920F2C00D9ADE0534EA4003459A74692
S1131560404604436ED1002102250824884689465A
S11315700295D2E7009C0298C3464946019402288A
S113158064D0032800D1ABE2012800D038E2019AEC
S1131590002402400025A14660E0434623434AD08C
S11315A04046002800D1C0E100F092FB031E272B27
S11315B000DDB3E128210D1A211C083B4246E94015
S11315C09A400D1C1543221C9A40A8469146374B5D
S11315D000251B1A9A46002402959EE75A46164394
S11315E00320002EB1D1B34600210220ADE75A46B4
S11315F032431BD05B46002B00D18AE1584600F0F1
S113160067FB272800DD7DE12822171A011C321C04
S113161008395B46FA408B40171C1F43331C8B4030
S1131620BB46191C214B1B1A00208EE70027BB4622
S11316300021012089E700200125042480468146F9
S113164002956AE703250C24029566E7019C03943E
S1131650039D01222A400024114DA14600200021AF
S11316602403260B0C0D2405114B34432D05234074
S11316702B435B005B08D207191C4846114307B093
S11316803CBC90469946A246AB46F0BD002280245D
S113169024039146024DE1E700240025A146DDE73D
S11316A0FF07000001FCFFFF244000000DFCFFFFCA
S11316B0FFFF0F805546ED1A0495D84500D953E134
S11316C000D14EE1049C0025013C4E46049447465B
S11316D0A946584603020C0E1C430902250C230498
S11316E01B0C0091381C291C0193FEF71FFF019964
S11316F083464143381C8A46291CFEF75BFF330CA2
S1131700090419438A450CD95B460919013B8C42EB
S113171000D947E18A4500D844E102225242934469
S113172009195346CB1A181C291C9846FEF7FEFECD
S1131730071C0198291C784382464046FEF73AFF6D
S113174036040B04360C33439A4509D91B197A1E07
S11317509C4200D924E19A4500D821E1023F1B199B
S11317605E4632041743380CBB46009E009F514628
S11317703F0C32045B1A5946BA46120C0F043F0C54
S1131780904651467A434F4341464143564670433F
S1131790CF19160CBE19B14202D980277F02C01995
S11317A0310C12043604120C4018B618834200D2CD
S11317B0C4E000D1BEE0191A4846861BB145BF41BA
S11317C07F42CF1BA74200D113E1291C381CFEF72E
S11317D0ADFE019902904143381C8946291CFEF74D
S11317E0E9FE330C0904194389450CD9029B0919F4
S11317F0013B8C4200D9FFE0894500D8FCE0029F00
S11318000919023F02974F46CF1B381C291C059724
S1131810FEF78CFE071C0198291C78438146059825
S1131820FEF7C8FE36040904360C0E43B14509D947
S113183036197B1EB44200D9E0E0B14500D8DDE0A2
S1131840023F3619029D4946761A290439430B048E
S113185057460A0C1B0C40464546584355437B43A8
S11318607A43EB18070CDB199D4202D980256D02DF
S113187052191D0C00041B04000C52191B1896422B
S113188035D300D1FCE001231943049E994FF51987
S1131890002D00DCA1E0480709D00F230B40042BE6
S11318A005D00B1D8B42894149428B44191C5A4671
S11318B0D20107D5904B5C46049E80271C40FF0054
S11318C0A346F5198D4B9D427ADD039C01222240EB
S11318D000248B4DA146C1E68024240347462742B9
S11318E04CD13C432403240B009A854DB6E63619AB
S11318F0481EB4425ED9011C9642C4D1009E9E4249
S1131900C1D1C2E7031C283B311C99408B460021FE
S113191088E6301C00F0DCF9203072E6283B211CFC
S1131920994000228846914651E6201C00F0D0F9E7
S113193020303BE60021B14500D33DE7009F5A46E5
S1131940B944B945BF417F423F19FB18013A9C4253
S11319501ED2984200D97EE000D1B5E0191A934610
S11319602AE7894500D8ADE6484646464246770808
S1131970D3074608C0071E438146AAE658462042BC
S113198012D1044324032A1C240B89465C4D65E6CA
S1131990A342E3D1009F4F45DBD9211A93460BE7BD
S11319A0171CDDE69B46BCE63C432403240B009A4B
S11319B0534D53E6B24259D800D18AE0011C62E784
S11319C05F46C9087B07039E0B437C026D05012219
S11319D09946240B6D0D324040E64A4B049FDB1BB5
S11319E0382B10DD039C0122224000240025A1464F
S11319F034E60121494248E7029304E71F1C21E72A
S1131A00019C039441E71F2B40DC3F48049F0C1CBE
S1131A103A1858469140DC40904020430A1C511E1D
S1131A208A41011C11435A46DA40131C480709D065
S1131A300F220A40042A05D00A1D8A4289414942DC
S1131A405B18111C1A0234D5039C01222240002485
S1131A500125A14602E6009F02214942B9448B4474
S1131A60B945894149420919CB18A4E6009D881E4D
S1131A706900A942AD416D422C19361900913AE72B
S1131A80002B00D033E70024009437E71F4A049C5E
S1131A905D46121BD5402A1C202B1FD01C4E5F46CE
S1131AA0A3199F403B1C19434B1E9941114300232A
S1131AB0BCE75A07C9080A43039F91465B02012207
S1131AC01C0B3A400025C9E54E45C4D89346002175
S1131AD072E6009F9F42C9D3011C0FE70023E2E78F
S1131AE0802424035F463C432403240B019A894643
S1131AF0034DB3E5FF030000FFFFFFFEFE070000F8
S1131B00FF07000002FCFFFF1E040000E2FBFFFFD2
S1131B103E04000043001B0E5A1C4102D2B270B5B1
S1131B204C0AC50F012A17DDE02292006407090B55
S1131B309818002200231E0D221C34050C431B4957
S1131B40400540082140014349004908ED070B1CAA
S1131B502B43101C191C70BD002B15D1002C1CD05C
S1131B60201C00F0B5F80A281ADC0B21091A231CE2
S1131B70CB40191C031C15339C400D4B0903181A48
S1131B804005090B400DD4E7002C03D06407090B72
S1131B900848CEE707480021CBE700200021C8E72A
S1131BA0011C0B398C40211C0024E6E7FFFF0F8049
S1131BB089030000FF070000F0B54B000D03420F3E
S1131BC05B0D6D0A15435A1C5205CC0FC600520D0D
S1131BD0012A27DD394FDA19FE2A1ADC002A35DDFD
S1131BE08001ED00431E98412843760F304343079C
S1131BF004D00F230340042B00D004308021C904F7
S1131C00014027D00132FF2A1DD083015B0AD1B2E3
S1131C1001E0FF2100235802C905400AE4070843F4
S1131C202043F0BD002B06D1354311D10021002003
S1131C3043025B0AEFE72E43EBD08020ED008004E3
S1131C402843FF22D3E7FF210023E4E717320DDA0C
S1131C5005200022C008D1B2FF2AE9D10028D9D03A
S1131C608023DB0303435B025B0AD4E7802214492D
S1131C7012041543C91A1F290DDC124A371C9B187C
S1131C80281C9F4098403B1C5A1E93411843CE4049
S1131C9030430022ABE70C4F2A1CFF1AFA40171CF2
S1131CA0202909D0094A98188540281C3043461E2B
S1131CB0B041384300229AE70020F7E780FCFFFF99
S1131CC09E03000082FCFFFF7E030000A2FCFFFFD6
S1131CD01C2101231B04984201D3000C10391B0A58
S1131CE0984201D3000A08391B09984201D300091C
S1131CF0043902A2105C40187047C0460403020273
S1131D0001010101000000000000000008B50020EE
S1131D1001F0DEF9054A80239B001360044A002089
S1131D201360044901F0E4FA08BDC0460CA0145441
S1131D3010A014548CFEFF1F07B5094B802292009B
S1131D401A6000210622684602F04DF90020694617
S1131D5001F026FF012100200A1C01F06BFF07BDE2
S1131D602CA014540F4B802252000C2010B5FF30CD
S1131D701A6001F0DDF90A2001F011F9092C0FDCD9
S1131D800C20FF3001F0C6F9012001F008F90C2005
S1131D90FF3001F0CDF9122001F001F90134EDE733
S1131DA010BDC0462CA0145438B5FFF7B3FE114B38
S1131DB00F4AFFF78BFB104A104BFFF76BF8FFF746
S1131DC0FBFE0C25FF35041C281C01F0A3F9201C84
S1131DD0FEF796FC01F0E3F8281C01F0A9F9211C98
S1131DE00748FEF7C7FEFEF78BFC01F0D8F838BDB4
S1131DF00000000000806640000000000000F03F8A
S1131E000000A041C046C04670B500F07CFC061C32
S1131E1000F079FC051C00F076FC041C00F073FC57
S1131E20FF231E40FA2292001D40303E56431C40C0
S1131E306422303D5543303C0A2254437519034013
S1131E402C19303BE01870BDF0B5002089B001F0CA
S1131E5037F9012001F034F9CA4B802212021A60CA
S1131E6001F0AEF800200123021C0093011C031CA6
S1131E7000F050FCC449002000F02AFCC82001F006
S1131E808EF8C249002000F023FCC82001F087F836
S1131E90BF49002000F01CFCC82001F080F800209D
S1131EA0FFF734FF0820FF3001F034F9C82001F0B7
S1131EB076F80820FF3001F03BF9C82001F06FF8F4
S1131EC00820FF3001F026F9C82001F068F8082046
S1131ED0FF3001F02DF9C82001F061F80820FF302F
S1131EE001F018F9C82001F05AF80820FF3001F079
S1131EF01FF94020A74900F08DFE1020A64900F0EC
S1131F000DFF7020A54900F08DFFA549002000F0C9
S1131F10DFFBA44C206801F042F8A349002000F044
S1131F20D7FB206801F03BF8A049002000F0D0FB6B
S1131F30206801F034F89E49002000F0C9FB2068B5
S1131F4001F02DF89B49002000F0C2FB206801F04D
S1131F5026F89949002000F0BBFB206801F01FF827
S1131F609649002000F0B4FB206801F018F8944969
S1131F70002000F0ADFB206801F011F89149002029
S1131F8000F0A6FB206801F00AF88F49002000F059
S1131F909FFB206801F003F88C49002000F098FBB7
S1131FA0206800F0FCFF8A49002000F091FB2068C3
S1131FB000F0F5FF00F0A7FBC0B2332800D15AE1CE
S1131FC007DC312800D17EE000DD17E1302831D074
S1131FD09BE7352800D1D1E100DA9DE1362800D114
S1131FE0EDE16E2891D1206800F0D9FFA021802274
S1131FF0FF311202002000F013FE80218022120221
S11320008901052000F00CFE7249002000F060FBFD
S11320100020714900F05CFB704C00F061FE013C53
S1132020642000F0BCFF002CF7D16EE700206C495F
S113203000F04EFB6B49002000F04AFB00F063FB0C
S113204080B231380328F1D8FEF766FA0600E801B9
S1132050EA010400022400E001246349002000F0A6
S113206037FB00F050FB80B23138052810D8FEF75A
S113207053FA1400D901DD01060009000C00002305
S113208064250DE0082332250AE00C23192507E016
S11320905349002000F01CFBDFE7C825AD000323F3
S11320A09B0124031C43221C5049002000F01BFD0B
S11320B08022211C1202002000F036FE5BE000208A
S11320C0474900F005FB4749002000F001FB00F000
S11320D01AFB80B231380328F1D8FEF71DFA060046
S11320E0AA01AC010400022400E001243E490020BE
S11320F000F0EEFA00F007FB80B23138052810D862
S1132100FEF70AFA14009B019F01060009000C0067
S1132110002364250DE0082332250AE00C23192549
S113212007E02F49002000F0D3FADFE7C825AD000F
S113213003239B0124031C432C49221C002000F090
S1132140D2FC012000F074FE80221202211C002027
S113215000F0EAFD2649002000F0BAFA022000F05F
S113216067FE8022211C0020120200F0DDFD002009
S1132170204900F0ADFA022000F011FF00201E49B2
S1132180C3E0C04698000020644000007F40000087
S113219085400000B0FEFF1FD0FEFF1FC0FEFF1FE2
S11321A08C40000000FEFF1FB0400000E240000031
S11321B0EC4000000D410000444100007941000062
S11321C0B4410000FF4100002642000042420000EA
S11321D0694200007C420000AA420000DC050000C5
S11321E0FB420000C5420000184300007443000095
S11321F0B1430000C94300008E430000924900200F
S113220000F066FA91492A1C002000F06CFCFFF7EC
S1132210FBFD8F4F86B2321C391C002000F063FC9A
S1132220206800F0BCFE8B49002000F051FAFFF753
S1132230EBFD80B20290391C029A002000F053FC9E
S1132240206800F0ACFE0020834900F041FA00242D
S11322500298844200DB58E600F0D0FD021E01D152
S11322607E4952E07E49002000F03DFC301C00F025
S113227096FE0134ECE77449002000F029FA734912
S11322802A1C002000F02FFCFFF7BEFD704E80B228
S11322900290029A311C002000F025FC206800F016
S11322A07EFE6C49002000F013FAFFF7ADFD80B20A
S11322B00390311C039A002000F015FC206800F004
S11322C06EFE0020644900F003FA00240DE0654925
S11322D03A1C002000F007FC6149321C002000F089
S11322E002FC029800F05BFE013403998C4200DB8F
S11322F00BE6002000F0C4FD071C012000F0C0FD27
S1132300061C002F04D15849381C00F0E1F9FCE503
S11323100028DCD15549F8E75549002000F0D8F9E8
S1132320FFF720FD534C002000F0AAFD061C0120FD
S113233000F0A6FD96235B00C518ADB2701B01F03A
S113234009FE632816DD201C4B49AE4209D9FEF76D
S1132350EFF94A49041CFEF7BFF900280AD0474C9C
S113236008E0FEF707FC0021041CFEF7A1F9002891
S113237000D00024201CFFF717FDD4E740490020BB
S113238000F0A6F905ACFFF7D7FC3E4B221C23CB8B
S113239023C20020211C021C01F09CFC002802D155
S11323A0394900F095F9FA20800000F0F8FDA3689F
S11323B00133A360632BECD90523A360E9E7FFF79E
S11323C0BBFC05AC2F4B221C23CB23C20020211CB9
S11323D0021C01F07FFC002000F052FD061C0120CD
S11323E000F04EFD294BC518ADB2701B01F0B2FDD3
S11323F0274B984204DC9620400000F0D0FDE5E72E
S1132400A368AE4205D901330A2B00D90A23A3607D
S1132410F1E7013B042BFAD80523F8E700241CE676
S113242003241AE6C82502236D0039E60123C825D2
S113243036E600245AE6032458E6C82502236D0034
S113244077E60123C82574E6E2430000FB4300005D
S11324505C44000094440000C3440000E1440000D4
S11324605F4500005E4500000C4500003545000056
S1132470644500000000B4420000A0400000344362
S11324807A450000184000009445000076070000DB
S1132490CF0700000269C3689A4204D88068101804
S11324A00138C01A01E0013AD01A7047F7B58368C1
S11324B0C668041C40680191151C9F1B8019974233
S11324C003D901F087FDAD190AE001993A1C01F026
S11324D081FD019BED1BD91960682A1C01F07AFD6E
S11324E0E560F7BDF7B5171CC4680022061C01910E
S11324F000923369B568A34200D85B19013B1B1BEA
S11325002D1BBD4200D93D1C9D4200D91D1C736882
S11325102A1C1819019901F05DFD009A019B5219BA
S11325200092B2685B1964190193A31A5A1E93416D
S11325305B421C407F1BF460DBD10098FEBD0000B1
S113254010B5104C104A0223236163610F4BA26142
S1132550A2640F4AE361C8232362E26400230422D5
S1132560A3626362E362A3656365E3652265E01DBC
S1132570084901F040FD201C074901F03CFD2023DF
S1132580A37110BDACFFFF1FAA450000E4FEFF1FAE
S1132590E0FEFF1FB3450000B7450000F7B5204E2D
S11325A0041C33780191171C002B01D1FFF7C8FFDD
S11325B018235C4348343619F268346900920025C4
S11325C0944216D9B2683D1C131B9F4200D91D1CAE
S11325D073682A1C1919019801F0FCFC019A64190A
S11325E052190192B2687F1BA31A5A1E93415B428F
S11325F01C40009B1B1B0093BB4200D90097009A10
S1132600002A07D073680198191901F0E3FC009AB5
S1132610AD18A418002D00D03461281CFEBDC0469E
S1132620ACFFFF1F10B50B1CEFF31084012181F3E5
S11326301088191CFFF7B2FF84F3108810BD000046
S1132640F8B5013018256843134D0F1C2D186E6919
S1132650141C012E0ED0002E06D0022E16D1281CDA
S1132660FFF740FF041C14E0281CFFF713FFA042EF
S11326700ED305E0281CFFF70DFF844200D9041C8B
S1132680281C391C221CFFF711FF02E0002400E083
S1132690341C201CF8BDC046ACFFFF1FF8B50B4B23
S11326A0071C1B780E1C151C002B01D1FFF748FFDB
S11326B0EFF31084012181F31088381C311C2A1C8B
S11326C0FFF7BEFF84F31088F8BDC046ACFFFF1FC0
S11326D038B5051C081C0C1C01F095FC211C021CBF
S11326E0281CFFF7DBFF38BD13B56C460734002008
S11326F0211C0122FFF796FF012801D1207801E077
S11327000120404216BD08B5FFF7EEFF0028FBDBB1
S113271008BD0000F7B5164C01932378051C0F1C67
S1132720161C002B01D1FFF70BFF226995421CD226
S1132730EFF31080012181F31088002D0CD01823B1
S11327406A1C5A436B43A750A2185660019AE318B7
S11327501A6200229A625A6218235D43089B641924
S1132760E36280F31088002001E001204042FEBDB6
S1132770ACFFFF1F826810B5041C4068531C8342E1
S113278005D820688154A360E3680133E360A2683C
S113279063689A420CD120692168FFF77FFFA36820
S11327A0984203D001235B42E36001E00023A3606D
S11327B010BD0000F0B585B00A9C051C0091019283
S11327C01F1C081C0126019A904204D30199FDF7AD
S11327D0ADFE0136F7E70296BE4200D202970B9A8D
S11327E001231A40039219D1002C01D1002415E0D1
S11327F00B9B20269B070ED53026002F0BD02026BE
S113280009E0281C311CFFF7B5FFEA68013C002AE7
S113281004DB002CEAD0029BA342F2D3EA6801262F
S1132820002A34DB012F01D9013F06E00098311C56
S1132830FDF77CFE019B984208D3019A5643F1E7C9
S1132840301C0199FDF772FE061E10D00098311C51
S1132850FDF76CFE331C4343009AD21A0D4B0092D1
S1132860195C281CFFF786FFEB68002BE8DA039A53
S1132870002A0CD0002C0AD0029AA24207D2281CAB
S11328802021FFF777FFEB68013C002BF2DA05B05B
S1132890F0BDC046BE450000F0B59DB00CAB07933B
S11328A04023089300230590161C09930B900A9368
S11328B00B784C1C002B04D10A9B002B00DD04E197
S11328C00EE1252B00D0F6E0023100254F1E3B78A7
S11328D02B2B0CD003D8232B0DD1082308E02D2B50
S11328E003D0302B07D1022302E0012300E00423AC
S11328F01D430131EAE700243B781A1C303A092AC7
S113290005D80A225443303C0137E418F4E7002187
S113291002912E2B0DD101373B781A1C303A092A2B
S113292007D802990A224A43303AD2180137029250
S1132930F2E7397804230A1C9A43682A01D1013743
S1132940F7E7642925D008D8582900D193E06329F2
S11329501AD0252900D0ACE0A8E0732900D193E077
S11329600DD8702900D0A4E0336807A81A1D19688F
S113297032600823002201920093102293E075290B
S11329806FD0782977D094E033681A1D32601978B3
S11329908CE033681A1D1B683260D917581801225D
S11329A0049348400392092806DD0A21FDF70CFE32
S11329B0039B01330393F6E70399029A914200D2F1
S11329C00392002C05D0049B002B01DB690700D582
S11329D0013CAA0702D5029B002B10D0E9070ED4B4
S11329E0002C01D100240AE0039AA24207D207A8CE
S11329F02021FFF7BFFE0A9B013C002BF0DA0A9B63
S1132A00002B56DB0499002904DA4942049107A8F3
S1132A102D2103E06A0703D507A82B21FFF7AAFE9F
S1132A200A9B002B45DB03232B40022B11D1029977
S1132A3000290ED1002C01D100240AE0039AA242FD
S1132A4007D207A83021FFF795FE0A9B013C002B13
S1132A50F0DA0A9B002B2CDB0094019507A804995B
S1132A6006E0336807A81A1D1968326000940195BE
S1132A700A22029B17E0336807A81A1D19683260FE
S1132A80009401951022F4E733681A1D32601C6823
S1132A902178013400290CD007A8FFF76BFE0A99AE
S1132AA00029F5DA05E0FFF785FE02E007A8FFF745
S1132AB061FE7C1C03E007A8191CFFF75BFE0A9A61
S1132AC0002A00DAF8E6211CF2E6099A002A03D06B
S1132AD005980CA9FFF7E2FD0A99099A8B180A9345
S1132AE00A981DB0F0BD0EB403B503AB04CB111CA2
S1132AF001AA0193FFF7D0FE02B008BC03B0184747
S1132B0008B5002000F022FB08BD08B5002000F045
S1132B104FFF08BD10B5174B08229978114202D017
S1132B2099780A439A70144B8821002249015A501B
S1132B301249222008701249802040025850186817
S1132B40104901401960104910485C582040C024C5
S1132B50A404204358500E4B80211A721976012187
S1132B601A7059700B490A7099790C221142FBD1E1
S1132B7010BDC04600D007400070044000E007408C
S1132B8044100000FFFFF3FF04100000FFFFFFF0FC
S1132B900040064000500640154B164930B51A1E39
S1132BA08A420CD0144C0023A408A34204D09800F9
S1132BB00D5801331550F8E7104B9A6001E00F4AA5
S1132BC093600F4A0F490023891A8B4204D0D45CC6
S1132BD00D48C4540133F8E70C4A0D490023891AFF
S1132BE08B4204D0D018002404700133F8E730BDC0
S1132BF000000000000000000000000000ED00E004
S1132C006C470000DC47000000FEFF1F70FEFF1F42
S1132C10A4000020F0239B0408704B607047000060
S1132C2010B588B0002801D0052820D1114B0C0A1A
S1132C301A7806AB1A80104A1268079204AA107018
S1132C4005A841700D49047009680224029100909E
S1132C50191C01940123002000F08EFC031C0020A9
S1132C60834205D00649FFF733FD201C00E0032012
S1132C7008B010BDB0FEFF1F04FEFF1F08FEFF1FBB
S1132C80CE45000030B589B0FF2305AA1370032395
S1132C9005281AD80E4C06AB257810701D800D48F7
S1132CA00D4D08342D68006801910290191C0094A0
S1132CB001230020079500F06CFC0023984204D007
S1132CC0181C0649FFF704FD0223181C09B030BD87
S1132CD0B0FEFF1F08FEFF1F04FEFF1FE8450000B3
S1132CE0022008B5011CFFF7CDFF094B1A7A5B7A65
S1132CF0D2B2DBB2002804D006490020FFF7E8FC7A
S1132D0004E012021A430449FFF7EDFE08BDC04671
S1132D10B0FEFF1F024600005F4500008023DB0475
S1132D2008704B607047000030B5032489B0A0429E
S1132D3022D8134B0C0A1A7806AB1A80114A0225C2
S1132D401268079204AA107005A801700E49447015
S1132D500968009002910195191C0020012300F0DC
S1132D600BFC041E05D000200849FFF7B1FC2C1C05
S1132D7002E00749FFF7ACFC201C09B030BDC04697
S1132D80D0FEFF1F04FEFF1F08FEFF1FCE450000FC
S1132D900946000070B588B005AAFF23041C0D1C69
S1132DA013700320062C1ED801231E1CA640772175
S1132DB00E4218D00D4806A9067814700E800C4CEB
S1132DC00C4E0830366824684E60009002940195D9
S1132DD0002000F0DEFB031C0020834203D00649E0
S1132DE0FFF776FC022008B070BDC046D0FEFF1F7E
S1132DF008FEFF1F04FEFF1FE845000008B502217E
S1132E000420FFF7C7FF064A0023517A127AC9B299
S1132E10D2B2984201D10B021343181C08BDC0461C
S1132E20D0FEFF1F8023DB0308704B607047000057
S1132E3010B50F4B88B01B7806A90B800D4B0024EE
S1132E401B6805AA4B600C4B10701B68201C029376
S1132E5000940123019400F08FFB031C201CA34267
S1132E6003D00649FFF734FC022008B010BDC04669
S1132E70C0FEFF1F04FEFF1F08FEFF1F2C460000BC
S1132E8008B5002801D1012000E00220FFF7D0FF9F
S1132E90FFF7B4FF08BD031C417000201870586090
S1132EA09860704710B54378041C0120FF2B08D0AC
S1132EB000F028F963780133DBB2637000F016F98F
S1132EC0002010BD38B5041C0D1C00F01BF9E3688C
S1132ED01D43E56000F00AF9002038BD0A4B0022CA
S1132EE09A641A1C40329A631A1C30329A621A1C71
S1132EF020329A611A1C10329A60044A1360044BFF
S1132F009B60DB607047C04638000020340000201E
S1132F1024000020024B00221A60186880B2704717
S1132F200C007C5070B54378041C0E1C002B0AD096
S1132F3000F0E8F863780025013BDBB2637025708C
S1132F4000F0D4F829E00225002926D00378002BCC
S1132F5016D0FFF7DFFF6368A268984201D3C31A53
S1132F6003E08021C31A49025B1803259A4214D254
S1132F7000F0C8F80023237000F0B8F802250CE034
S1132F8003254B1C09D000F0BDF80123237000F089
S1132F90ADF8FFF7BFFFA6606060281C70BD38B5B0
S1132FA0051CFFF7B7FF041CFFF7B4FF031BA04287
S1132FB003D28022001B520283189D42F4D238BDF2
S1132FC010B5FFF78BFF094A012313600849094A2A
S1132FD00020094C1060086004212160074C216026
S1132FE007490B6007490860136010BD388004501E
S1132FF000008450000004500000045104000451F7
S113300004000C50000004531F2303408021DA0500
S1133010490511434209044892001218081C104340
S113302001229A40026070472880044008B5054890
S113303000F068FC044B1968C9B20131FDF776FA57
S113304008BDC046004006404480145808B5054BEE
S1133050186800F07BFC0023984201D0024B1B68E7
S1133060181C08BD604600009800002008B5094BF4
S11330701B68DBB2022B06D0032B07D00020012BE8
S113308007D1054805E0FFF7E1FF02E0034800F03F
S113309023FC08BD04800C5C006CDC02004006408C
S11330A008B5011C044800F06FFC044B002801D152
S11330B0186800E0586808BD0070044088000020CB
S11330C008B5024B185CFFF79FFF08BD534600008C
S11330D008B56620FFF798FF08BD000008B5024B4D
S11330E0185CFFF791FF08BD55460000044A1368B9
S11330F0002B04D0013B1360002B00D162B6704753
S11331009000002072B6024B1A6801321A607047B0
S113311090000020010AFF231940044A890003405B
S11331208A580120984050607047C04664460000A9
S1133130010AFF231940044A890003408A580120E8
S1133140984090607047C0466446000008B5084B3C
S11331508200D258942302325B0513431B78002B60
S113316002D000F023FA01E000F078FA08BDC0466E
S113317058460000021C80230C325B0513431B7865
S1133180002BF7D00171704738B5094B8000C45843
S11331900D1C201C1830291CFFF7C4FE0328F8D08E
S11331A0002801D004232374207CC0B238BDC0465B
S11331B094000020F0B589B005930EAB0290161C64
S11331C01A78830035488D0A18581E3D01903448FA
S11331D0CFB21C58002007AB18800123A07CE374F5
S11331E0A37453425341DBB203936B425D41EDB28E
S11331F00490002D02D00F0AC9B28C467F00002330
S1133200FFB29D4204D12B1C002E01D1039AD3B2EC
S11332101F4307AB1F700122002D02D06046587077
S11332200222A360E2600198391CFFF7A3FF029811
S11332300F99FFF7A9FF237C002B0CD1002E0AD095
S1133240059AA660E26031780198FFF793FF02982F
S11332500F99FFF799FF237C002B16D1039B002BBA
S113326013D0002D01D1002E0FD000230125A3601F
S11332700198E56000F0E2FD291C39430198FFF74D
S113328079FF02980F99FFF77FFF04980023A07439
S1133290207CE374C0B209B0F0BDC04658460000BB
S11332A094000020104A830010B598580F4A9C5887
S11332B0E37C002B05D0237C052B02D0237C042B3C
S11332C009D19823821C5B05134300221A7000F075
S11332D0C7FD01236374A37C002B03D0201C18308A
S11332E0FFF7E0FD10BDC0465846000094000020E2
S11332F0F7B5194B8200D358061C0193174B0D1CCC
S1133300D75800920124002F24D12422081C391CF0
S113331000F069FE281C391C1830FFF7BCFD301C76
S1133320FFF7D6FE019800F03DFD009A0B4BD550F7
S11333300B4B9A5D1F231A40231C93401A1C094B04
S11333401A60019A9C2302325B05134380226C7439
S11333501A703C1C201CFEBD58460000940000203E
S11333605746000000E100E00A4A830070B59E5809
S1133370094A0C1C9D584A686B699A4209D0FFF7A8
S113338055FE6268011C0023301C00F019FD6468BE
S11333906C6170BD5846000094000020F0B587B001
S11333A005930FAB1B780492334A029383009E5813
S11333B0324A03919C58071C637C002B02D10320E2
S11333C0207456E0029B002B01D11E230E93002390
S11333D0E360A360237423606374029B381CA374AA
S11333E00399FFF7C1FF9022B31C52051A43102121
S11333F0117098258422F11C52056D050A431D4362
S1133400022140231170301C2B7000F017FD039B28
S1133410381C1988012300930E9B049A0193059B81
S1133420FFF7C8FE0D9B002B16D0237C002B10D178
S11334300C9B301CA3600D9BE3600C9B1978FFF779
S113344099FE029B002B12D0381C0E99FFF79CFEAC
S11334500DE0237C042B0AD100232B70F378012583
S11334605B092B4202D0301C00F0FAFC6574207C0E
S1133470C0B207B0F0BDC04658460000940000201A
S1133480F0B58BB0099313AB1B780892384A0493B8
S113349083009D58374A07919C58061C637C002B77
S11334A002D10320207461E00499002901D11E2275
S11334B01292109B1199049A002761602360E760BF
S11334C0A2742774301C0799A7606774FFF74CFF38
S11334D0AB1C0393039990235B05194310230B70D2
S11334E08423EA1C5B05134302221A70039A98236F
S11334F05B051A4340231370281C0591069200F0C3
S11335009DFC079B129A1988301C0192099B009715
S1133510089AFFF74FFE237CDBB2BB4216D1059914
S11335208C220B7011995205012903D1039B1A4374
S1133530082301E003990A431370049A2B79002AA3
S113354012D0301C1299FFF71FFE0DE0237C042BD0
S11335500AD1069B01261F70EB785B09334202D027
S1133560281C00F07DFC6674207CC0B20BB0F0BD5A
S113357058460000940000201FB5069C0094079C48
S11335800194089C029401240394FFF707FF04B0FC
S113359010BD1FB5069C0094079C0194089C0294DE
S11335A001240394FFF76CFF04B010BD254A830087
S11335B070B59D588422E91C52050A4302211170FA
S11335C0214A9C5890226B1852051A431278E978C4
S11335D0D2B28E0634D594214905194309780029BD
S11335E02ED0012A15D1EB78134202D0052323747F
S11335F00CE0E368013BE360002B07D0A368281CC0
S11336005A1CA2605978FFF7B5FD19E0FFF74AFE8E
S113361016E06268013A6260002A06D08C214905EE
S1133620012A05D10B43082204E0FFF73BFE02E028
S11336300B4300221A7023685A1C22602A791A70DC
S113364070BDC0465846000094000020C31C84206E
S1133650400518430223037070470000F0B5904BF7
S11336608100CD589022EB7889B05205DBB2071C5B
S11336700593101CAB1D1843EE7884460078EC1CAF
S1133680C0B2079094204005184300780494F6B221
S1133690441EA041834C0696982676050C59A91C15
S11336A0C0B2334300911143029018780A78C0B233
S11336B0D2B20392029A0191002A30D007990029CC
S11336C00DD0102362461370281CFFF7BFFF236B35
S11336D0002B00D1E1E0F8B2626B0121D9E00028AF
S11336E01DD040221A70281CFFF7B0FF231C2C3376
S11336F01B78002B02D1009806433370236B002BF8
S113370003D0F8B28021626B9847E37D002B04D08C
S1133710201C18308021FFF7D5FB0A23BCE0069952
S113372001228E11281C1640FFF790FF05980121F5
S113373003110B4219D0049A90235B051343102202
S11337401A70002E04D0EB785B07DB0F10D11AE05F
S1133750082323702C342378002B00D09DE098227A
S1133760009C52052243137097E0002E16D0EAE71E
S1133770019810230370236B002B6BD0F8B2022145
S1133780626B984766E001990B70236B002B03D0A2
S1133790F8B2626B042198472B797EE0039A012AE0
S11337A026D1EB78134255D0019B1E702B79231C34
S11337B02C331B78002B07D10298002804D19823BE
S11337C000995B050B431870236B002B03D0F8B2F0
S11337D00821626B9847A37D002B04D0201C18306D
S11337E00821FFF76FFB00236360E360237554E057
S11337F02B79A268DBB2002A2AD0226913702369CC
S113380001332361A368013BA360A368002B44D167
S1133810029B002B12D1231C2C331B78002B05D1C7
S1133820982300985B05029903431970E37D002BEC
S113383004D0201C18302021FFF744FB00236375BB
S11338402361236B002B28D0F8B2626B202120E087
S1133850072321E06368002B1DD0E2681378291C3C
S113386080220C3152050A431278002AF7D02B71BA
S1133870E3680133E3606368013B63606368002BC2
S11338800BD1E3602375236B002B06D0626BF8B277
S11338901021984701E00623237009B0F0BDC0460B
S11338A0584600009400002084235B0503431A78E3
S11338B000239A4209D080235B0501301843037822
S11338C0012B01D1024B00E0024B181C7047C0468B
S11338D000127A0080841E0038B5084A031C08339D
S11338E013431D78064A031C183313431C78FFF74F
S11338F0DBFFEDB2E4B22C19E04038BD00009010BB
S11339000000101010B50D4A831D13431B78041CCE
S1133910DBB2002B0FD0012B07D1FFF7C5FF084BFB
S113392008341C432378D84006E00020022B03D13E
S1133930044B186800E0044810BDC046000008119C
S11339400000901098000020006CDC029C235B05B2
S113395018430078431E9841C0B27047002908D02C
S113396001290DD1074B5206C018E4235B05184307
S113397005E0044B1206C018E0235B0518430260FF
S11339807047C0460C100000002905D001290BD156
S1133990064BC018E42302E0044BC018E0235B0587
S11339A018430068C0B200E0002070470C1000000B
S11339B008B5084B8200D258902303325B051343A9
S11339C01B78002B02D000F025F801E000F08CF801
S11339D008BDC0465C4600000C4A08B580000C4B8C
S11339E08158C3589C2003314005002208431A71B2
S11339F002709420400501430A701A7F002A03D004
S1133A00181C2030FFF74EFA08BDC0465C46000083
S1133A109C00002010B51F4B8200D3581E495258F9
S1133A201979002934D05969002911D09C214905FC
S1133A301143097800290BD09479D968E4B200299C
S1133A4003D00C70D9680131D960596901395961C1
S1133A501969002914D094214905114309780029D2
S1133A600ED09968002903D00C780131996000E0E8
S1133A700C1C94711A69013A1A619A6901329A61AB
S1133A801A69002A04D15B69002B01D1FFF7A4FF56
S1133A9010BDC0469C0000205C46000008B5104BD9
S1133AA08000C3580F4A81580022581CC2779C20BA
S1133AB0033140050843DA621A701A835A629A6223
S1133AC01A6302709420400501430A701A1C3832AC
S1133AD01278002A03D0181D0121FFF7F3F908BD5D
S1133AE09C0000205C46000038B5254B8200D3586A
S1133AF024495258591CC97F00293FD0D96A00294A
S1133B0016DB9421490511430978002910D0596A1C
S1133B101C7F002905D0DD6A002D02DD0C780131FF
S1133B2059629471D96A0139D962596B0131596367
S1133B30D96A002905DA9421D41C490521430024BB
S1133B400C70196B002911DD9C214905114309787A
S1133B5000290BD091799A6AC9B2002A03D0117056
S1133B609A6A01329A621A6B013A1A63DA6A002A73
S1133B7004DC1B6B002B01DCFFF790FF38BDC04653
S1133B809C0000205C46000010B5044B021D083068
S1133B901A43002403431460196010BD0000781018
S1133BA01F4B820070B5D658051C0C1CFFF796FA03
S1133BB0291C301C00F0AAF9A178331CC0228433DC
S1133BC052051A4309041160E178C42252051A43CC
S1133BD0490411602179C82252051A4389041160ED
S1133BE06179104A09061A4311606178A4225205CA
S1133BF01A43490211600C4A21781343002291426E
S1133C0000D0C0221A60094BC0215A5D1F231A40FC
S1133C10012393401A1C064B49005A501A6070BD88
S1133C20344700000000181C000008133C47000043
S1133C3000E100E010B5031C84000F4820580F4C2D
S1133C40204302600E4C002901D1217013E04A1E6A
S1133C50022A04D80B4B0906196001230AE004392F
S1133C60CAB2012A05D8191C0748FFF777FE0223B8
S1133C7000E00323237010BD34470000000010103F
S1133C80A000002004800C5C007004400E4B8200F5
S1133C90D3580E4A10B513431C680123E4B2A34061
S1133CA01C1C0B4B1B78012B04D0022B09D1FFF7F2
S1133CB0F7F902E00020FFF7D9F9211CFCF736FCE4
S1133CC000E0002010BDC046344700000000101082
S1133CD0A00000202F4BF7B5161C8200D4582E4BA1
S1133CE00D1C1A7800239A4251D0FFF7CFFF311CE4
S1133CF0071C201C00F0F6F8201C291C321C00F0C4
S1133D00CCF82B78002B02D0012B1ED038E0381CC5
S1133D106968FCF70BFC80B2071C0190013FA8689E
S1133D20BFB278436421FCF701FC80B2B84200D2F0
S1133D300190201C391CF600FFF726FF1036174BA4
S1133D403619019A1E4332601AE06B68381C590018
S1133D50FCF7ECFBAB6887B2381C58436421FCF7D2
S1133D60E5FB85B2BD4201D37D1CADB2201C391CDC
S1133D70F600FFF709FF1036084B36191E4335606D
S1133D80074B054A1C431378DB0023600123181CEE
S1133D90FEBDC04634470000A0000020000078109B
S1133DA0000088110023C222037043708370C37023
S1133DB043718371C371037242728372C372704719
S1133DC0F0B587B00293FA239B00534300270125E3
S1133DD00490059101936D423C1C00970123A3407C
S1133DE003930026144A059893195988039B594351
S1133DF0FCF79CFB019A831A824200D9131AAB4246
S1133E0004D20D4A0094975D1D1E02D00436C82EBC
S1133E10E8D10134032C01D0002DDFD1029B002B0B
S1133E2000D01D60009A3F231F4093011F43049B51
S1133E30FFB25F7007B0F0BD6C46000094230230FF
S1133E405B0503431B78002B04D088235B051843D0
S1133E50042303E080231B051843302303707047B9
S1133E609422831C52051A431278011C0220012A51
S1133E7012D18022D2041343CF221A708023DB0094
S1133E80C8782022024004D0013B002B03D0C04656
S1133E90F6E7101C00E00920704730B54C78082381
S1133EA0002C00D00423041C0C34D200A218156882
S1133EB02024234340242C402343136013689B068F
S1133EC09B0FFBD00B78002B06D0012B08D1942339
S1133ED05B051843202302E094225205104303603B
S1133EE030BD0000C90010B509180B1C064A103378
S1133EF01A4300231360CC6840222240CA609422F3
S1133F0052051043036010BD0000781010B5FF2463
S1133F10012900D802240021031C0C4A02C31343C4
S1133F201960031C08331A43094B1360031C0C3338
S1133F300022A14204DA1A6001315A600833F7E71B
S1133F400423FF3303658430026010BD0000781041
S1133F50FFFF0000C317C01858407047084B10B546
S1133F60041C002B02D0002100E000BF054B1868A0
S1133F70836A002B00D09847201C00F04BF8C04601
S1133F80000000004047000070B50E4B0E4D0024A9
S1133F90ED1AAD101E1CAC4204D0A300F358984790
S1133FA00134F8E700F0CEFB084B094D0024ED1A6C
S1133FB0AD101E1CAC4204D0A300F3589847013442
S1133FC0F8E770BD644700006447000064470000E0
S1133FD06847000010B50023934203D0CC5CC4545E
S1133FE00133F9E710BD031C8218934202D0197003
S1133FF00133FAE77047031C0A7801311A70013360
S1134000002AF9D170470023C25C0133002AFBD196
S1134010581E7047FEE7C046000000003200000052
S113402005000000B41600005016000098160000A9
S11340307E150000981600008C16000098160000EB
S11340407E15000050160000501600008C1600006B
S11340507E1500007415000074150000741500002E
S1134060D81800000A0A0A0D426F6F74696E67203F
S1134070576172702C20696E20332E2E2E20003250
S11340802E2E2E2000312E2E2E0A0D000D0A0A0A85
S11340900A5B202A0909090957096109720970098B
S11340A0287265762E2062290909092A205D0A00F2
S11340B00D5B2020090909092020202020204361CC
S11340C06D627269646765202F2050687973636F2D
S11340D06D706C61622020200909090920205D0AA5
S11340E00A000D53656C6563743A0A000D2D202790
S11340F06E273A20726561642066726F6D20494EA6
S1134100413231392073656E736F720A000D2D20B0
S11341102730273A20436F6E6669677572652056AB
S1134120454D4C373730302073656E736F7220778E
S1134130697468206E6F204D756C7469706C657855
S113414065720A000D2D202731273A20436F6E66D1
S113415069677572652056454D4C3737303020738A
S1134160656E736F72732077697468204D756C7413
S113417069706C657865720A000D2D202732273A24
S113418020526561642066726F6D2056454D4C3730
S11341903730302073656E736F72207769746820CE
S11341A07370656369666965642072656164696ECC
S11341B067730A000D2D202733273A205265616466
S11341C02066726F6D2056454D4C37373030207362
S11341D0656E736F722077697468207370656369A4
S11341E0666965642072656164696E677320616ED7
S11341F064206D756C7469706C657865720A000D65
S11342002D202734273A20547261636B206C696730
S11342106874207769746820736F66747761726557
S11342202050574D0A000D2D202735273A2050578E
S11342304D202620534739302074657374696E67A6
S11342400A000D2D202736273A20547261636B2013
S11342506C69676874207769746820686172647730
S11342606172652050574D0A000D456E74657220C9
S113427073656C656374696F6E3E20000A436F6DED
S1134280706C6574656420636F6E666967757261CE
S113429074696F6E20666F722063757272656E74D6
S11342A02073656E736F722E0A00494E41323139A4
S11342B02073656E736F7220646174612062656C33
S11342C06F773A0A000D0A095768617420697320F0
S11342D0746865206761696E3A0A31202D2078324E
S11342E00A32202D2078310A33202D2078312F34C2
S11342F00A34202D2078312F380A000D0A09496E1E
S113430076616C696420696E7075742E20547279BC
S113431020616761696E2E000D0A09576861742077
S113432069732074686520496E7465677261746985
S11343306F6E2054696D653A0A31202D2038303073
S11343406D730A32202D203430306D730A33202DE2
S1134350203230306D730A34202D203130306D73AB
S11343600A35202D2035306D730A36202D20323544
S11343706D730A000D0A09414C53436F6E666967F9
S113438075726174696F6E206973202564000A4335
S11343906F6D706C6574656420636F6E66696775B4
S11343A0726174696F6E20666F7220414C532E0ADD
S11343B0000A466972737420777269746520737594
S11343C0636365737366756C000A5365636F6E642B
S11343D0207772697465207375636365737366759A
S11343E06C000D0A09456E61626C696E6720493282
S11343F0432070696E732E2E2E0A000D0A09536530
S113440074207468652074696D652064656C6179D5
S1134410206265747765656E2065616368207275D6
S11344206E20696E206D696C6C697365636F6E6470
S1134430732E20596F75206D75737420646F20611D
S113444074206C6561737420746865204954207409
S1134450696D653A202564206D7320000D0A0944B6
S1134460656C6179206265747765656E207265613B
S11344706420626174636865732073657420746F6B
S1134480202564206D696C6C697365636F6E647359
S11344902E0A0A000D0A0953657420746865206E9B
S11344A0756D626572206F662072656164696E67FE
S11344B0732028652E672E2C202731323334272988
S11344C03E20000A56454D4C373730302073656E18
S11344D0736F7220646174612062656C6F773A0A4D
S11344E00052656164206661696C65642066726F60
S11344F06D207468652073656E736F722E20457825
S11345006974696E67204C6F6F702E005265616428
S1134510206661696C65642066726F6D2053656EF8
S1134520736F7220312E2045786974696E67204C50
S11345306F6F702E0052656164206661696C6564FA
S11345402066726F6D2053656E736F7220322E2059
S113455045786974696E67204C6F6F702E000A206D
S113456025642C000D0A095374617274696E672006
S11345706D6F746F722E2E2E0A000D0A095374612A
S11345807274696E67205347393020746573742ED2
S11345902E2E0A000A4661696C656420746F2073CC
S11345A0746172742050574D2E005465726D696E9B
S11345B0616C005254540053454747455200303112
S11345C032333435363738394142434445460A4458
S11345D069646E74207772697465207375636365AA
S11345E07366756C6C792E000A4469646E7420528B
S11345F0454144207375636365737366756C6C79A8
S11346002E00202D2D2D2D2C000A577269747465EF
S11346106E207375636365737366756C6C7920744F
S11346206F2056454D4C373730302E000A446964AC
S11346306E7420777269746520737563636573663D
S1134640756C6C7920746F206D756C7469706C6511
S1134650782E00898AB8B9080060064000600740D7
S11346600050064000F00F4040F00F4000001400DE
S1134670010016000200180003001A0004001C00C8
S113468005001E0009002000060022000A00240084
S1134690070028000C002C00100030001100380026
S11346A0120040000F0044001300480014005000A2
S11346B01500580019006000160068001A00700008
S11346C0170080001C0090001D00A0001E00C00008
S11346D02200E0001F00F00023000001240020015C
S11346E025004001260080012A00C0012700E001C6
S11346F02B0000022C0040022D0080022E0000033B
S1134700320080032F00C00333000004340080040F
S113471035000005360000063A0000073700800720
S11347203B0000083C0000093D00000A3E00000C6C
S11347303F00000F0080034000900340111243002B
S11347400CFEFF1FF8B5C046F8BC08BC9E46704777
S10F4750F8B5C046F8BC08BC9E46704793
S10B475C14BDFF7F0100000001
S10747643904000010
S10747681104000034
S113476C0A000000C8000000050000000000000062
S113477C0000000000000000000000000000000029
S113478C0000000000000000000000003E47000094
S113479C0000000000000000000000000000000009
S11347AC00000000000000000000000000000000F9
S11347BC00000000000000000000000000000000E9
S11347CC00000000000000000000000000000000D9
S90304E90F
